:100000000C9409030C9450030C9450030C9450036B
:100010000C9450030C9450030C9450030C94500314
:100020000C9450030C9450030C94B8220C948A2323
:100030000C94A7190C9450030C9450030C94500387
:100040000C9450030C9450030C9450030C945003E4
:100050000C9450030C94F4190C9450030C9450031A
:100060000C9450030C9450030C9450030C945003C4
:100070000C9450030C9450030C9450030C945003B4
:100080000C9450030C9450030C9450030C945003A4
:100090000C9450030C9450030C9450030C94500394
:1000A0000C9450030C9450030C9450036E0375038E
:1000B0007903DB03FF0331044A047B049E04B70485
:1000C000ED040005130538059E037F05D80ED80EF4
:1000D000EA0EEA0EE10EEA0EEA0EEA0ED80ED80E8D
:1000E000E60EEA0EEA0EE60E2C0F2C0F600F600FE4
:1000F000B00FCC0FF610F610D70F721085108510C8
:10010000E610F610F610EF10F7231E2416251E2415
:1001100016256A248D241625E424F324375D1E0059
:100120002A5D2000210022002B5D2C5D2D5D2E5DBF
:100130002F5D305D315D00002A002B0000001400AF
:100140001A000800150017001C0018000C0012000F
:100150001300325D335D345DE000000004001600E2
:10016000070009000A000B000D000E000F00355DAE
:10017000365D28000000E10000001D001B000600A5
:10018000190005001100100036003700380000008B
:10019000E5000451E000E30000008B642C00000047
:1001A0002C0000002C0000008A74E7000000F5001D
:1001B000E400165C1E001F00200021002200230026
:1001C00024002500260027002D002E0000002A0014
:1001D0002B00000014001A000800150017001C0076
:1001E00018000C00120013002F0030003100E00056
:1001F000000004001600070009000A000B000D00B3
:100200000E000F003300340028000000E100000061
:100210001D001B000600190005001100100036002B
:10022000370038000000E5000251E000E300000064
:10023000E2002C0000002C0000002C000000E60072
:10024000E7000000F500E40035003A003B003C0008
:100250003D003E003F00400041004200430044009A
:10026000450000004C0001000000010001000100F9
:1002700001000100010001004600460C0000520090
:100280000000010005510000010001000100010013
:100290000100010001004A004B0050004F00010026
:1002A0000000010000000100010001000100010048
:1002B000010001004D004E0051000000010001004E
:1002C00001000100000001002C0000002C000000D3
:1002D0002C000000010001000000010001002E02BE
:1002E0001E022F002002210222022E0023023402CD
:1002F000250226028702330200004C002B02000078
:1003000014021A020802150217021C0218020C023B
:1003100012021302300232028902E00200000402DB
:100320001602070209020A020B020D020E020F0258
:1003300034001F0228020000010000001D021B0201
:1003400006021902050211021002360237023802B3
:10035000000001004259E002E300000001002C000F
:1003600000002C0000002C00000001000100000033
:100370000100E4022F023A003B003C003D003E0039
:100380003F0040004100420043004400450000009F
:100390004C0001000000F400F000F500F90001003D
:1003A000010001004600460C00005200000035002C
:1003B00005510000F200F100F300FA000100010015
:1003C00001004A004B0050004F0001000000E10016
:1003D0000000010001000100010001000100010016
:1003E0004D004E005100000001000100010001001D
:1003F000000001002C0000002C0000002C00000078
:1004000001000100000001000100005C295D285D81
:100410003C003D003E003F004000410042004300E0
:100420004400450000004C000100000001000100F4
:100430000100010001000100010046000100000070
:100440005200000035000100000001000100010021
:1004500001000100010001004A004B0050004F0064
:1004600001000000E10000000100010001000100A6
:100470000100010001004D004E005100000001008C
:10048000010001000100000001002C0000002C0010
:1004900000002C000000010001000000010001002C
:1004A0000403300000000A0344005A003600300004
:1004B000000010034B0042004400460061006E0043
:1004C000730000000403090409023B00020100A0BC
:1004D000FA090400000103010100092111010001D2
:1004E0002240000705810308000A090401000103F6
:1004F00000000009211101000122BC000705820350
:1005000020000A12011001000000085A4460220174
:10051000000102030105010902A10185020901A1EF
:1005200000050919012905150025019505750181A9
:1005300002950175038101050109300931158125F5
:100540007F95027508810609381581257F9501750B
:10055000088106050C0A38021581257F950175086A
:100560008106C0C005010980A101850319012AB7D0
:1005700000150126B700950175108100C0050C0912
:1005800001A101850419012AA002150126A00295E6
:100590000175108100C005010906A1018505050747
:1005A00019E029E715002501950875018102050765
:1005B000190029EF1500250195F075018102050844
:1005C00019012905950575019102950175039101A0
:1005D000C005010906A101050719E029E715002555
:1005E00001950875018102950175088101050719BA
:1005F0000029FF150026FF009506750881000508F3
:10060000190129059505750191029501750391015F
:10061000C00011241FBECFEFDAE0DEBFCDBF04B6AD
:1006200003FE27C08091980290919902A0919A02AE
:10063000B0919B028730904BA740B04BD1F4109201
:1006400098021092990210929A0210929B0214BE84
:1006500084B7877F84BF0FB6F894A8958091600017
:10066000886180936000109260000FBEE0E0F8E3C4
:10067000099511E0A0E0B1E0E8E7FBE402C00590D5
:100680000D92AC38B107D9F722E0ACE8B1E001C077
:100690001D92A839B207E1F70E94F61F0C94BA2503
:1006A0000C940000229A2A9A08950E9492080C94B1
:1006B000520381FF02C02A9801C02A9A0C941606A0
:1006C000CF9388529D458031910508F03FC2FB01D0
:1006D0008A5A9F4FC281FC010C945E25CC2319F0ED
:1006E00080E00E94F805C0E032C2CC23E1F381E053
:1006F000F8CFCC2309F444C00E942F17869581704F
:1007000080938D010E942F1791E0282F207285FF82
:1007100090E090938C0180918D01811103C0211193
:1007200004C02CC081EE0E94230E80918C0188238E
:1007300019F085EE0E94230E8FE277C0CC2309F4D6
:10074000CFC10E942F178695817080938D010E94E2
:100750002F1791E0282F207285FF90E090938C0155
:10076000C0918D01C111B3C1222309F4B4C180919C
:100770008C01882319F085EE0E94790D8FE155C018
:1007800080918D01811104C0C0918C01CC2389F02E
:100790008FE20E94230E80918D01882319F081EE53
:1007A0000E94790D80918C01882309F49CCF85EEFD
:1007B0003CC08FE1C8C1CC23D9F10E942F17869588
:1007C000817080938D010E942F1791E0282F207255
:1007D00085FF90E090938C0180918D01811103C081
:1007E000211104C021C081EE0E94230E80918C0152
:1007F000882319F085EE0E94230E8EE216C0CC23CA
:1008000009F10E942F178695817080938D010E94B7
:100810002F1791E0282F207285FF90E090938C0194
:10082000C0918D01CC23A1F083E20E94790D5BCFB2
:1008300080918D01811104C080918C01882331F059
:100840008EE2A7CF80918D01882329F083E2B6C084
:100850002111EACF43C1C0918C01C111F7CF84E2CD
:1008600072C1CC2371F10E942F17869581708093FD
:100870008D010E942F1791E0282F207285FF90E0B4
:1008800090938C0180918D01811102C02223B9F0D7
:1008900083E3CBCFCC23F9F00E942F17869581708C
:1008A00080938D010E942F1791E0282F207285FFE1
:1008B00090E090938C0180918D01882391F085E2E6
:1008C000B4CF80918D01811104C080918C01882367
:1008D00031F083E373C080918D01882331F085E28C
:1008E0006DC02111ECCF86E2A0CF80918C018111E7
:1008F000F6CF86E263C0CC23B9F00E942F1786950D
:10090000817080938D010E942F1791E0282F207213
:1009100085FF90E090938C01C0918D01C111E3CFD0
:100920002111E1CF87E23EC080918D018111E1CF9D
:10093000C0918C01C111DDCF87E205C1CC23A9F1A3
:100940000E942F178695817080938D010E942F172A
:1009500091E0282F207285FF90E090938C01C09148
:100960008D01C11102C02223E1F087E85ECFCC23C4
:1009700051F10E942F178695817080938D010E94FE
:100980002F1791E0282F207285FF90E090938C0123
:10099000C0918D01C1117CCF21117ACF81EE0E94CF
:1009A000790D8DE20E94790DD2C080918D01811167
:1009B00004C0C0918C01CC2321F087E80E94230E53
:1009C00092CE8DE2C0C080918D01811182CFC09105
:1009D0008C01C1117ECF8DE28EC0CC2379F00E94B4
:1009E0002F178695817080938D010E942F1785FBAC
:1009F000882780F980938C0180E317CF80E3A3C020
:100A0000CC2379F00E942F178695817080938D01F9
:100A10000E942F1785FB882780F980938C0182E341
:100A200004CF82E390C0CC23C1F00E942F1786959B
:100A3000817080938D010E942F1791E0282F2072E2
:100A400085FF90E090938C0180918D01811103C00E
:100A5000222309F48ACF89E8E8CE80918D018111A3
:100A600005C080918C01882309F4A7CF89E86BC069
:100A7000CC2311F10E942F178695817080938D01F0
:100A80000E942F1791E0282F207285FF90E090930D
:100A90008C0180918D01811103C0211104C0F8CE19
:100AA00081EE0E94230E80918C01882319F085EE3F
:100AB0000E94230E84E3B9CE80918D01811105C07F
:100AC00080918C01882309F404CF84E362CE81EE07
:100AD0000E94790D4CCE81EE0E94790D84E262CFA6
:100AE00080918D01811104C0C0918C01CC2311F043
:100AF0008FE14FCE84E20E94230E81EE24C0CC23EE
:100B0000B9F00E942F178695817080938D010E9405
:100B10002F1791E0282F207285FF90E090938C0191
:100B2000C0918D01C11169CE211167CE89E23ACF02
:100B300080918D01811104C080918C01882311F076
:100B40008EE201C089E20E94230E01C0C1E08C2F19
:100B5000CF91089581E008950C94600308950C945A
:100B6000AE051F93CF93DF9300D000D01F92CDB777
:100B7000DEB749835A836B833091A60189819A81BC
:100B8000311114C0662359F0222349F00E94AE1699
:100B9000182F682F89819A810E94571603C00E94DE
:100BA0008216182F69817A81812F04C00E94AE16A7
:100BB00069817A810F900F900F900F900F90DF91C5
:100BC000CF911F910C947506FC01262F4081518115
:100BD0006281738184810C94B105CF93DF93EC0122
:100BE00060E00E94E405BE01DF91CF910C94AF0557
:100BF000CF93DF9361E070E0EB0102C0CC0FDD1F0B
:100C00008A95E2F78C2F0E94F817BE0180E090E0F1
:100C1000DF91CF910C9459150E94E017811102C009
:100C20000E948A180C9455030C949008089581E052
:100C300008950C941706CF93C82F0E9459038C2F48
:100C40000E941906CF91089508950E94C60E0E9431
:100C500024062FEF84E39CE0215080409040E1F790
:100C600000C000000C941A1A0F931F93CF93DF93C8
:100C7000EC0161E00E94E4058C01BE010E94AC051C
:100C8000882349F1BE01C8010E94460A882319F150
:100C9000BE01C8010E94980A8823E9F0BE01C8017C
:100CA0000E94C30B8823B9F08A81882369F001155B
:100CB0008CE5180731F00E3D1C4531F40E948A186E
:100CC0000AC00E94250607C0CE01DF91CF911F9177
:100CD0000F910C94AA0580E0DF91CF911F910F91A5
:100CE000089580E090E0089508952BE4829FC0016C
:100CF0001124FC012FE0729FE00DF11D1124E60F7D
:100D0000F11DEE0FFF1FE45EFE4F85919491089553
:100D1000880F991FFC01E056FB4F8591949108952F
:100D2000CF93DF930E9475060E94A807EC018115FE
:100D3000904508F041C0C11580E4D80708F0D1C043
:100D4000C83ED10510F5C03ED10508F0FDC0C83A37
:100D5000D10578F4C53AD10508F0A2C0C130D1055B
:100D600009F4F2C008F4EEC0C430D10508F0ECC0BC
:100D7000E9C0CF3BD10508F49BC0C03CD10508F4C5
:100D8000E1C0CE01805C91099EC0C11590E2D907F7
:100D900058F4C11521E0D20708F0D6C0C03FD105F4
:100DA00008F4D0C0D065D0C0C11580E3D80708F0E2
:100DB0008EC0CE019F7087C0C11595E5D90708F098
:100DC00043C0C11524E5D20708F0A2C0C11582E5D1
:100DD000D80708F5C11591E5D90708F085C0CE01FF
:100DE00074E0969587957A95E1F783709C2F9370C0
:100DF00021E030E002C0220F331F9A95E2F73C68F1
:100E0000382BCF70C695C69580E2C89FE0011124AB
:100E1000C22BD32B99C09E01237033278C2F86952C
:100E20008695C115D34508F064C0C1E0D0E002C08A
:100E3000CC0FDD1F2A95E2F720E2829FC00111242A
:100E4000C82BD92BDC6880C0C11529E5D207A0F4D6
:100E5000C11588E5D80708F060C0C11596E5D90727
:100E600008F070C08C2F0E943C088F71C82FD0E012
:100E7000DC2FCC27D06268C0C1152AE5D20708F460
:100E800051C0CE0190568115904208F05BC08D2F65
:100E90008F710E943C08DD27D0628F71D82B54C01F
:100EA000C55AD0E0CD5BDE4FC881D0E0D0644CC0E5
:100EB000C85AD0E0CC0FDD1FCB5EDE4F0990D88141
:100EC000C02DD46441C00E948806EC013DC0CE0113
:100ED0009927D3FF03C0EC01D86C36C0EC01D06C6D
:100EE00033C0DF70D06A30C0DC2FCC27C16FD06A2E
:100EF0002BC0C1E0D0E002C0CC0FDD1F2A95E2F785
:100F000020E2829FC0011124C82BD92BDA681CC0B3
:100F1000DC2FCC27C46FD06A17C0DC2FCC27C06F62
:100F2000D06A12C08C2F8F700E943C0894E0D69536
:100F3000C7959A95E1F7CF70D0E0DC2FCC27D06928
:100F4000C82B02C0C0E0D0E0CE01DF91CF91089560
:100F50008238910569F1B0F48133910509F46DC0CF
:100F600048F48932910509F463C08A32910509F485
:100F700069C008958533910509F455C089339105F9
:100F8000B9F00895833E910569F138F4803E9105EA
:100F9000B1F0823E910509F10895863E9105A9F1CF
:100FA000873E9105B9F1843E910509F064C023C0E4
:100FB0002091890220FD4FC021FD4DC008958091F0
:100FC000890280FD44C080918A0280FF44C08091E4
:100FD000890284FD42C083EE4DC08091890282FF68
:100FE00038C0F5CF8091890282FD33C080918A029A
:100FF00080FD31C0ECCF80918A0281FF32C08091A8
:10100000890284FD2AC087EE35C08091890283FF62
:1010100026C0F5CF8091890283FD21C080918A028C
:1010200081FD1FC0ECCF8091890285FD1CC01DC0D1
:101030008091890285FD19C016C08091890286FDC4
:1010400016C017C08091890286FD13C010C089E3C5
:1010500011C082EE0FC080EE0DC080E00BC086EEA6
:1010600009C084EE07C089E205C085E303C08AE2B7
:1010700001C081E390E008959091890292FF0DC034
:10108000282F2871283019F4877F846006C0282F04
:101090002471243011F48B7F886093FF0DC0282FBA
:1010A0002871283119F4877E846106C0282F2471A5
:1010B000243111F48B7E886120918A0220FF0DC0BB
:1010C000382F3871383019F4877F816006C0382F87
:1010D0003171313011F48E7F886021FF0DC0282FCF
:1010E0002871283119F4877E816106C0282F21716B
:1010F000213111F48E7E886194FD877E0895E82F5A
:10110000F0E0EE0FFF1FE558FD4F808191810895BB
:10111000089580EA8A95F1F7089508950C948D0852
:101120000C948E080C948D08CF93DF93A5E5B1E065
:101130004AE551E061E070E08D91E82FE295EF70B3
:10114000F0E021A18F70EB0102C0CC0FDD1F8A956A
:10115000E2F7CE019C2F9095922391A392A1892B27
:1011600082A34A175B0741F7A6E4B1E045E551E0E9
:1011700061E070E08D91E82FE295EF70F0E021A141
:101180008F70EB0102C0CC0FDD1F8A95E2F7CE0114
:101190009C2F9095922391A392A1892B82A34A1709
:1011A0005B0741F7E1E7F2E0ABE7B2E08BE792E003
:1011B000119211921D921D928E179F07C9F785E01B
:1011C0000E947309DF91CF910C940C066F927F926D
:1011D0008F929F92AF92BF92CF92DF92EF92FF9247
:1011E0000F931F93CF93DF9385E5C82E81E0D82E10
:1011F00001E712E09BE7A92E92E0B92E712C88241A
:101200008394912CF60181916F01C82FC295CF7004
:10121000D0E099A18F70740101C0EE0C8A95EAF7B5
:10122000892F8E2989A38AA16E2C609486218AA396
:101230000E948908E6E4F1E040E050E020E030E080
:101240006191A62FA295AF70B0E090968C9190E03E
:101250006F7002C0959587956A95E2F780FD08C08A
:10126000C401042E02C0880F991F0A94E2F702C03D
:1012700080E090E0282B392B4F5F5F4F4F305105B6
:10128000F9F689A1682269A28AA1E82AEAA2F801EE
:10129000808191812817390721F03183208381E0F3
:1012A00001C080E0782A0E5F1F4FA016B10609F03A
:1012B000A9CF272D45E06BE772E081E792E00E941D
:1012C00074090E941406872DDF91CF911F910F9111
:1012D000FF90EF90DF90CF90BF90AF909F908F9056
:1012E0007F906F9008950895FF920F931F93CF936F
:1012F000DF93F82E092F162FD72FC42F222349F062
:1013000081E0809390010E94D91990938F0180937E
:101310008E01809190018823D9F080918E01909167
:101320008F010E94E519069798F0EF2DF02FA12F5D
:10133000BD2F80E090E04C2F50E08417950734F4E7
:10134000219131912D933D930196F7CF1092900109
:10135000DF91CF911F910F91FF900895AF92BF92AF
:10136000CF92DF92EF92FF920F931F93CF93DF9371
:101370007C015B01C42FD22FFC0182818823F9F00C
:10138000409393010E94D919909392018093910107
:1013900080E28C0F883008F06EC0C77081E001C019
:1013A000880FCA95EAF7DF91CF911F910F91FF90B7
:1013B000EF90DF90CF90BF90AF900C949E0E8091F5
:1013C0009301481335C080919101909192010E9440
:1013D000E5196C01B701C5010E941914C816D90698
:1013E00038F510E21D0FCD17B9F080E28C0F883070
:1013F00040F4C77081E001C0880FCA95EAF70E94E7
:10140000A50E183058F581E09D2F977001C0880F08
:101410009A95EAF70E949E0E802F0E948B0E18303C
:1014200050F5D77081E001C0880FDA95EAF70AC05D
:1014300080E28C0F8830F8F4C77081E001C0880F1B
:10144000CA95EAF7DF91CF911F910F91FF90EF902E
:10145000DF90CF90BF90AF900C94A50E802FDF91BE
:10146000CF911F910F91FF90EF90DF90CF90BF90A1
:10147000AF900C948B0EDF91CF911F910F91FF9045
:10148000EF90DF90CF90BF90AF9008950F939C01A5
:10149000CB01233F4CE5340731F188F4283DFCE5CE
:1014A0003F07D9F0293D4CE5340779F1273D3C450C
:1014B000A9F506E221EE41EE67ED7CE52BC0253F64
:1014C000FCE53F07E1F0A8F0263F3C4539F507E28F
:1014D00025EE46EE66EF7CE51DC007E225EE45EE03
:1014E00068ED7CE517C006E221EE40EE63EF7CE597
:1014F00011C007E225EE44EE64EF7CE50BC006E286
:1015000021EE42EE65EF7CE505C008E221E045EE04
:1015100069ED7CE50E94AE0980E008C0FC01828193
:10152000882319F01092930101C081E00F91089572
:10153000CF93DF93EC01FB018281882309F41FC163
:10154000C230FCE5DF0708F41BC1C6319CE5D907B2
:1015500038F09E012A5F3C452930310508F010C162
:101560000E94FD1790938A0280938902C031ECE5B6
:10157000DE0709F4C3C008F041C0C8308CE5D807C5
:1015800009F49AC0F0F4C430ECE5DE0709F487C032
:1015900068F4C2308CE5D80709F477C0C330DC4565
:1015A00009F0E3C080918902826076C0C630ECE524
:1015B000DE0709F46EC008F07BC080918902886064
:1015C0006BC0CC308CE5D80709F485C068F4CA300C
:1015D000ECE5DE0709F474C008F079C00E94C60E7D
:1015E00080918902806858C0CE308CE5D80709F414
:1015F00076C008F07FC0809189028BC0CB3FECE5BC
:10160000DE0709F44FC018F5C3318CE5D80709F49B
:101610007DC078F4C131ECE5DE0709F473C0C23156
:10162000DC4509F0A2C00E94C60E809189028F7726
:1016300033C0C5318CE5D80709F472C008F486C000
:10164000CA3FDC4509F091C080918A023EC0CF3F7D
:10165000FCE5DF0709F45FC058F4CD3F9CE5D907EE
:1016600009F444C008F43FC080918A0282602DC012
:10167000C130FDE5DF0709F475C008F45DC0C23074
:10168000DD4509F072C080E06EC080918902816002
:1016900003C08091890280618093890266C0809135
:1016A000890211C080918A02826080938A025DC0A3
:1016B000809189028062F0CF809189028064ECCFB2
:1016C0008091890288608460E7CF8160EECF80914D
:1016D00089028E7FE1CF809189028D7FDDCF80915D
:1016E0008902877FD9CF80918A0218C080918A02AF
:1016F0008D7FDBCF809189028F7ECECF8091890252
:101700008F7DCACF809189028F7BC6CF809189025D
:10171000877F8B7FC1CF80918A028D7F8E7FC5CFDF
:101720008091890282FB222720F991E0922790FB89
:1017300082F990FB83F9B0CF80918A02982F90951F
:1017400091708E7F892B90FB81F9AFCF0E94C60EDE
:101750008091890287FB222720F991E0922790FB54
:1017600087F99ACF81E00E948C188091890290912C
:101770008A020E940E180E94C60E80E001C081E01D
:10178000DF91CF910895CF93DF9386319C4541F54A
:10179000EB010E942F17982F8A8120910001309130
:1017A0000101882379F09A7A81E009F480E080933E
:1017B0009401911102C069E201C065E3C9010E9470
:1017C00027190AC080919401811102C069E201C009
:1017D00065E3C9010E9432190E947D1780E001C0B3
:1017E00081E0DF91CF91089590939A0180939901C0
:1017F0000895E0919901F0919A01309721F00190BC
:10180000F081E02D099480E00895E0919901F09134
:101810009A01309799F020911401222359F02091D8
:10182000890227FF07C0DC012C9111962C93119798
:1018300025E02C930280F381E02D09940895E09136
:101840009901F0919A01309739F022E0DC012C9354
:101850000480F581E02D099408952091970130913D
:1018600098012817390771F0909398018093970198
:10187000E0919901F0919A01309721F00680F7816B
:10188000E02D099408952091950130919601281733
:10189000390771F09093960180939501E091990139
:1018A000F0919A01309721F00084F185E02D0994A0
:1018B000089585B7806885BF85B7806885BF08951E
:1018C00008950C94600C0C94610C0C94600C0C94B6
:1018D000600C0E94590C0E94650C0C94630C81E012
:1018E00008950C946F0C0E94D0190E9494080E94D5
:1018F0008A1A0C94670C7F928F929F92AF92BF923C
:10190000CF92DF92EF92FF920F931F93CF93DF93CB
:10191000CDB7DEB72A970FB6F894DEBF0FBECDBFA6
:101920000E94E6080E94710C811111C08FEF89831B
:101930008A831B820E94D9198160782F9D838C83B2
:1019400049815A816B818D810E942B0D4FC04CE9DA
:10195000A42E41E0B42E00E010E0702E802F0E94F3
:101960007F086C01F501819091905F01882699268E
:101970008114910431F40F5F1F4F0530110569F791
:10198000D5CF8091400281FD0E94880880E0EE243E
:10199000E394F12C94012E213F21232B09F18E8316
:1019A0007F82CE20DF2081E0CD2809F480E0888787
:1019B0000E94D9198160782F9A8789874E815F812B
:1019C00068858A850E942B0D000F111FF801E456CF
:1019D000FE4F80819181E826F926F182E08206C0DF
:1019E0008F5FEE0CFF1C8F30A9F6C5CF0E945B1DE8
:1019F0000E94F90B90919B018917C9F00E94F90B85
:101A000080939B012A960FB6F894DEBF0FBECDBF20
:101A1000DF91CF911F910F91FF90EF90DF90CF90CA
:101A2000BF90AF909F908F907F900C941B062A964A
:101A30000FB6F894DEBF0FBECDBFDF91CF911F91DF
:101A40000F91FF90EF90DF90CF90BF90AF909F905D
:101A50008F907F900895CF93DF93CDB7DEB72B970C
:101A60000FB6F894DEBF0FBECDBF942F4F83252F46
:101A7000588769877A878B874A855B85452B31F044
:101A80002F3F31F481E09F3F19F403C081E001C092
:101A900080E080FD09C08091A7019091A801019686
:101AA0009093A8018093A701DE01119686E0FD01C5
:101AB00011928A95E9F785E0FE01379601900D9223
:101AC0008A95E1F749815A816B817C818D819E8164
:101AD0000E941C142B960FB6F894DEBF0FBECDBF2C
:101AE000DF91CF910895FC01808191810E94F016D1
:101AF0000895CF93882309F4A4C0C82F8238C1F475
:101B00000E94F90B81FD9DC069E3809100019091D5
:101B100001010E9427190E947D172FEF81EE94E0AA
:101B2000215080409040E1F700C0000069E319C0F7
:101B3000833801F50E94F90B80FD83C063E5809135
:101B40000001909101010E9427190E947D172FEF3B
:101B500081EE94E0215080409040E1F700C0000009
:101B600063E580910001909101010E943219CF91AB
:101B70000C947D178438C1F40E94F90B82FD61C07A
:101B800067E480910001909101010E9427190E9451
:101B90007D172FEF81EE94E0215080409040E1F7D7
:101BA00000C0000067E4DDCF8CEF8C0F813AD0F4E9
:101BB0006C2F80910001909101010E94A718882349
:101BC00049F06C2F80910001909101010E9432191F
:101BD0000E947D176C2F80910001909101010E945D
:101BE0002719C5CF80E28C0F883048F4C77081E098
:101BF00001C0880FCA95EAF70E943217B8CFEBE50B
:101C0000EC0FE33040F4F0E0E857FE4F808190E0C5
:101C1000CF910C942D0CE8E5EC0FE73150F4F0E097
:101C2000EE0FFF1FE65AFE4F80819181CF910C94F9
:101C3000430CC03F30F08C2F0E94501CCF910C946D
:101C40003D1DCF910895882309F464C0823879F44A
:101C50000E94F90B81FF5EC069E3809100019091C1
:101C600001010E9427190E947D1769E310C0833883
:101C7000B1F40E94F90B80FF4DC063E58091000133
:101C8000909101010E9427190E947D1763E58091C0
:101C90000001909101010E9432190C947D17843843
:101CA00079F40E94F90B82FF35C067E4809100014E
:101CB000909101010E9427190E947D1767E4E7CFE8
:101CC0009CEF980F913A10F4682FE1CF90E2980FB3
:101CD000983050F4877091E001C0990F8A95EAF727
:101CE000892F0E943817D9CF9BE5980F933020F4A5
:101CF00080E090E00C942D0C98E5980F973120F43B
:101D000080E090E00C94430C803F20F00E94B81CCF
:101D10000C943D1D0895CF93C82F0E94790DC933AF
:101D200049F42FEF87EE93E0215080409040E1F797
:101D300000C000008C2FCF910C94230E882321F03B
:101D40000E9432170C947D170895882321F00E9479
:101D500038170C947D1708950E944F170E945F1743
:101D60000E947D170E946E1E0E943D1D80E090E043
:101D70000E942D0C80E090E00C94430C80910001B7
:101D8000909101010E943D190C94AC0E0E943F17E6
:101D90000C94BE0EE92FE295EF704E2F50E0FA0141
:101DA0003297EE30F105B0F4EA59FF4F0C945E25FE
:101DB000803F91F018F4883E68F40EC0843F51F4DF
:101DC0000BC0883E48F0813F29F406C093FB88276A
:101DD00080F9089580E0089581E008950E94F0164A
:101DE0000E94CA0E08958F929F92AF92BF92CF9297
:101DF000DF92EF92FF920F931F93CF93DF936C01CB
:101E0000EB01FC01058102950F70128111110E94F6
:101E10004F170E942817882399F0112389F08D2FDE
:101E2000807F803421F080E28C0F883048F082E09F
:101E30000E94C7170E94281791E0E82EE92601C0EA
:101E4000E12CBD2EB2942FE0B2228B2D90E0FC014C
:101E5000EC58FF4F0C945E259D2F9F708D2F807F37
:101E6000F92E19F0F29490EFF922112399F0FF2046
:101E700009F497C180E28C0F883010F0C11104C0C2
:101E80008F2D0E94321703C08F2D0E9442170E948F
:101E90007D1787C18C2F0E94230EFF2009F4A6C155
:101EA00080E28C0F883010F0C11104C08F2D0E9489
:101EB000381703C08F2D0E9448170E947D1796C1C6
:101EC0009D2F9F708D2F807FF92E803219F0F29414
:101ED00080EFF822CC2319F0C130C9F022C01123C1
:101EE00071F0002341F0013031F40E9462178F2914
:101EF0000E946A177BC10E9462178F291DC00023B0
:101F000019F0013009F472C10E94731725C0112322
:101F100021F0063008F06AC10EC0053008F066C135
:101F20001BC0112361F0002331F0F601858180FF91
:101F300038C18F7085838F2D0E949E0E57C100235C
:101F400059F0C93309F03EC1FFEF27EE83E0F150AD
:101F500020408040E1F734C18F2D0E94A50E46C17C
:101F60008D2F86958695837019F0813059F03EC18A
:101F7000112319F0CE01937002C080E090E00E941E
:101F80002D0C3CC1112319F0CE01937002C080E0EA
:101F900090E00E94430C32C18C2F112319F00E9453
:101FA000501C02C00E94B81C0E943D1D27C18D2FED
:101FB000837009F048C011111DC12C2F2295269560
:101FC0002770220F220F6C2F6F70862F90E0A0E0F9
:101FD000B0E0022E04C0880F991FAA1FBB1F0A94ED
:101FE000D2F7C4FF10C04FE050E060E070E004C0E2
:101FF000440F551F661F771F2A95D2F740955095BD
:102000006095709503C040E050E0BA012D2F2695F1
:10201000269523704A015B01882A992AAA2ABB2A9D
:10202000C501B401223049F058F4213019F00E9462
:102030006D15E0C00E945B15DDC00E947F15DAC0FF
:102040000E945915D7C0112319F08D2F817001C03E
:102050008695882309F4CEC02C2F229526952770CB
:10206000220F220F6C2F6F70862F90E0A0E0B0E05F
:10207000022E04C0880F991FAA1FBB1F0A94D2F713
:10208000C4FF10C04FE050E060E070E004C0440FB7
:10209000551F661F771F2A95D2F74095509560957A
:1020A000709503C040E050E0BA012D2F269526958B
:1020B00023704A015B01882A992AAA2ABB2AC501F2
:1020C000B401223049F058F4213019F00E94321640
:1020D00091C00E9420168EC00E9444168BC00E94A0
:1020E000931588C02D2F2F70F22E112339F0822FD7
:1020F0000E94B9158C2F0E949E0E7CC08C2F0E94CE
:10210000A50E8F2D0E94DA1575C0C23F01F128F48B
:10211000C03F41F0C13FA1F040C0C33FF9F0C43F10
:1021200039F13BC0112341F0053008F05FC08D2F1D
:102130008F710E94FF155AC0063008F057C0F7CFC4
:10214000112339F08D2F8F710E94B9154FC01123C3
:10215000C9F38D2F8F710E94DA1548C0112329F021
:102160008D2F8F710E94A41541C00E949F153EC003
:10217000112351F08D2F8F71F82E0E94B91563E055
:102180008F2D0E94B21732C081E00E94C717023023
:1021900068F182E00E94C71729C0112331F00023A3
:1021A00089F28C2F0E94790D21C0002391F2C9334E
:1021B00049F49FEFE7EEF3E09150E040F040E1F7A3
:1021C00000C000008C2F0E94230E10C04D2F4F70B6
:1021D0006C2FC6010E9471060E94CA140FC04D2FB9
:1021E0004F706C2FC6010E94740608C088EF8B0DDB
:1021F000843020F40E94F90B0E941B06CE010E943D
:10220000CA0E811105C01092A8011092A70111C039
:10221000112319F00111F7CF0CC00111F4CF8091F7
:10222000A7019091A801029771F78C2F0E948B0E45
:10223000EACFEE20E9F00E94241780FD19C0F601D4
:1022400012820E941E170E94B915C6010E945D11DC
:102250000E941E17DF91CF911F910F91FF90EF9079
:10226000DF90CF90BF90AF909F908F900C94DA1535
:10227000DF91CF911F910F91FF90EF90DF90CF9062
:10228000BF90AF909F908F9008950F931F93CF931F
:10229000DF93EC01688179818A810E94FB168C01B1
:1022A0000E9456160E944715B801CE010E94F30EF7
:1022B000DF91CF911F910F910895CF93DF93EC01A0
:1022C000988189812B813C81232B31F08F3F31F420
:1022D00081E09F3F19F403C081E001C080E080FDF0
:1022E00019C0CE010E94340681110CC00E9428172B
:1022F000882381F08A81882369F082E0DF91CF9181
:102300000C94C717CE010E944511CE01DF91CF91E9
:102310000C94ED05DF91CF910895CF93DF9300D01A
:1023200000D01F92CDB7DEB70F900F900F900F9097
:102330000F90DF91CF910895CF93DF9300D000D01D
:1023400000D0CDB7DEB726960FB6F894DEBF0FBE2D
:10235000CDBFDF91CF9108951F93CF93DF93C091AD
:10236000A90116E08091AA01C81799F0D0E01C9F3E
:10237000F0011D9FF00D1124E555FE4F4081518164
:1023800062817381848195810E949C112196C7701E
:10239000E9CFDF91CF911F9108954091DB015091DA
:1023A000DC016091DD017091DE018091DF0190918F
:1023B000E0010C949C110F931F93CF93DF938091B6
:1023C000E00182958F7009F05DC08091DD01882366
:1023D00009F458C08091A9011091AA016091DB0114
:1023E0007091DC01C091DE01D091DF0191E06F3F7F
:1023F00009F090E0292F06E0811709F443C02097E7
:1024000021F07F3F21F030E003C031E001C0322FE6
:1024100090E030FD34C0089FF001099FF00D1124B9
:10242000DF01A555BE4F11963C911197371327C078
:102430003C91361324C012963C91129731111FC063
:1024400013964D915C9114974C1B5D0B483C5105C4
:10245000B0F48091E0018F7080618093E001E055DD
:10246000FE4F80818F70806180838BED91E00E94B0
:102470005D11DF91CF911F910F910C94AC110196DA
:102480008770BACFDF91CF911F910F9108959F92DE
:10249000AF92BF92CF92DF92EF92FF920F931F9372
:1024A000CF93DF93CDB7DEB761970FB6F894DEBF59
:1024B0000FBECDBF8C0185E0F801DE011D960190B5
:1024C0000D928A95E1F7F80140815181E280909167
:1024D000DB016091DC012091DE013091DF012115EB
:1024E000310531F06F3F31F481E09F3F19F403C0B3
:1024F00081E001C080E0F82FF1709F2E80FD46C181
:10250000F801A380B4808BEDC82E81E0D82EF09026
:10251000DD01F501E21BF30BFF2009F4DFC0809120
:10252000E001E83CF10508F09BC0282F207F09F06E
:1025300052C0561313C0491311C0FE2CE1100EC037
:102540008F7080618093E0010E94CD11C6010E94CE
:102550005D118091E001F801858358C1AB2831F00D
:102560005F3F31F481E04F3F19F403C081E001C0C7
:1025700080E080FD03C081E08E2502C080E090E015
:10258000F82FF170FF2E80FF1CC08091A9012091CF
:10259000AA0136E0821709F417C190E0389FF001D4
:1025A000399FF00D1124E555FE4F6181561306C089
:1025B0006081461303C06281E61203C001968770F2
:1025C000E9CFFE2CEE2009F421C18091E001816069
:1025D0008093E0015AC0561306C0491304C0E110AD
:1025E00002C0F8019FC04D875E878D859E850E9441
:1025F000EE0E882379F1EE2069F12091E001822F1F
:1026000082958F7090E0029774F08091DB01909139
:10261000DC0198878F831986BB86AA862C87CE011A
:1026200007960E945D1186E0F801ABEDB1E00190E4
:102630000D928A95E1F70E94DB110E94CD110DC029
:10264000561729F14D875E878D859E850E94EE0E77
:1026500081112CC0C8010E945D11FF24F394D6C0E3
:10266000282F207F69F77A2DB98AA88A6E2D89894B
:102670000E948D118BED91E00E945D1186E0F601C4
:1026800011928A95E9F70E94CD11F12CBFC0491330
:10269000D9CFE110D7CFF8018583C8010E945D1121
:1026A00086E0F60111928A95E9F7B0C0EE2091F22A
:1026B0002091E001822F82958F7090E002970CF4B8
:1026C000B2CF8091DB019091DC019A8389831B82D8
:1026D000BD82AC822E83CE010196A3CFE83CF105EA
:1026E00008F047C0FE2CEE2009F4B4CF561330C0DA
:1026F00049132EC02091E00120FD21C0822F829538
:102700008F70482F50E041155105C9F0F80125831D
:102710004F30510541F08F5F982F9295907F822F17
:102720008F70892B8583C8010E945D1186E0F801B6
:10273000ABEDB1E001900D928A95E1F742C086E0E1
:10274000F801ABEDB1E001900D928A95E1F75EC022
:102750004D875E878D859E850E94EE0E811163CF29
:102760008091E00181608093E001C8010E945D11C9
:102770004DC07A2DB98AA88A6E2D89890E948D1143
:1027800086E0F60111928A95E9F71BC0EE2009F464
:1027900061CF4D875E878D859E850E94EE0EF82E57
:1027A000882309F457CF86E0F801ABEDB1E0019042
:1027B0000D928A95E1F78BED91E00E94730D0E94D6
:1027C000DB110E94CD1122C04D875E878D859E85CD
:1027D0000E94F016292F22952F70223028F49F7026
:1027E00039F0811105C00BC0243028F49F7049F4E2
:1027F000805E883020F0C8010E945D119F2CF92C6A
:1028000005C0F8019581907F99F7F9CF8F2D6196DA
:102810000FB6F894DEBF0FBECDBFDF91CF911F91F1
:102820000F91FF90EF90DF90CF90BF90AF909F906F
:10283000089588EC90E008951F93CF93DF93CDB770
:10284000DEB72C970FB6F894DEBF0FBECDBF4F8317
:10285000588769877A878B879C87CE0107960E9465
:1028600047128823D1F09F8188852A853B85232BB9
:1028700031F08F3F31F481E09F3F19F403C081E0D4
:1028800001C080E080FD47C04F81588569857A8509
:102890008B859C850E949C113EC086E0FE01379688
:1028A000DE01119601900D928A95E1F7FF81E8858E
:1028B0006A857B856115710531F0EF3F31F481E068
:1028C000FF3F19F403C081E001C080E080FD23C018
:1028D0002091AA0130E0C9010196877099274091A3
:1028E000A90150E084179507F1F1F983EA837D830C
:1028F0006C8396E0929FD001939FB00D1124A55553
:10290000BE4FFE01319601900D929A95E1F78093AA
:10291000AA010E94AC1116E08091A9019091AA0130
:10292000891771F1189FC001112485559E4F0E948F
:102930004712882329F1E091A9011E9FF00111247B
:10294000E555FE4F4081518162817381848195817B
:102950000E949C118091A90190E0019687709927AF
:102960008093A901D9CF0E94C60E1092AA0110929D
:10297000A901EBEDF1E086E0DF011D928A95E9F710
:102980002C960FB6F894DEBF0FBECDBFDF91CF916E
:102990001F910895EF92FF920F931F93CF93DF93B0
:1029A0008C01892B09F46CC0F12CEE24E394E8012E
:1029B0002196F8018491843740F4843008F051C0A6
:1029C000813081F0823019F15BC0853709F444C051
:1029D000A8F19CE7980F903708F052C08F770E94BB
:1029E000230E41C00E5F1F4FFE01849190E2980FAD
:1029F000983050F48770FE2D01C0FF0F8A95EAF7DA
:102A00008F2F0E94521714C00E94790D2DC00E5FA7
:102A10001F4FFE01849190E2980F983060F4877008
:102A2000FE2D01C0FF0F8A95EAF78F2F0E945817DD
:102A30000E947D1719C00E94230E16C00E5F1F4F03
:102A4000FE01C491CC2381F08FE99FE00197F1F75B
:102A500000C00000C150F6CF0E5F1F4FFE01F49082
:102A600003C00E94790D8E018F2D882309F49FCF1A
:102A7000EFE9FFE03197F1F700C000008150F5CF9A
:102A8000DF91CF911F910F91FF90EF9008950895DE
:102A900008950C9448150C9449150E944B156093A9
:102AA0001702709318028093190290931A020C94E3
:102AB000AC0E0C944D150F931F93009117021091BB
:102AC00018022091190230911A02602B712B822B6F
:102AD000932B1F910F910C944D150F931F93009101
:102AE0001702109118022091190230911A026023E6
:102AF0007123822393231F910F910C944D150F93F3
:102B00001F93009117021091180220911902309121
:102B10001A0260277127822793271F910F910C9427
:102B20004D150C9448150E949115609313027093F3
:102B3000140280931502909316020C94AC0E60E080
:102B400070E0CB010C9493150F931F9341E050E07C
:102B500060E070E08A019B0104C0000F111F221F7A
:102B6000331F8A95D2F7C901B8011F910F910C94B8
:102B700093150F931F9341E050E060E070E004C0B4
:102B8000440F551F661F771F8A95D2F78091130255
:102B900090911402A0911502B09116028A019B0136
:102BA000082B192B2A2B3B2BC901B8011F910F9120
:102BB0000C9493150F931F9341E050E060E070E098
:102BC00004C0440F551F661F771F8A95D2F74095A2
:102BD0005095609570958091130290911402A09188
:102BE0001502B09116028A019B01082319232A239A
:102BF0003B23C901B8011F910F910C9493150F93BA
:102C00001F9341E050E060E070E004C0440F551FA6
:102C1000661F771F8A95D2F7809113029091140254
:102C2000A0911502B09116028A019B01082719276D
:102C30002A273B27C901B8011F910F910C949315C6
:102C40000F931F930091130210911402209115020B
:102C500030911602602B712B822B932B1F910F91B9
:102C60000C9493150F931F9300911302109114026B
:102C70002091150230911602602371238223932341
:102C80001F910F910C9493150F931F9300911302B2
:102C900010911402209115023091160260277127BD
:102CA000822793271F910F910C94931508952FE07D
:102CB000929F800D1124E82FE695E695E6958770A2
:102CC00051E001C0550F8A95EAF785E0E89FF001D1
:102CD0001124EF51FE4F20E030E070E04081CB0145
:102CE000022E02C0969587950A94E2F7817081952D
:102CF00084278523842781932F5F3F4F253031051B
:102D000069F708952FE0929F800D1124682F669532
:102D100066956695982F977085E0689FB00111249D
:102D200040E050E080E0FB01E40FF51FEF51FE4F63
:102D3000208130E0092E02C0369527950A94E2F7EB
:102D400021703327042E01C0220F0A94EAF7822B48
:102D50004F5F5F4F4530510531F70895BF92CF92D5
:102D6000DF92EF92FF920F931F93CF93DF938C012B
:102D7000C0901302D0901402E0901502F090160259
:102D80008091170290911802A0911902B0911A0235
:102D9000C82AD92AEA2AFB2ACFE1D0E0D701C60106
:102DA0000C2E04C0B695A795979587950A94D2F7EF
:102DB00080FD04C0219790F7B12C07C0BC2EB8014C
:102DC0008C2F0E9490060197A9F38B2DDF91CF9154
:102DD0001F910F91FF90EF90DF90CF90BF900895DB
:102DE000CF93DF93EC010E94AE16BE010E949006C5
:102DF000DF91CF9108951F93CF93DF93EB019091D3
:102E0000A601992321F0CB010E94F01613C088235C
:102E100049F0CB010E94AE16182F682FCE010E94F8
:102E2000571604C0CB010E948216182FBE01812FB5
:102E30000E949006DF91CF911F91089580911B020F
:102E4000859585958595089580911B0287700895D5
:102E500090911B02977081E009F480E008958091C1
:102E60003F02089590913F02892B80933F0208957D
:102E7000809590913F02892380933F02089510929C
:102E80003F02089590913E02892B80933E0208955F
:102E9000809590913E02892380933E02089510927E
:102EA0003E02089590913D02892B80933D02089542
:102EB000809590913D02892380933D020895109260
:102EC0003D02089580911C02089508950C946517A1
:102ED0000C94661790911C02981721F080931C02A5
:102EE0000C946817089580911C02882329F0109291
:102EF0001C0280E00C9468170895E0910001F091A5
:102F0000010180913F028083E0910001F091010175
:102F1000908180913E02892B8083E0910001F091A5
:102F20000101908180913D02892B808380911C0258
:102F3000882381F0E0910001F09101019081892BBB
:102F4000808380910001909101010E94911881116C
:102F50000E94731780910001909101010C94050C5F
:102F60000C94651798E0899F90011124262B2093DB
:102F70001B020E94B91580911B0285958595859548
:102F80000C94B01710921B0280E00C94B0172091A3
:102F90001B028095822380931B02982F977079F4EF
:102FA00030E0482F082E000C550B2417350739F058
:102FB0008595859585950E94DA150C94C21708951C
:102FC00080E090E00E94802521E08C3E9E4F09F039
:102FD00020E0822F089582E090E00C947825682FFD
:102FE00082E090E00C94862583E090E00C947825B4
:102FF000682F83E090E00C948625CF9384E090E0E6
:103000000E947825C82F81E290E00E9478252C2F1D
:1030100030E0A901582BCA01CF910895CF93C92F51
:10302000682F84E090E00E9486256C2F81E290E07A
:10303000CF910C948625AB01BC018FE090E00C94FD
:103040009825AB01BC0183E190E00C94982560E0E9
:1030500070E0CB010C94211860E070E0CB010E947D
:103060001B180C9427186CEE7EEF80E090E00E9415
:10307000A42560E082E090E00E94862560E083E085
:1030800090E00E948625109217021092180210926A
:10309000190210921A0260E084E090E00E948625F6
:1030A00060E081E290E00E94862560E085E090E0AB
:1030B0000E94862560E086E090E00E9486256FEF02
:1030C00087E090E00E94862540E050E0BA0188E069
:1030D00090E00E94982560E08DE090E00E948625B7
:1030E00040E050E0BA0188E190E00E94982560E05D
:1030F00087E190E00E94862540E050E0BA018CE133
:1031000090E00E94982560E080E290E00E94862591
:103110000C942C180C943318682F8EE090E00C94CB
:103120008625FC01329680911401882331F080912C
:10313000890287FF02C09EE101C096E080E09150C5
:1031400028F021912223D9F38F5FF9CF08956623C8
:1031500051F1209114012223E9F02091890227FFE7
:1031600019C0462F4695469546954E31E0F4677056
:1031700021E030E002C0220F331F6A95E2F7FC0124
:10318000E40FF11D828190E02823392381E0232B75
:1031900069F409C0FC01329608962191621729F062
:1031A000E817F907D1F780E0089581E008959C01C0
:1031B000FC0132969FEF80E04191461789F09F3FD6
:1031C00019F4411101C0982F8F5F8630A9F79F3FF6
:1031D00039F0F901E90FF11D97FDFA956283089521
:1031E00008959C012A5F3F4FFC014281461301C0B4
:1031F0001282019682179307B9F70895262F269514
:10320000269526952E3168F4FC01E20FF11D6770BA
:1032100021E030E001C0220F6A95EAF78281282B75
:1032200022830895262F2695269526952E3170F413
:10323000FC01E20FF11D677021E030E001C0220FB8
:103240006A95EAF7209582812823228308952091A8
:103250001401222329F02091890227FD0C94FE18E5
:103260000C94D71820911401222329F0209189026F
:1032700027FD0C9412190C94F11820911401FC01F3
:103280003296222331F08091890287FF02C08EE1BD
:1032900001C086E0DF011D928A95E9F7089508953F
:1032A0000C944F190C944F19CF930E9452190E94FD
:1032B000E6080E945019C0E08C2F0E947F08892BDD
:1032C00029F4CF5FC530C1F780E001C081E0CF9124
:1032D00008950C944F190C9469190E946B198091F0
:1032E0008F02843049F11092410220E488E190E09D
:1032F0000FB6F894A895809360000FBE20936000ED
:1033000080E00E941B060E946B1983B7817F846056
:1033100083BF83B7816083BF7894889583B78E7F9E
:1033200083BF0FB6F894A895809160008861809360
:103330006000109260000FBE08950C944F190E9417
:10334000C60E0E94F90B0E941B060C949D191F9239
:103350000F920FB60F9211248F939F93AF93BF9349
:1033600080914102811113C0809185029091860263
:10337000A0918702B09188024196A11DB11D809352
:10338000850290938602A0938702B0938802BF9132
:10339000AF919F918F910F900FBE0F901F90189536
:1033A00082E084BD93E095BD9AEF97BD80936E0057
:1033B00008952FB7F8948091850290918602A0918C
:1033C0008702B09188022FBF08959C014FB7F894EF
:1033D0008091850290918602A0918702B091880227
:1033E0004FBF821B930B089578941F920F920FB6D4
:1033F0000F9211248F939F93AF93BF938091850277
:1034000090918602A0918702B09188020196A11D39
:10341000B11D8093850290938602A0938702B0939A
:103420008802BF91AF919F918F910F900FBE0F9027
:103430001F90189581E08093E00080E28093D8008F
:103440001092C9008FE19EE40197F1F700C00000DF
:1034500087E090EBDC018093980290939902A0930F
:103460009A02B0939B029CE088E10FB6F894A8956D
:10347000809360000FBE90936000FFCFAF92BF9229
:10348000CF92DF92EF92FF920F931F93CF93C0E002
:10349000CC24C394D12CE82EF12C8C2F0E947F08D1
:1034A0005C0100E010E0C601002E02C0880F991FE9
:1034B0000A94E2F78A219B21892B31F40F5F1F4F79
:1034C0000F30110581F70AC0602F7C2F80E00E9429
:1034D0007506E816F90691F781E004C0CF5FC530A4
:1034E000E1F680E0CF911F910F91FF90EF90DF9078
:1034F000CF90BF90AF900895CF93C82F8CE20E94D9
:103500003E1A882321F08C2FCF910C943E1A80E034
:10351000CF910895CF930E94E017811102C00E94BD
:103520008A18C5E6C15049F00E94E6088FE39CE97D
:103530000197F1F700C00000F5CF89E20E947C1AE4
:1035400081112AC18AE20E947C1A81110E948A1884
:1035500085E00E947C1A81110E941A1A0E94EB17C2
:103560008093400287E00E947C1A8823A9F18BE1B6
:103570000E947C1A882351F08091400281FB22270F
:1035800020F991E0922790FB81F90EC08EE00E9415
:103590007C1A882361F08091400282FB222720F967
:1035A00091E0922790FB82F98093400215C080E160
:1035B0000E947C1A90914002882341F093FB2227BD
:1035C00020F981E0822780FB93F904C0892F809540
:1035D00080FB90F990934002809140020E94EF1787
:1035E0000E94FD1790938A028093890280EE0E94C8
:1035F0007C1A882341F080918902982F909590FB46
:1036000080F98093890289E30E947C1A882359F00B
:103610008091890281FB222720F991E0922790FB7B
:1036200081F98093890282EE0E947C1A882359F0E6
:103630008091890282FB222720F991E0922790FB5A
:1036400082F98093890286EE0E947C1A882359F0C1
:103650008091890283FB222720F991E0922790FB39
:1036600083F98093890283EE0E947C1A882359F0A3
:103670008091890284FB222720F991E0922790FB18
:1036800084F98093890285E30E947C1A882359F08B
:103690008091890285FB222720F991E0922790FBF7
:1036A00085F98093890281E30E947C1A882359F06E
:1036B0008091890286FB222720F991E0922790FBD6
:1036C00086F98093890281E10E947C1A882359F04F
:1036D0008091890287FB222720F991E0922790FBB5
:1036E00087F9809389028091890290918A020E94D1
:1036F0000E1887E20E947C1AC82F8EE10E947C1A65
:103700008111C2608FE10E947C1A8111C46080E245
:103710000E947C1A8111C86081E20E947C1A81118A
:10372000C06182E20E947C1A8111C06283E20E9421
:103730007C1A8111C06484E20E947C1A882311F0F3
:10374000C06802C0CC2329F08C2F0E94F8176C2F80
:1037500003C00E94F417682F70E080E090E00E94A0
:103760005915609113027091140280911502909185
:1037700016020E9491158FE00E947C1A882319F08E
:1037800081E00E948C1885E10E947C1A882321F038
:1037900080E0CF910C948C18CF91089580914802CD
:1037A00080FF0BC06091070185E0689FB001112484
:1037B00075956795759567952BC081FF09C06091D8
:1037C000070185E0689FB00111247595679520C0B9
:1037D00082FF07C06091070185E0689FB001112456
:1037E00017C0909147029923D1F060910601961776
:1037F00088F72091070185E0289F90011124929F6E
:10380000A001939F500D112470E0CA010E944A2527
:103810006038710540F46115710519F406C065E062
:1038200070E0862F08958FE7089581E008958091D4
:10383000480280FF08C06091030170E075956795AC
:103840007595679521C081FF06C06091030170E006
:103850007595679519C082FF04C06091030170E0FF
:1038600010C090914602992399F060910201961739
:10387000A0F780910301899FC001112470E00E948C
:103880004A256038710540F46115710519F406C0C8
:1038900061E070E0862F08958FE7089581E0089534
:1038A000803F21F40E94CE1B819504C0813F29F402
:1038B0000E94CE1B80934C020895823F21F40E9407
:1038C000CE1B819504C0833F29F40E94CE1B8093B8
:1038D0004B020895893F19F40E94171C05C08A3FC6
:1038E00031F40E94171C819580934D0208958B3FFF
:1038F00021F40E94171C819504C08C3F29F40E947A
:10390000171C80934E020895843F21F480914A024F
:10391000816017C0853F21F480914A02826011C006
:10392000863F21F480914A0284600BC0873F21F4D6
:1039300080914A02886005C0883F31F480914A0234
:10394000806180934A0208958D3F21F4809148025E
:1039500081600BC08E3F21F480914802826005C0D7
:103960008F3F29F480914802846080934802089533
:10397000803F39F480914C0287FF6AC010924C025C
:1039800067C0813F29F480914C021816BCF360C0D7
:1039900090914B02823F29F497FF5AC010924B023C
:1039A00057C0833F19F41916CCF352C090914D02C1
:1039B000893F31F419160CF04BC010924D0248C0EB
:1039C0008A3F19F497FF44C0F8CF8B3F39F48091B8
:1039D0004E0287FF3DC010924E023AC08C3F29F440
:1039E00080914E021816BCF333C0843F21F48091BD
:1039F0004A028E7F17C0853F21F480914A028D7F55
:103A000011C0863F21F480914A028B7F0BC0873F13
:103A100021F480914A02877F05C0883F31F480916C
:103A20004A028F7E80934A0213C08D3F21F4809119
:103A300048028E7F0BC08E3F21F4809148028D7F1B
:103A400005C08F3F29F4809148028B7F8093480204
:103A500080914B02811106C080914C02811102C0FD
:103A60001092470280914D02811106C080914E0252
:103A7000811102C01092460208950E94D919209126
:103A80004B02211104C020914C02222321F090937B
:103A900045028093440220914D02211104C02091DF
:103AA0004E02222321F0909343028093420289E444
:103AB00092E00C941F0CEF92FF920F931F93CF9301
:103AC000DF9300D000D000D0CDB7DEB786E0E9E4C8
:103AD000F2E0DE01119601900D928A95E1F7E090F7
:103AE0004B02F0904C0200914D0210914E02109248
:103AF0004B0210924C0210924D0210924E02E110B5
:103B000003C0FF2009F45DC08091440290914502FA
:103B10000E94E519AC0190914702992339F0209158
:103B2000080130E02417350758F04BC020910901F7
:103B30008AE0289F900111242417350718F041C00E
:103B40009F3F19F09F5F90934702EE2061F00E9423
:103B5000CE1B1E1414F09FEF01C091E0989F902D92
:103B6000112490934B02FF2061F00E94CE1B1F1482
:103B700014F09FEF01C091E0989F902D1124909335
:103B80004C0230914B023323E1F020914C0222236E
:103B9000C1F045EB3403C0011124992319F090932F
:103BA0004B0203C081E080934B0235EB2303C0013D
:103BB0001124992319F090934C0203C081E0809363
:103BC0004C02011103C0112309F45DC0809142022F
:103BD000909143020E94E519AC019091460299230D
:103BE00039F02091040130E02417350758F04BC01C
:103BF000209105018AE0289F9001112424173507A0
:103C000018F041C09F3F19F09F5F90934602002338
:103C100061F00E94171C101614F09FEF01C091E094
:103C2000989F902D112490934D02112361F00E94D2
:103C3000171C111614F09FEF01C091E0989F902D72
:103C4000112490934E0230914D023323E1F02091E4
:103C50004E022223C1F045EB3403C0011124992305
:103C600019F090934D0203C081E080934D0235EB33
:103C70002303C0011124992319F090934E0203C02D
:103C800081E080934E0280914B0281110BC08091A4
:103C90004C02811107C080914D02811103C08091B7
:103CA0004E0281110E943D1DEB82FC820D831E831A
:103CB00086E0FE013196A9E4B2E001900D928A956A
:103CC000E1F726960FB6F894DEBF0FBECDBFDF91A9
:103CD000CF911F910F91FF90EF900895E9E4F2E0EA
:103CE00086E0DF011D928A95E9F710924702109253
:103CF000460210924802089580916F020895CF9372
:103D0000DF9300D01F92CDB7DEB790918F02943031
:103D100019F589837B836A8382E08093E9008FEFC2
:103D20009091E800815095FD06C095ED9A95F1F7C8
:103D300000008111F5CF8091E80085FF0DC040E0C3
:103D400050E063E070E0CE0101960E94AC208091CB
:103D5000E8008E778093E8000F900F900F90DF912E
:103D6000CF910895BC0184E00C947F1EBC0183E0D8
:103D70000C947F1E22E02093E9002FEF3091E800A1
:103D8000215035FD06C035ED3A95F1F700002111BF
:103D9000F5CF2091E80025FF0BC040E050E066E041
:103DA00070E00E94AC208091E8008E778093E8005C
:103DB0000895CF93DF9320911401222339F02091AD
:103DC000890227FF03C060E222E002C068E021E030
:103DD0002093E9002FEF3091E800215035FD06C017
:103DE00035ED3A95F1F700002111F5CF2091E8006B
:103DF00025FF1DC0EC0180911401811105C040E038
:103E000050E068E070E003C070E040E050E0CE01B8
:103E10000E94AC208091E8008E778093E80080E2D9
:103E2000FE01AFE4B2E001900D928A95E1F7DF91D7
:103E3000CF91089580918E02811109C00E943D2288
:103E40000E949A228091E20084608093E2000895AB
:103E500010928E020895089508950C949F1942E0DF
:103E600061EC81E00E94B62142E261EC82E00C94B8
:103E7000B62180919102833009F460C030F4813022
:103E800071F0823009F499C008958A3009F485C030
:103E90008B3009F46BC0893009F0A7C020C0809135
:103EA0009002813A09F0A1C08091E800877F809359
:103EB000E8008091940290919502892B21F460E2B0
:103EC0008FE492E003C060E080E090E070E00E9448
:103ED000F7208091E8008B778093E8000895809127
:103EE0009002813209F081C08091940290919502F4
:103EF000029708F07AC08091E800877F8093E800FD
:103F00008091E80082FD05C080918F028111F8CF79
:103F10006CC02091F3008091F20090E0922B029708
:103F200029F48091F1008B7F813021F48091F100A0
:103F300080936F028091E8008B7753C0809190024C
:103F4000813A09F052C08091940290919502892B98
:103F500009F04BC08091E800877F8093E800809152
:103F6000E80080FFFCCF8091140136C08091900260
:103F70008132D9F58091940290919502892BA9F50F
:103F80008091E800877F8093E8000E94EB21809178
:103F90009202809314010C94C60E8091900281329B
:103FA00021F58091E800877F8093E8000E94EB2153
:103FB0008091930280937002089580919002813ADB
:103FC000A1F48091E800877F8093E8008091E80069
:103FD00080FFFCCF809170028093F1008091E80017
:103FE0008E778093E8000C94EB21089584B7877F47
:103FF00084BF0FB6F894A895809160008861809383
:104000006000109260000FBE90E080E80FB6F89458
:1040100080936100909361000FBE0E94690C0E9422
:104020003D220E949A228091E20084608093E20007
:1040300078940E942F250E94730C8AE091E00E94E0
:10404000F40B80918F02853069F40E946D19809184
:104050008D028823B1F30E945419882391F30E94A2
:104060009620EFCF0E947B0CECCF0C943720292FA9
:10407000332723303105C9F060F42130310581F058
:104080002230310509F04AC08BE390E028EC34E09F
:1040900049C02132310511F12232310579F13EC09A
:1040A00082E190E023E035E03DC099278130910521
:1040B00061F040F08230910559F0039779F5E0EA1C
:1040C000F4E008C0E4ECF4E005C0E2EBF4E002C088
:1040D000E6EAF4E0849190E09F0124C06115710547
:1040E00041F061307105D1F489E090E023EF34E0D4
:1040F00019C089E090E02AED34E014C06115710523
:1041000041F06130710551F48CEB90E025E135E030
:1041100009C080E490E021ED35E004C080E090E04B
:1041200020E030E0FA0131832083089580E189BDE9
:1041300082E189BD09B400FEFDCF8091D8008F7D5A
:104140008093D8008091E00082608093E0008091AD
:10415000E00081FDFCCF0895CF92DF92EF92FF92B5
:104160000F931F93CF93DF93EC018B017A010E9491
:104170000A22811133C0E114F10439F0F701808182
:104180009181081B190BC80FD91FC12CD12C011507
:10419000110519F18091E80085FD16C08091E800B5
:1041A0008E778093E800E114F10449F0F7018081F3
:1041B0009181C80ED91ED182C08285E00FC00E94B5
:1041C0000A22882321F30AC089918093F1000150CB
:1041D0001109FFEFCF1ADF0ADACF80E0DF91CF912C
:1041E0001F910F91FF90EF90DF90CF900895209155
:1041F0009602309197022617370748F0611571052E
:1042000039F42091E8002E772093E80001C0B9012D
:10421000FC0120E06115710579F180918F028823FE
:10422000F1F18530F1F18091E80083FD3CC080918F
:10423000E80082FD2EC08091E80080FFEBCF209146
:10424000F3008091F20090E0922B6115710551F01E
:104250008830910538F421912093F1006150710963
:104260000196F3CF21E0089709F020E08091E80063
:104270008E778093E800CECF2111CFCF0AC08091F6
:104280008F02882361F0853061F08091E80083FD22
:104290000AC08091E80082FFF2CF80E0089582E0BA
:1042A000089583E0089581E0089520919602309169
:1042B00097022617370748F06115710539F42091E8
:1042C000E8002E772093E80001C0B901FC0120E04E
:1042D0006115710591F180918F02882309F440C026
:1042E000853009F43FC08091E80083FD3DC0809196
:1042F000E80082FD2FC08091E80080FFE9CF209187
:10430000F3008091F20090E0922B6115710559F055
:104310008830910540F424912093F100319661504A
:1043200071090196F2CF21E0089709F020E0809111
:10433000E8008E778093E800CBCF2111CCCF0AC064
:1043400080918F02882361F0853061F08091E800D0
:1043500083FD0AC08091E80082FFF2CF80E00895DB
:1043600082E0089583E0089581E00895982F9730C2
:1043700068F59093E900981739F07091EC0020915E
:10438000ED005091F00003C0242F762F50E021FD66
:1043900002C09F5FECCF3091EB003E7F3093EB008B
:1043A0003091ED003D7F3093ED003091EB003160B6
:1043B0003093EB007093EC002093ED005093F000ED
:1043C0002091EE0027FDE5CF80E008958F70809367
:1043D000E90081E008958091900287FF11C08091EB
:1043E000E80082FD05C080918F028111F8CF11C0D5
:1043F0008091E8008B770BC080918F02882349F071
:104400008091E80080FFF8CF8091E8008E7780935C
:10441000E80008952091E4003091E50095E6409190
:10442000EC00842F817040FF23C08091E80080FD64
:104430001DC080918F02882399F0853099F080917A
:10444000EB0085FD11C04091E4005091E500241778
:10445000350729F3915011F09A01E1CF84E00895D6
:1044600082E0089583E0089581E0089580E0089552
:104470004091E80042FFDDCF08950E94AB220E94E8
:10448000B322E0EEF0E0808181608083E8EDF0E02F
:1044900080818F77808319BCA7EDB0E08C918E7FEF
:1044A0008C9380818F7E808310928E0208950F936B
:1044B0001F93CF93DF930E94AB220E94B322C8EDDB
:1044C000D0E088818F77888388818068888388811D
:1044D0008F7D888319BC10928F0210928B021092EC
:1044E0008D0210928C0200EE10E0F80180818B7F2B
:1044F000808388818160888342E060E080E00E9460
:10450000B621E1EEF0E080818E7F8083E2EEF0E084
:10451000808181608083808188608083F8018081D0
:104520008E7F8083888180618883DF91CF911F9106
:104530000F910895E8EDF0E080818F7E8083E7EDB4
:10454000F0E080818160808384E082BF81E080939D
:104550008E020C945722E8EDF0E080818E7F8083FC
:104560001092E20008951092DA001092E10008958E
:104570001F920F920FB60F9211242F933F934F93D8
:104580005F936F937F938F939F93AF93BF93EF93BB
:10459000FF938091E10082FF0BC08091E20082FFD7
:1045A00007C08091E1008B7F8093E1000E942E255F
:1045B0008091DA0080FF1FC08091D80080FF1BC06F
:1045C0008091DA008E7F8093DA008091D90080FF9D
:1045D0000DC080E189BD82E189BD09B400FEFDCF37
:1045E00081E080938F020E941A1F05C019BC1092AF
:1045F0008F020E94281F8091E10080FF19C08091E6
:10460000E20080FF15C08091E2008E7F8093E2007F
:104610008091E20080618093E2008091D800806206
:104620008093D80019BC85E080938F020E942C1FD4
:104630008091E10084FF30C08091E20084FF2CC0B3
:1046400080E189BD82E189BD09B400FEFDCF809182
:10465000D8008F7D8093D8008091E1008F7E809379
:10466000E1008091E2008F7E8093E2008091E20081
:1046700081608093E20080918B02882311F084E0B6
:1046800007C08091E30087FD02C081E001C083E0A4
:1046900080938F020E942D1F8091E10083FF29C02B
:1046A0008091E20083FF25C08091E100877F8093A5
:1046B000E10082E080938F0210928B028091E100F2
:1046C0008E7F8093E1008091E2008E7F8093E200F4
:1046D0008091E20080618093E20042E060E080E04F
:1046E0000E94B6218091F00088608093F0000E94C3
:1046F0002B1FFF91EF91BF91AF919F918F917F9170
:104700006F915F914F913F912F910F900FBE0F903E
:104710001F9018951F920F920FB60F9211242F938E
:104720003F934F935F936F937F938F939F93AF9339
:10473000BF93CF93DF93EF93FF93C091E900CF70C6
:104740008091EC00D82FD17080FDD0E81092E90064
:104750008091F000877F8093F00078940E94CE23B0
:104760001092E9008091F00088608093F000CD2BDA
:10477000CF70C093E900FF91EF91DF91CF91BF918E
:10478000AF919F918F917F916F915F914F913F91E9
:104790002F910F900FBE0F901F9018951F93CF93DE
:1047A000DF93CDB7DEB7AA970FB6F894DEBF0FBE82
:1047B000CDBFE0E9F2E08091F100819322E0E83999
:1047C000F207C9F70E94391F8091E80083FF2EC1CC
:1047D0008091900290919102492F50E04A3051050A
:1047E00008F024C1FA01EC57FF4F0C945E25803885
:1047F00021F0823809F01AC108C080918C02909192
:104800008D02992389F082600FC0809194028F708D
:10481000873008F00BC18093E9008091EB0085FBA5
:10482000882780F91092E9009091E800977F909393
:10483000E8008093F1001092F100D1C0282F2D7F65
:1048400009F0F4C0882319F0823061F0EFC0809144
:104850009202813009F0EAC0933009F080E0809341
:104860008D022EC08091920281112AC08091940203
:104870008F702FEF280F263008F0D8C08093E90002
:104880002091EB0020FF1CC0933021F48091EB00BD
:10489000806214C09091EB0090619093EB0021E056
:1048A00030E0A90102C0440F551F8A95E2F74093FA
:1048B000EA001092EA008091EB0088608093EB00A0
:1048C0001092E9008091E800877F8093E8000E94C1
:1048D000EB21ACC08111AAC0109192021F77809188
:1048E000E3008078812B8093E3008091E800877F4C
:1048F0008093E8000E94EB218091E80080FFFCCFCC
:104900008091E30080688093E300111102C082E08F
:1049100001C083E080938F0289C08058823008F004
:1049200085C080919202909193028C3D53E095074F
:1049300079F583E08A838AE289834FB7F894DE01B0
:10494000139620E03EE051E2E32FF0E05093570051
:10495000E49120FF03C0E295EF703F5FEF708E2F70
:1049600090E0EA3010F0C79601C0C0968D939D93F9
:104970002F5F243149F74FBF8091E800877F8093F4
:10498000E8006AE270E0CE0101960E94F72016C0AE
:104990006091940270919502AE014F5F5F4F0E944B
:1049A0003520BC01892B09F441C09091E800977F24
:1049B0009093E80089819A810E9455218091E800B6
:1049C0008B778093E80032C0803881F58091E800D1
:1049D000877F8093E80080918B028093F100809123
:1049E000E8008E7772CF811121C080919202909160
:1049F000930299270297D4F48091E800877F8093EF
:104A0000E8008091920280938B020E94EB218091BA
:104A10008B02811106C08091E30087FD02C081E016
:104A200001C084E080938F020E942F1F8091E800D4
:104A300083FF0AC08091E800877F8093E80080911F
:104A4000EB0080628093EB00AA960FB6F894DEBF6D
:104A50000FBECDBFDF91CF911F9108950895CF93E1
:104A600080918F028823A1F0C091E900CF709091CE
:104A7000EC00892F817090FD80E8C82B1092E9002E
:104A80008091E80083FD0E94CE23CF70C093E9009F
:104A9000CF91089597FB072E16F4009407D077FD69
:104AA00009D00E94642507FC05D03EF490958195BD
:104AB0009F4F0895709561957F4F0895EE0FFF1FEA
:104AC0000590F491E02D0994AA1BBB1B51E107C08E
:104AD000AA1FBB1FA617B70710F0A61BB70B881F8E
:104AE000991F5A95A9F780959095BC01CD0108951D
:104AF000F999FECF92BD81BDF89A992780B50895A6
:104B0000A8E1B0E042E050E00C94AC25262FF999E2
:104B1000FECF92BD81BDF89A019700B4021639F01C
:104B20001FBA20BD0FB6F894FA9AF99A0FBE0895ED
:104B30000396272F0E9487250E948625252F0E94F5
:104B40008725242F0C9487250196272F0E948725DF
:104B50000C948625DC01CB01FC01F999FECF06C03F
:104B6000F2BDE1BDF89A319600B40D92415050402B
:084B7000B8F70895F894FFCF97
:104B78001D022808641E140A321E7C1ED91EBA1E85
:104B8800B61EB21E01E200E900EA00B500B600B7A1
:104B980000CD008301CC008A0192019401210223F7
:104BA8000224022502260227022A02B300B4006F5B
:104BB800007000818283F0F1C66766379431303522
:104BC80034979633F49091929395E200E900EA00C5
:104BD800B500B600B700CD008301CC008A01920170
:104BE80094012102230224022502260227022A0216
:0C4BF800B300B4006F00700081828300E5
:00000001FF
