:100000000C94F9020C9440030C9440030C944003AC
:100010000C9440030C9440030C9440030C94400354
:100020000C9440030C9440030C9477200C944921C9
:100030000C9466170C9440030C9440030C944003FA
:100040000C9440030C9440030C9440030C94400324
:100050000C9440030C94B3170C9440030C9440038D
:100060000C9440030C9440030C9440030C94400304
:100070000C9440030C9440030C9440030C944003F4
:100080000C9440030C9440030C9440030C944003E4
:100090000C9440030C9440030C9440030C944003D4
:1000A0000C9440030C9440030C944003970C970C61
:1000B000A90CA90CA00CA90CA90CA90C970C970CC5
:1000C000A50CA90CA90CA50CEB0CEB0C1F0D1F0D1E
:1000D0006F0D8B0DB50EB50E960D310E440E440E00
:1000E000A50EB50EB50EAE0EB621DD21D522DD2151
:1000F000D52229224C22D522A322B22229001E0079
:100100001F002000210022002300240025002600DB
:1001100027002D002D0200002A002B0000001400F3
:100120001A000800150017001C0018000C0012002F
:100130001300300032008700E000000004001600C9
:10014000070009000A000B000D000E000F0033002D
:10015000240228000000035100001D001B000600BF
:1001600019000500110010003600370038000000AB
:10017000E5000451E000E30000008B642C00000067
:100180002C0000002C0000008A74E7000000F5003D
:10019000E400165C1E001F00200021002200230046
:1001A00024002500260027002D002E0000002A0034
:1001B0002B00000014001A000800150017001C0096
:1001C00018000C00120013002F0030003100E00076
:1001D000000004001600070009000A000B000D00D3
:1001E0000E000F003300340028000000E100000082
:1001F0001D001B000600190005001100100036004C
:10020000370038000000E5000251E000E300000084
:10021000E2002C0000002C0000002C000000E60092
:10022000E7000000F500E40035003A003B003C0028
:100230003D003E003F0040004100420043004400BA
:10024000450000004C000100000001000100010019
:1002500001000100010001004600460C00005200B0
:100260000000010005510000010001000100010033
:100270000100010001004A004B0050004F00010046
:100280000000010000000100010001000100010068
:10029000010001004D004E0051000000010001006E
:1002A00001000100000001002C0000002C000000F3
:1002B0002C000000010001000000010001002E02DE
:1002C0001E022F002002210222022E0023023402ED
:1002D000250226028702330200004C002B02000098
:1002E00014021A020802150217021C0218020C025C
:1002F00012021302300232028902E00200000402FC
:100300001602070209020A020B020D020E020F0278
:1003100034001F0228020000010000001D021B0221
:1003200006021902050211021002360237023802D3
:10033000000001004259E002E300000001002C002F
:1003400000002C0000002C00000001000100000053
:100350000100E4022F023A003B003C003D003E0059
:100360003F004000410042004300440045000000BF
:100370004C0001000000F400F000F500F90001005D
:10038000010001004600460C00005200000035004C
:1003900005510000F200F100F300FA000100010035
:1003A00001004A004B0050004F0001000000E10036
:1003B0000000010001000100010001000100010036
:1003C0004D004E005100000001000100010001003D
:1003D000000001002C0000002C0000002C00000098
:1003E00001000100000001000100005C295D285DA2
:1003F0003C003D003E003F00400041004200430001
:100400004400450000004C00010000000100010014
:100410000100010001000100010046000100000090
:100420005200000035000100000001000100010041
:1004300001000100010001004A004B0050004F0084
:1004400001000000E10000000100010001000100C6
:100450000100010001004D004E00510000000100AC
:10046000010001000100000001002C0000002C0030
:1004700000002C000000010001000000010001004C
:100480000403300000000A0344005A003600300024
:10049000000010034B0042004400460061006E0063
:1004A000730000000403090409023B00020100A0DC
:1004B000FA090400000103010100092111010001F2
:1004C0002240000705810308000A09040100010316
:1004D00000000009211101000122BC000705820370
:1004E00020000A12011001000000085A4460220195
:1004F000000102030105010902A10185020901A110
:1005000000050919012905150025019505750181C9
:100510000295017503810105010930093115812515
:100520007F95027508810609381581257F9501752B
:10053000088106050C0A38021581257F950175088A
:100540008106C0C005010980A101850319012AB7F0
:1005500000150126B700950175108100C0050C0932
:1005600001A101850419012AA002150126A0029506
:100570000175108100C005010906A1018505050767
:1005800019E029E715002501950875018102050785
:10059000190029EF1500250195F075018102050864
:1005A00019012905950575019102950175039101C0
:1005B000C005010906A101050719E029E715002575
:1005C00001950875018102950175088101050719DA
:1005D0000029FF150026FF00950675088100050813
:1005E0001901290595057501910295017503910180
:1005F000C00011241FBECFEFDAE0DEBFCDBF04B6CE
:1006000003FE27C08091960290919702A0919802D4
:10061000B09199028730904BA740B04BD1F4109223
:10062000960210929702109298021092990214BEAC
:1006300084B7877F84BF0FB6F894A8958091600037
:10064000886180936000109260000FBEE0E0F8E3E4
:10065000099511E0A0E0B1E0E6EFF6E402C00590F4
:100660000D92AC38B107D9F722E0ACE8B1E001C097
:100670001D92A639B207E1F70E94B51D0C947923AB
:100680000C940000229A2A9A08950E9451060C9414
:10069000420381FF02C02A9801C02A9A0C94D50314
:1006A00088322DE5920721F089329D4539F00FC03F
:1006B000FB018281882361F080E005C0FB0182811B
:1006C000882331F081E00E94B70380E0089581E043
:1006D000089581E008950C94500308950C946D03DF
:1006E0001F93CF93DF9300D000D01F92CDB7DEB71A
:1006F00049835A836B833091A40189819A81311196
:1007000014C0662359F0222349F00E946D14182F5B
:10071000682F89819A810E94161403C00E94411497
:10072000182F69817A81812F04C00E946D1469811C
:100730007A810F900F900F900F900F90DF91CF91D3
:100740001F910C943404FC01262F40815181628159
:10075000738184810C947003CF93DF93EC0160E08C
:100760000E94A303BE01DF91CF910C946E03CF933F
:10077000DF9361E070E0EB0102C0CC0FDD1F8A95D2
:10078000E2F78C2F0E94B715BE0180E090E0DF9168
:10079000CF910C9418130E949F15811102C00E94E2
:1007A00049160C9445030C944F06089581E0089572
:1007B0000C94D603CF93C82F0E9449038C2F0E941C
:1007C000D803CF91089508950E94850C0E94E303F9
:1007D0002FEF84E39CE0215080409040E1F700C07F
:1007E00000000C94D9170F931F93CF93DF93EC0164
:1007F00061E00E94A3038C01BE010E946B03882369
:1008000049F1BE01C8010E940508882319F1BE0103
:10081000C8010E9457088823E9F0BE01C8010E9460
:1008200082098823B9F08A81882369F001158CE553
:10083000180731F00E3D1C4531F40E9449160AC0DC
:100840000E94E40307C0CE01DF91CF911F910F9169
:100850000C94690380E0DF91CF911F910F9108956F
:1008600080E090E0089508952BE4829FC001112458
:10087000FC012FE0729FE00DF11D1124E60FF11D28
:10088000EE0FFF1FE450FF4F859194910895880F5C
:10089000991FFC01E058FB4F859194910895CF93E7
:1008A000DF930E9434040E946705EC018115904596
:1008B00008F041C0C11580E4D80708F0D1C0C83E97
:1008C000D10510F5C03ED10508F0FDC0C83AD105EC
:1008D00078F4C53AD10508F0A2C0C130D10509F4B9
:1008E000F2C008F4EEC0C430D10508F0ECC0E9C095
:1008F000CF3BD10508F49BC0C03CD10508F4E1C052
:10090000CE01805C91099EC0C11590E2D90758F4D0
:10091000C11521E0D20708F0D6C0C03FD10508F4C8
:10092000D0C0D065D0C0C11580E3D80708F08EC014
:10093000CE019F7087C0C11595E5D90708F043C067
:10094000C11524E5D20708F0A2C0C11582E5D80779
:1009500008F5C11591E5D90708F085C0CE0174E00E
:10096000969587957A95E1F783709C2F937021E097
:1009700030E002C0220F331F9A95E2F73C68382B13
:10098000CF70C695C69580E2C89FE0011124C22BA6
:10099000D32B99C09E01237033278C2F8695869583
:1009A000C115D34508F064C0C1E0D0E002C0CC0F4F
:1009B000DD1F2A95E2F720E2829FC0011124C82B97
:1009C000D92BDC6880C0C11529E5D207A0F4C11578
:1009D00088E5D80708F060C0C11596E5D90708F08A
:1009E00070C08C2F0E94FB058F71C82FD0E0DC2FC8
:1009F000CC27D06268C0C1152AE5D20708F451C0DF
:100A0000CE0190568115904208F05BC08D2F8F71FA
:100A10000E94FB05DD27D0628F71D82B54C0C55AC8
:100A2000D0E0CD5BDE4FC881D0E0D0644CC0C85A66
:100A3000D0E0CC0FDD1FCB5EDE4F0990D881C02DFA
:100A4000D46441C00E944704EC013DC0CE01992707
:100A5000D3FF03C0EC01D86C36C0EC01D06C33C0BE
:100A6000DF70D06A30C0DC2FCC27C16FD06A2BC0BA
:100A7000C1E0D0E002C0CC0FDD1F2A95E2F720E2F2
:100A8000829FC0011124C82BD92BDA681CC0DC2F2F
:100A9000CC27C46FD06A17C0DC2FCC27C06FD06AB8
:100AA00012C08C2F8F700E94FB0594E0D695C795DD
:100AB0009A95E1F7CF70D0E0DC2FCC27D069C82B16
:100AC00002C0C0E0D0E0CE01DF91CF91089582381E
:100AD000910569F1B0F48133910509F46DC048F4D2
:100AE0008932910509F463C08A32910509F469C01D
:100AF00008958533910509F455C089339105B9F0FE
:100B00000895833E910569F138F4803E9105B1F076
:100B1000823E910509F10895863E9105A9F1873E2F
:100B20009105B9F1843E910509F064C023C020917C
:100B3000870220FD4FC021FD4DC00895809187029E
:100B400080FD44C08091880280FF44C0809187026C
:100B500084FD42C083EE4DC08091870282FF38C081
:100B6000F5CF8091870282FD33C08091880280FD9D
:100B700031C0ECCF8091880281FF32C08091870222
:100B800084FD2AC087EE35C08091870283FF26C08E
:100B9000F5CF8091870283FD21C08091880281FD7D
:100BA0001FC0ECCF8091870285FD1CC01DC08091C5
:100BB000870285FD19C016C08091870286FD16C088
:100BC00017C08091870286FD13C010C089E311C051
:100BD00082EE0FC080EE0DC080E00BC086EE09C033
:100BE00084EE07C089E205C085E303C08AE201C044
:100BF00081E390E008959091870292FF0DC0282F25
:100C00002871283019F4877F846006C0282F24714A
:100C1000243011F48B7F886093FF0DC0282F28713A
:100C2000283119F4877E846106C0282F247124316D
:100C300011F48B7E88612091880220FF0DC0382F2F
:100C40003871383019F4877F816006C0382F3171D0
:100C5000313011F48E7F886021FF0DC0282F28715C
:100C6000283119F4877E816106C0282F2171213136
:100C700011F48E7E886194FD877E0895E82FF0E060
:100C8000EE0FFF1FE758FD4F808191810895089571
:100C900080EA8A95F1F7089508950C944C060C9417
:100CA0004D060C944C06CF93DF93A5E5B1E04AE5E1
:100CB00051E061E070E08D91E82FE295EF70F0E097
:100CC00021A18F70EB0102C0CC0FDD1F8A95E2F7E6
:100CD000CE019C2F9095922391A392A1892B82A360
:100CE0004A175B0741F7A6E4B1E045E551E061E052
:100CF00070E08D91E82FE295EF70F0E021A18F7008
:100D0000EB0102C0CC0FDD1F8A95E2F7CE019C2FCC
:100D10009095922391A392A1892B82A34A175B07F6
:100D200041F7EFE6F2E0A9E7B2E089E792E011923D
:100D300011921D921D928E179F07C9F785E00E94A0
:100D40003207DF91CF910C94CB036F927F928F92F9
:100D50009F92AF92BF92CF92DF92EF92FF920F934A
:100D60001F93CF93DF9385E5C82E81E0D82E0FE641
:100D700012E099E7A92E92E0B92E712C8824839471
:100D8000912CF60181916F01C82FC295CF70D0E0F0
:100D900099A18F70740101C0EE0C8A95EAF7892F32
:100DA0008E2989A38AA16E2C609486218AA30E9431
:100DB0004806E6E4F1E040E050E020E030E06191F8
:100DC000A62FA295AF70B0E090968C9190E06F70D6
:100DD00002C0959587956A95E2F780FD08C0C40129
:100DE000042E02C0880F991F0A94E2F702C080E027
:100DF00090E0282B392B4F5F5F4F4F305105F9F6AC
:100E000089A1682269A28AA1E82AEAA2F801808160
:100E100091812817390721F03183208381E001C0B7
:100E200080E0782A0E5F1F4FA016B10609F0A9CF07
:100E3000272D45E069E772E08FE692E00E943307D4
:100E40000E94D303872DDF91CF911F910F91FF90C7
:100E5000EF90DF90CF90BF90AF909F908F907F905A
:100E60006F9008950895FF920F931F93CF93DF9390
:100E7000F82E092F162FD72FC42F222349F081E0F7
:100E800080938E010E94981790938D0180938C011E
:100E900080918E018823D9F080918C0190918D01F1
:100EA0000E94A417069798F0EF2DF02FA12FBD2FC9
:100EB00080E090E04C2F50E08417950734F42191A6
:100EC00031912D933D930196F7CF10928E01DF91D2
:100ED000CF911F910F91FF900895AF92BF92CF9243
:100EE000DF92EF92FF920F931F93CF93DF937C01DA
:100EF0005B01C42FD22FFC0182818823F9F040933B
:100F000091010E9498179093900180938F0180E245
:100F10008C0F883008F06EC0C77081E001C0880F68
:100F2000CA95EAF7DF91CF911F910F91FF90EF9053
:100F3000DF90CF90BF90AF900C945D0C80919101A9
:100F4000481335C080918F01909190010E94A417A1
:100F50006C01B701C5010E94D811C816D90638F531
:100F600010E21D0FCD17B9F080E28C0F883040F4ED
:100F7000C77081E001C0880FCA95EAF70E94640C2F
:100F8000183058F581E09D2F977001C0880F9A9511
:100F9000EAF70E945D0C802F0E944A0C183050F531
:100FA000D77081E001C0880FDA95EAF70AC080E2C5
:100FB0008C0F8830F8F4C77081E001C0880FCA95A3
:100FC000EAF7DF91CF911F910F91FF90EF90DF90A3
:100FD000CF90BF90AF900C94640C802FDF91CF9195
:100FE0001F910F91FF90EF90DF90CF90BF90AF9047
:100FF0000C944A0CDF91CF911F910F91FF90EF90CD
:10100000DF90CF90BF90AF9008950F939C01CB01DC
:10101000233F4CE5340731F188F4283DFCE53F07D8
:10102000D9F0293D4CE5340779F1273D3C45A9F538
:1010300006E221EE41EE67ED7CE52BC0253FFCE5A5
:101040003F07E1F0A8F0263F3C4539F507E225EEE1
:1010500046EE66EF7CE51DC007E225EE45EE68ED45
:101060007CE517C006E221EE40EE63EF7CE511C09F
:1010700007E225EE44EE64EF7CE50BC006E221EECC
:1010800042EE65EF7CE505C008E221E045EE69ED42
:101090007CE50E946D0780E008C0FC018281882306
:1010A00019F01092910101C081E00F910895CF9342
:1010B000DF93EC01FB018281882309F41FC1C23058
:1010C000FCE5DF0708F41BC1C6319CE5D90738F001
:1010D0009E012A5F3C452930310508F010C10E946D
:1010E000BC159093880280938702C031ECE5DE073F
:1010F00009F4C3C008F041C0C8308CE5D80709F432
:101100009AC0F0F4C430ECE5DE0709F487C068F457
:10111000C2308CE5D80709F477C0C330DC4509F04C
:10112000E3C080918702826076C0C630ECE5DE07BE
:1011300009F46EC008F07BC08091870288606BC0A4
:10114000CC308CE5D80709F485C068F4CA30ECE5EA
:10115000DE0709F474C008F079C00E94850C809104
:101160008702806858C0CE308CE5D80709F476C075
:1011700008F07FC0809187028BC0CB3FECE5DE0793
:1011800009F44FC018F5C3318CE5D80709F47DC0C8
:1011900078F4C131ECE5DE0709F473C0C231DC45F7
:1011A00009F0A2C00E94850C809187028F7733C01E
:1011B000C5318CE5D80709F472C008F486C0CA3F6F
:1011C000DC4509F091C0809188023EC0CF3FFCE52C
:1011D000DF0709F45FC058F4CD3F9CE5D90709F457
:1011E00044C008F43FC08091880282602DC0C130A5
:1011F000FDE5DF0709F475C008F45DC0C230DD45C8
:1012000009F072C080E06EC080918702816003C0E7
:101210008091870280618093870266C080918702F7
:1012200011C0809188028260809388025DC08091A5
:1012300087028062F0CF809187028064ECCF80913A
:10124000870288608460E7CF8160EECF809187025B
:101250008E7FE1CF809187028D7FDDCF80918702E5
:10126000877FD9CF8091880218C0809188028D7FB6
:10127000DBCF809187028F7ECECF809187028F7DDA
:10128000CACF809187028F7BC6CF80918702877FEC
:101290008B7FC1CF809188028D7F8E7FC5CF80915B
:1012A000870282FB222720F991E0922790FB82F9A6
:1012B00090FB83F9B0CF80918802982F9095917020
:1012C0008E7F892B90FB81F9AFCF0E94850C809196
:1012D000870287FB222720F991E0922790FB87F96C
:1012E0009ACF81E00E944B168091870290918802EC
:1012F0000E94CD150E94850C80E001C081E0DF9145
:10130000CF910895CF93DF9386319C4541F5EB0152
:101310000E94EE14982F8A812091000130910101E2
:10132000882379F09A7A81E009F480E08093920131
:10133000911102C069E201C065E3C9010E94E6168D
:101340000AC080919201811102C069E201C065E387
:10135000C9010E94F1160E943C1580E001C081E0A5
:10136000DF91CF910895909398018093970108950C
:10137000E0919701F0919801309721F00190F08170
:10138000E02D099480E00895E0919701F091980193
:10139000309799F020911401222359F0209187026F
:1013A00027FF07C0DC012C9111962C93119725E0A3
:1013B0002C930280F381E02D09940895E091970128
:1013C000F0919801309739F022E0DC012C930480F1
:1013D000F581E02D099408952091950130919601B1
:1013E0002817390771F09093960180939501E09149
:1013F0009701F0919801309721F00680F781E02D58
:101400000994089520919301309194012817390788
:1014100071F09093940180939301E0919701F09182
:101420009801309721F00084F185E02D099408950A
:1014300085B7806885BF85B7806885BF08950895A2
:101440000C941F0A0C94200A0C941F0A0C941F0A77
:101450000E94180A0E94240A0C94220A81E008952E
:101460000C942E0A0E948F170E9453060E9449185E
:101470000C94260A7F928F929F92AF92BF92CF9246
:10148000DF92EF92FF920F931F93CF93DF93CDB72D
:10149000DEB72A970FB6F894DEBF0FBECDBF0E940D
:1014A000A5060E94300A811111C08FEF89838A83BB
:1014B0001B820E9498178160782F9D838C834981BD
:1014C0005A816B818D810E94EA0A4FC04AE9A42E9D
:1014D00041E0B42E00E010E0702E802F0E943E0606
:1014E0006C01F501819091905F0188269926811405
:1014F000910431F40F5F1F4F0530110569F7D5CF07
:1015000080913E0281FD0E94470680E0EE24E39434
:10151000F12C94012E213F21232B09F18E837F8210
:10152000CE20DF2081E0CD2809F480E088870E946A
:1015300098178160782F9A8789874E815F816885A7
:101540008A850E94EA0A000F111FF801E656FE4F35
:1015500080819181E826F926F182E08206C08F5FC2
:10156000EE0CFF1C8F30A9F6C5CF0E941A1B0E94FB
:10157000B809909199018917C9F00E94B809809320
:1015800099012A960FB6F894DEBF0FBECDBFDF914A
:10159000CF911F910F91FF90EF90DF90CF90BF9070
:1015A000AF909F908F907F900C94DA032A960FB69D
:1015B000F894DEBF0FBECDBFDF91CF911F910F9189
:1015C000FF90EF90DF90CF90BF90AF909F908F9063
:1015D0007F900895CF93DF93CDB7DEB72B970FB6EB
:1015E000F894DEBF0FBECDBF942F4F83252F5887B1
:1015F00069877A878B874A855B85452B31F02F3F3A
:1016000031F481E09F3F19F403C081E001C080E024
:1016100080FD09C08091A5019091A601019690934B
:10162000A6018093A501DE01119686E0FD011192CD
:101630008A95E9F785E0FE01379601900D928A952B
:10164000E1F749815A816B817C818D819E810E9465
:10165000DB112B960FB6F894DEBF0FBECDBFDF9126
:10166000CF910895FC01808191810E94AF1408956B
:10167000CF93882309F4A4C0C82F8238C1F40E94F4
:10168000B80981FD9DC069E380910001909101013D
:101690000E94E6160E943C152FEF81EE94E0215047
:1016A00080409040E1F700C0000069E319C0833832
:1016B00001F50E94B80980FD83C063E580910001B7
:1016C000909101010E94E6160E943C152FEF81EED9
:1016D00094E0215080409040E1F700C0000063E5B5
:1016E00080910001909101010E94F116CF910C941C
:1016F0003C158438C1F40E94B80982FD61C067E4DA
:1017000080910001909101010E94E6160E943C1513
:101710002FEF81EE94E0215080409040E1F700C02F
:10172000000067E4DDCF8CEF8C0F813AD0F46C2F92
:1017300080910001909101010E946616882349F072
:101740006C2F80910001909101010E94F1160E947E
:101750003C156C2F80910001909101010E94E616CA
:10176000C5CF80E28C0F883048F4C77081E001C09B
:10177000880FCA95EAF70E94F114B8CFEBE5EC0F99
:10178000E33040F4F0E0E857FE4F808190E0CF91E5
:101790000C94EC09E8E5EC0FE73150F4F0E0EE0FC3
:1017A000FF1FE65AFE4F80819181CF910C94020A6F
:1017B000C03F30F08C2F0E940F1ACF910C94FC1A6E
:1017C000CF910895882309F464C0823879F40E9487
:1017D000B80981FF5EC069E3809100019091010129
:1017E0000E94E6160E943C1569E310C08338B1F4EC
:1017F0000E94B80980FF4DC063E58091000190917F
:1018000001010E94E6160E943C1563E580910001EB
:10181000909101010E94F1160C943C15843879F4E2
:101820000E94B80982FF35C067E480910001909161
:1018300001010E94E6160E943C1567E4E7CF9CEF89
:10184000980F913A10F4682FE1CF90E2980F9830FA
:1018500050F4877091E001C0990F8A95EAF7892FBB
:101860000E94F714D9CF9BE5980F933020F480E0C5
:1018700090E00C94EC0998E5980F973120F480E003
:1018800090E00C94020A803F20F00E94771A0C949A
:10189000FC1A0895CF93C82F0E94380BC93349F41E
:1018A0002FEF87EE93E0215080409040E1F700C099
:1018B00000008C2FCF910C94E20B882321F00E9422
:1018C000F1140C943C150895882321F00E94F7141C
:1018D0000C943C1508950E940E150E941E150E943E
:1018E0003C150E942D1C0E94FC1A80E090E00E9492
:1018F000EC0980E090E00C94020A80910001909144
:1019000001010E94FC160C946B0C0E94FE140C94B6
:101910007D0CE92FE295EF704E2F50E0FA013297DF
:10192000EE30F105B0F4EA5AFF4F0C941D23803FCE
:1019300091F018F4883E68F40EC0843F51F40BC057
:10194000883E48F0813F29F406C093FB882780F940
:10195000089580E0089581E008950E94AF140E94E8
:10196000890C08958F929F92AF92BF92CF92DF928F
:10197000EF92FF920F931F93CF93DF936C01EB01D4
:10198000FC01058102950F70128111110E940E1544
:101990000E94E714882399F0112389F08D2F807F0E
:1019A000803421F080E28C0F883048F082E00E9481
:1019B00086150E94E71491E0E82EE92601C0E12C8B
:1019C000BD2EB2942FE0B2228B2D90E0FC01EC5999
:1019D000FF4F0C941D239D2F9F708D2F807FF92E1C
:1019E00019F0F29490EFF922112399F0FF2009F4F5
:1019F00097C180E28C0F883010F0C11104C08F2D88
:101A00000E94F11403C08F2D0E9401150E943C1505
:101A100087C18C2F0E94E20BFF2009F4A6C180E24F
:101A20008C0F883010F0C11104C08F2D0E94F71464
:101A300003C08F2D0E9407150E943C1596C19D2F53
:101A40009F708D2F807FF92E803219F0F29480EFF5
:101A5000F822CC2319F0C130C9F022C0112371F053
:101A6000002341F0013031F40E9421158F290E949A
:101A700029157BC10E9421158F291DC0002319F053
:101A8000013009F472C10E94321525C0112321F0E2
:101A9000063008F06AC10EC0053008F066C11BC0F0
:101AA000112361F0002331F0F601858180FF38C1F8
:101AB0008F7085838F2D0E945D0C57C1002359F0D4
:101AC000C93309F03EC1FFEF27EE83E0F15020401B
:101AD0008040E1F734C18F2D0E94640C46C18D2FE8
:101AE00086958695837019F0813059F03EC1112397
:101AF00019F0CE01937002C080E090E00E94EC09E2
:101B00003CC1112319F0CE01937002C080E090E037
:101B10000E94020A32C18C2F112319F00E940F1A61
:101B200002C00E94771A0E94FC1A27C18D2F837071
:101B300009F048C011111DC12C2F22952695277040
:101B4000220F220F6C2F6F70862F90E0A0E0B0E084
:101B5000022E04C0880F991FAA1FBB1F0A94D2F738
:101B6000C4FF10C04FE050E060E070E004C0440FDC
:101B7000551F661F771F2A95D2F74095509560959F
:101B8000709503C040E050E0BA012D2F26952695B0
:101B900023704A015B01882A992AAA2ABB2AC50117
:101BA000B401223049F058F4213019F00E942C136E
:101BB000E0C00E941A13DDC00E943E13DAC00E94EA
:101BC0001813D7C0112319F08D2F817001C086958D
:101BD000882309F4CEC02C2F229526952770220F3A
:101BE000220F6C2F6F70862F90E0A0E0B0E0022EE5
:101BF00004C0880F991FAA1FBB1F0A94D2F7C4FF05
:101C000010C04FE050E060E070E004C0440F551F8A
:101C1000661F771F2A95D2F740955095609570956D
:101C200003C040E050E0BA012D2F26952695237081
:101C30004A015B01882A992AAA2ABB2AC501B40154
:101C4000223049F058F4213019F00E94F11391C06C
:101C50000E94DF138EC00E9403148BC00E94521397
:101C600088C02D2F2F70F22E112339F0822F0E9461
:101C700078138C2F0E945D0C7CC08C2F0E94640C0A
:101C80008F2D0E94991375C0C23F01F128F4C03F07
:101C900041F0C13FA1F040C0C33FF9F0C43F39F16A
:101CA0003BC0112341F0053008F05FC08D2F8F71CC
:101CB0000E94BE135AC0063008F057C0F7CF112358
:101CC00039F08D2F8F710E9478134FC01123C9F303
:101CD0008D2F8F710E94991348C0112329F08D2FE9
:101CE0008F710E94631341C00E945E133EC0112396
:101CF00051F08D2F8F71F82E0E94781363E08F2D95
:101D00000E94711532C081E00E948615023068F190
:101D100082E00E94861529C0112331F0002389F248
:101D20008C2F0E94380B21C0002391F2C93349F453
:101D30009FEFE7EEF3E09150E040F040E1F700C0A4
:101D400000008C2F0E94E20B10C04D2F4F706C2FA3
:101D5000C6010E9430040E9489120FC04D2F4F709F
:101D60006C2FC6010E94330408C088EF8B0D8430AD
:101D700020F40E94B8090E94DA03CE010E94890C67
:101D8000811105C01092A6011092A50111C0112366
:101D900019F00111F7CF0CC00111F4CF8091A5010A
:101DA0009091A601029771F78C2F0E944A0CEACFFE
:101DB000EE20E9F00E94E31480FD19C0F6011282C2
:101DC0000E94DD140E947813C6010E941C0F0E941D
:101DD000DD14DF91CF911F910F91FF90EF90DF9075
:101DE000CF90BF90AF909F908F900C949913DF91FC
:101DF000CF911F910F91FF90EF90DF90CF90BF9008
:101E0000AF909F908F9008950F931F93CF93DF9380
:101E1000EC01688179818A810E94BA148C010E9448
:101E200015140E940613B801CE010E94B20CDF9176
:101E3000CF911F910F910895CF93DF93EC0198817B
:101E400089812B813C81232B31F08F3F31F481E05C
:101E50009F3F19F403C081E001C080E080FD19C0FC
:101E6000CE010E94F30381110CC00E94E714882365
:101E700081F08A81882369F082E0DF91CF910C9410
:101E80008615CE010E94040FCE01DF91CF910C94F4
:101E9000AC03DF91CF910895CF93DF9300D000D0B2
:101EA0001F92CDB7DEB70F900F900F900F900F904D
:101EB000DF91CF910895CF93DF9300D000D000D071
:101EC000CDB7DEB726960FB6F894DEBF0FBECDBFF6
:101ED000DF91CF9108951F93CF93DF93C091A70116
:101EE00016E08091A801C81799F0D0E01C9FF0017E
:101EF0001D9FF00D1124E755FE4F408151816281F5
:101F00007381848195810E945B0F2196C770E9CF10
:101F1000DF91CF911F9108954091D9015091DA013D
:101F20006091DB017091DC018091DD019091DE0117
:101F30000C945B0F0F931F93CF93DF938091DE017F
:101F400082958F7009F05DC08091DB01882309F4D0
:101F500058C08091A7011091A8016091D90170919A
:101F6000DA01C091DC01D091DD0191E06F3F09F011
:101F700090E0292F06E0811709F443C0209721F053
:101F80007F3F21F030E003C031E001C0322F90E00C
:101F900030FD34C0089FF001099FF00D1124DF01CE
:101FA000A755BE4F11963C911197371327C03C910E
:101FB000361324C012963C91129731111FC013960C
:101FC0004D915C9114974C1B5D0B483C5105B0F44E
:101FD0008091DE018F7080618093DE01E255FE4FBB
:101FE00080818F708061808389ED91E00E941C0F59
:101FF000DF91CF911F910F910C946B0F0196877019
:10200000BACFDF91CF911F910F9108959F92AF9218
:10201000BF92CF92DF92EF92FF920F931F93CF93D5
:10202000DF93CDB7DEB761970FB6F894DEBF0FBE72
:10203000CDBF8C0185E0F801DE011D9601900D9267
:102040008A95E1F7F80140815181E2809091D901B0
:102050006091DA012091DC013091DD01211531051B
:1020600031F06F3F31F481E09F3F19F403C081E00C
:1020700001C080E0F82FF1709F2E80FD46C1F8016D
:10208000A380B48089EDC82E81E0D82EF090DB01CA
:10209000F501E21BF30BFF2009F4DFC08091DE01A4
:1020A000E83CF10508F09BC0282F207F09F052C0C2
:1020B000561313C0491311C0FE2CE1100EC08F70CF
:1020C00080618093DE010E948C0FC6010E941C0F6C
:1020D0008091DE01F801858358C1AB2831F05F3F64
:1020E00031F481E04F3F19F403C081E001C080E08A
:1020F00080FD03C081E08E2502C080E090E0F82FD3
:10210000F170FF2E80FF1CC08091A7012091A801D3
:1021100036E0821709F417C190E0389FF001399F2B
:10212000F00D1124E755FE4F6181561306C0608102
:10213000461303C06281E61203C001968770E9CF9F
:10214000FE2CEE2009F421C18091DE018160809394
:10215000DE015AC0561306C0491304C0E11002C084
:10216000F8019FC04D875E878D859E850E94AD0CCE
:10217000882379F1EE2069F12091DE01822F82958A
:102180008F7090E0029774F08091D9019091DA01FC
:1021900098878F831986BB86AA862C87CE010796DF
:1021A0000E941C0F86E0F801A9EDB1E001900D92AC
:1021B0008A95E1F70E949A0F0E948C0F0DC0561766
:1021C00029F14D875E878D859E850E94AD0C81111A
:1021D0002CC0C8010E941C0FFF24F394D6C0282FE6
:1021E000207F69F77A2DB98AA88A6E2D89890E9485
:1021F0004C0F89ED91E00E941C0F86E0F6011192D0
:102200008A95E9F70E948C0FF12CBFC04913D9CFF2
:10221000E110D7CFF8018583C8010E941C0F86E02A
:10222000F60111928A95E9F7B0C0EE2091F2209163
:10223000DE01822F82958F7090E002970CF4B2CF6E
:102240008091D9019091DA019A8389831B82BD82A2
:10225000AC822E83CE010196A3CFE83CF10508F0B5
:1022600047C0FE2CEE2009F4B4CF561330C04913FA
:102270002EC02091DE0120FD21C0822F82958F701B
:10228000482F50E041155105C9F0F80125834F3022
:10229000510541F08F5F982F9295907F822F8F701C
:1022A000892B8583C8010E941C0F86E0F801A9EDE7
:1022B000B1E001900D928A95E1F742C086E0F80105
:1022C000A9EDB1E001900D928A95E1F75EC04D87CE
:1022D0005E878D859E850E94AD0C811163CF8091B4
:1022E000DE0181608093DE01C8010E941C0F4DC099
:1022F0007A2DB98AA88A6E2D89890E944C0F86E0B2
:10230000F60111928A95E9F71BC0EE2009F461CF1E
:102310004D875E878D859E850E94AD0CF82E8823A3
:1023200009F457CF86E0F801A9EDB1E001900D92D4
:102330008A95E1F789ED91E00E94320B0E949A0F95
:102340000E948C0F22C04D875E878D859E850E94DE
:10235000AF14292F22952F70223028F49F7039F066
:10236000811105C00BC0243028F49F7049F4805EB1
:10237000883020F0C8010E941C0F9F2CF92C05C04A
:10238000F8019581907F99F7F9CF8F2D61960FB65F
:10239000F894DEBF0FBECDBFDF91CF911F910F919B
:1023A000FF90EF90DF90CF90BF90AF909F900895F7
:1023B00088EC90E008951F93CF93DF93CDB7DEB7FD
:1023C0002C970FB6F894DEBF0FBECDBF4F83588752
:1023D00069877A878B879C87CE0107960E940610B3
:1023E0008823D1F09F8188852A853B85232B31F076
:1023F0008F3F31F481E09F3F19F403C081E001C0B9
:1024000080E080FD47C04F81588569857A858B853E
:102410009C850E945B0F3EC086E0FE013796DE0180
:10242000119601900D928A95E1F7FF81E8856A8502
:102430007B856115710531F0EF3F31F481E0FF3F9D
:1024400019F403C081E001C080E080FD23C0209129
:10245000A80130E0C9010196877099274091A70132
:1024600050E084179507F1F1F983EA837D836C834B
:1024700096E0929FD001939FB00D1124A755BE4FB7
:10248000FE01319601900D929A95E1F78093A80193
:102490000E946B0F16E08091A7019091A801891707
:1024A00071F1189FC001112487559E4F0E9406109C
:1024B000882329F1E091A7011E9FF0011124E7551F
:1024C000FE4F4081518162817381848195810E9498
:1024D0005B0F8091A70190E0019687709927809308
:1024E000A701D9CF0E94850C1092A8011092A701D4
:1024F000E9EDF1E086E0DF011D928A95E9F72C967F
:102500000FB6F894DEBF0FBECDBFDF91CF911F9104
:102510000895EF92FF920F931F93CF93DF938C0157
:10252000892B09F46CC0F12CEE24E394E801219688
:10253000F8018491843740F4843008F051C0813030
:1025400081F0823019F15BC0853709F444C0A8F1ED
:102550009CE7980F903708F052C08F770E94E20BEB
:1025600041C00E5F1F4FFE01849190E2980F98309A
:1025700050F48770FE2D01C0FF0F8A95EAF78F2F68
:102580000E94111514C00E94380B2DC00E5F1F4F02
:10259000FE01849190E2980F983060F48770FE2DD0
:1025A00001C0FF0F8A95EAF78F2F0E9417150E942E
:1025B0003C1519C00E94E20B16C00E5F1F4FFE01B2
:1025C000C491CC2381F08FE99FE00197F1F700C01F
:1025D0000000C150F6CF0E5F1F4FFE01F49003C004
:1025E0000E94380B8E018F2D882309F49FCFEFE9CD
:1025F000FFE03197F1F700C000008150F5CFDF9187
:10260000CF911F910F91FF90EF9008950895089535
:102610000C9407130C9408130E940A13609315027C
:102620007093160280931702909318020C946B0C0F
:102630000C940C130F931F93009115021091160226
:102640002091170230911802602B712B822B932B53
:102650001F910F910C940C130F931F93009115026F
:1026600010911602209117023091180260237123F5
:10267000822393231F910F910C940C130F931F939C
:102680000091150210911602209117023091180244
:1026900060277127822793271F910F910C940C13A9
:1026A0000C9407130E94501360931102709312024E
:1026B00080931302909314020C946B0C60E070E012
:1026C000CB010C9452130F931F9341E050E060E054
:1026D00070E08A019B0104C0000F111F221F331FED
:1026E0008A95D2F7C901B8011F910F910C9452132A
:1026F0000F931F9341E050E060E070E004C0440F8E
:10270000551F661F771F8A95D2F78091110290910D
:102710001202A0911302B09114028A019B01082BAE
:10272000192B2A2B3B2BC901B8011F910F910C9437
:1027300052130F931F9341E050E060E070E004C03B
:10274000440F551F661F771F8A95D2F74095509505
:10275000609570958091110290911202A0911302E0
:10276000B09114028A019B01082319232A233B23D9
:10277000C901B8011F910F910C9452130F931F932D
:1027800041E050E060E070E004C0440F551F661F58
:10279000771F8A95D2F78091110290911202A09131
:1027A0001302B09114028A019B01082719272A27D6
:1027B0003B27C901B8011F910F910C9452130F933D
:1027C0001F93009111021091120220911302309177
:1027D0001402602B712B822B932B1F910F910C9461
:1027E00052130F931F930091110210911202209126
:1027F00013023091140260237123822393231F91CB
:102800000F910C9452130F931F930091110210918A
:10281000120220911302309114026027712782273F
:1028200093271F910F910C94521308952FE0929FBC
:10283000800D1124E82FE695E695E695877051E026
:1028400001C0550F8A95EAF785E0E89FF001112451
:10285000E152FE4F20E030E070E04081CB01022EDB
:1028600002C0969587950A94E2F781708195842736
:102870008523842781932F5F3F4F2530310569F7EA
:1028800008952FE0929F800D1124682F669566951C
:102890006695982F977085E0689FB001112440E0FD
:1028A00050E080E0FB01E40FF51FE152FE4F208174
:1028B00030E0092E02C0369527950A94E2F7217080
:1028C0003327042E01C0220F0A94EAF7822B4F5FB0
:1028D0005F4F4530510531F70895BF92CF92DF9297
:1028E000EF92FF920F931F93CF93DF938C01C090D1
:1028F0001102D0901202E0901302F0901402809125
:10290000150290911602A0911702B0911802C82AE0
:10291000D92AEA2AFB2ACFE1D0E0D701C6010C2E42
:1029200004C0B695A795979587950A94D2F780FD30
:1029300004C0219790F7B12C07C0BC2EB8018C2F92
:102940000E944F040197A9F38B2DDF91CF911F9126
:102950000F91FF90EF90DF90CF90BF900895CF93AD
:10296000DF93EC010E946D14BE010E944F04DF91C1
:10297000CF9108951F93CF93DF93EB019091A40122
:10298000992321F0CB010E94AF1413C0882349F092
:10299000CB010E946D14182F682FCE010E941614CF
:1029A00004C0CB010E944114182FBE01812F0E9448
:1029B0004F04DF91CF911F91089580911902859561
:1029C0008595859508958091190287700895909155
:1029D0001902977081E009F480E0089580913D022A
:1029E000089590913D02892B80933D020895809532
:1029F00090913D02892380933D02089510923D02FB
:102A0000089590913C02892B80933C020895809513
:102A100090913C02892380933C02089510923C02DD
:102A2000089590913B02892B80933B0208958095F5
:102A300090913B02892380933B02089510923B02C0
:102A4000089580911A02089508950C9424150C9409
:102A5000251590911A02981721F080931A020C9470
:102A60002715089580911A02882329F010921A02DE
:102A700080E00C9427150895E0910001F091010188
:102A800080913D028083E0910001F09101019081ED
:102A900080913C02892B8083E0910001F09101013B
:102AA000908180913B02892B808380911A02882338
:102AB00081F0E0910001F09101019081892B8083E8
:102AC00080910001909101010E94501681110E9495
:102AD000321580910001909101010C94C4090C946D
:102AE000241598E0899F90011124262B2093190228
:102AF0000E947813809119028595859585950C948F
:102B00006F151092190280E00C946F152091190234
:102B10008095822380931902982F977079F430E082
:102B2000482F082E000C550B2417350739F08595D2
:102B3000859585950E9499130C948115089580E0E0
:102B400090E00E943F2321E08C3E9E4F09F020E060
:102B5000822F089582E090E00C943723682F82E062
:102B600090E00C94452383E090E00C943723682F89
:102B700083E090E00C944523CF9384E090E00E94A2
:102B80003723C82F81E290E00E9437232C2F30E0BA
:102B9000A901582BCA01CF910895CF93C92F682F4F
:102BA00084E090E00E9445236C2F81E290E0CF9179
:102BB0000C944523AB01BC018FE090E00C945723AB
:102BC000AB01BC0183E190E00C94572360E070E01E
:102BD000CB010C94E01560E070E0CB010E94DA15A7
:102BE0000C94E6156CEE7EEF80E090E00E9463238B
:102BF00060E082E090E00E94452360E083E090E0A6
:102C00000E9445231092150210921602109217028C
:102C10001092180260E084E090E00E94452360E09A
:102C200081E290E00E94452360E085E090E00E9410
:102C3000452360E086E090E00E9445236FEF87E047
:102C400090E00E94452340E050E0BA0188E090E027
:102C50000E94572360E08DE090E00E94452340E011
:102C600050E0BA0188E190E00E94572360E087E1DC
:102C700090E00E94452340E050E0BA018CE190E0F2
:102C80000E94572360E080E290E00E9445230C946C
:102C9000EB150C94F215682F8EE090E00C94452310
:102CA000FC01329680911401882331F080918702D3
:102CB00087FF02C09EE101C096E080E0915028F0BD
:102CC00021912223D9F38F5FF9CF0895662351F123
:102CD000209114012223E9F02091870227FF19C0D7
:102CE000462F4695469546954E31E0F4677021E0B3
:102CF00030E002C0220F331F6A95E2F7FC01E40FB7
:102D0000F11D828190E02823392381E0232B69F48F
:102D100009C0FC01329608962191621729F0E81744
:102D2000F907D1F780E0089581E008959C01FC0146
:102D300032969FEF80E04191461789F09F3F19F44A
:102D4000411101C0982F8F5F8630A9F79F3F39F05E
:102D5000F901E90FF11D97FDFA9562830895089531
:102D60009C012A5F3F4FFC014281461301C0128241
:102D7000019682179307B9F70895262F2695269571
:102D800026952E3168F4FC01E20FF11D677021E0F9
:102D900030E001C0220F6A95EAF78281282B228356
:102DA0000895262F2695269526952E3170F4FC0140
:102DB000E20FF11D677021E030E001C0220F6A953B
:102DC000EAF7209582812823228308952091140117
:102DD000222329F02091870227FD0C94BD160C9424
:102DE000961620911401222329F02091870227FDB5
:102DF0000C94D1160C94B01620911401FC0132965B
:102E0000222331F08091870287FF02C08EE101C04A
:102E100086E0DF011D928A95E9F7089508950C94E4
:102E20000E170C940E17CF930E9411170E94A5063F
:102E30000E940F17C0E08C2F0E943E06892B29F4B8
:102E4000CF5FC530C1F780E001C081E0CF91089528
:102E50000C940E170C9428170E942A1780918D024B
:102E6000843049F110923F0220E488E190E00FB6EF
:102E7000F894A895809360000FBE2093600080E0D6
:102E80000E94DA030E942A1783B7817F846083BF80
:102E900083B7816083BF7894889583B78E7F83BF23
:102EA0000FB6F894A89580916000886180936000C7
:102EB000109260000FBE08950C940E170E94850CAE
:102EC0000E94B8090E94DA030C945C171F920F92BB
:102ED0000FB60F9211248F939F93AF93BF9380915E
:102EE0003F02811113C08091830290918402A091CE
:102EF0008502B09186024196A11DB11D8093830287
:102F000090938402A0938502B0938602BF91AF9103
:102F10009F918F910F900FBE0F901F90189582E098
:102F200084BD93E095BD9AEF97BD80936E000895A0
:102F30002FB7F8948091830290918402A09185022A
:102F4000B09186022FBF08959C014FB7F8948091ED
:102F5000830290918402A0918502B09186024FBFB6
:102F6000821B930B089578941F920F920FB60F92C5
:102F700011248F939F93AF93BF938091830290917D
:102F80008402A0918502B09186020196A11DB11D17
:102F90008093830290938402A0938502B09386026B
:102FA000BF91AF919F918F910F900FBE0F901F9087
:102FB000189581E08093E00080E28093D800109221
:102FC000C9008FE19EE40197F1F700C0000087E09F
:102FD00090EBDC018093960290939702A093980265
:102FE000B09399029CE088E10FB6F894A89580937D
:102FF00060000FBE90936000FFCFAF92BF92CF9260
:10300000DF92EF92FF920F931F93CF93C0E0CC24F7
:10301000C394D12CE82EF12C8C2F0E943E065C012B
:1030200000E010E0C601002E02C0880F991F0A942C
:10303000E2F78A219B21892B31F40F5F1F4F0F305C
:10304000110581F70AC0602F7C2F80E00E943404B4
:10305000E816F90691F781E004C0CF5FC530E1F6CC
:1030600080E0CF911F910F91FF90EF90DF90CF9074
:10307000BF90AF900895CF93C82F8CE20E94FD17A8
:10308000882321F08C2FCF910C94FD1780E0CF91F5
:103090000895CF930E949F15811102C00E94491686
:1030A000C5E6C15049F00E94A5068FE39CE901974F
:1030B000F1F700C00000F5CF89E20E943B188111B2
:1030C0002AC18AE20E943B1881110E94491685E0BC
:1030D0000E943B1881110E94D9170E94AA15809363
:1030E0003E0287E00E943B188823A9F18BE10E94F1
:1030F0003B18882351F080913E0281FB222720F962
:1031000091E0922790FB81F90EC08EE00E943B185F
:10311000882361F080913E0282FB222720F991E012
:10312000922790FB82F980933E0215C080E10E94B5
:103130003B1890913E02882341F093FB222720F90F
:1031400081E0822780FB93F904C0892F809580FB62
:1031500090F990933E0280913E020E94AE150E942B
:10316000BC15909388028093870280EE0E943B18E2
:10317000882341F080918702982F909590FB80F9E9
:103180008093870289E30E943B18882359F080913D
:10319000870281FB222720F991E0922790FB81F999
:1031A0008093870282EE0E943B18882359F0809119
:1031B000870282FB222720F991E0922790FB82F977
:1031C0008093870286EE0E943B18882359F08091F5
:1031D000870283FB222720F991E0922790FB83F955
:1031E0008093870283EE0E943B18882359F08091D8
:1031F000870284FB222720F991E0922790FB84F933
:103200008093870285E30E943B18882359F08091C0
:10321000870285FB222720F991E0922790FB85F910
:103220008093870281E30E943B18882359F08091A4
:10323000870286FB222720F991E0922790FB86F9EE
:103240008093870281E10E943B18882359F0809186
:10325000870287FB222720F991E0922790FB87F9CC
:103260008093870280918702909188020E94CD15F9
:1032700087E20E943B18C82F8EE10E943B18811103
:10328000C2608FE10E943B188111C46080E20E94FD
:103290003B188111C86081E20E943B188111C06116
:1032A00082E20E943B188111C06283E20E943B18B7
:1032B0008111C06484E20E943B18882311F0C06829
:1032C00002C0CC2329F08C2F0E94B7156C2F03C0AD
:1032D0000E94B315682F70E080E090E00E94181300
:1032E0006091110270911202809113029091140268
:1032F0000E9450138FE00E943B18882319F081E050
:103300000E944B1685E10E943B18882321F080E043
:10331000CF910C944B16CF9108958091460280FF77
:103320000BC06091070185E0689FB001112475957D
:103330006795759567952BC081FF09C0609107015E
:1033400085E0689FB00111247595679520C082FFC4
:1033500007C06091070185E0689FB001112417C084
:10336000909145029923D1F060910601961788F754
:103370002091070185E0289F90011124929FA001D0
:10338000939F500D112470E0CA010E9409236038F8
:10339000710540F46115710519F406C065E070E02F
:1033A000862F08958FE7089581E008958091460261
:1033B00080FF08C06091030170E075956795759571
:1033C000679521C081FF06C06091030170E075958B
:1033D000679519C082FF04C06091030170E010C0BE
:1033E00090914402992399F0609102019617A0F7F9
:1033F00080910301899FC001112470E00E9409237C
:103400006038710540F46115710519F406C061E07A
:1034100070E0862F08958FE7089581E00895803F3A
:1034200021F40E948D19819504C0813F29F40E94E6
:103430008D1980934A020895823F21F40E948D19CC
:10344000819504C0833F29F40E948D19809349021D
:103450000895893F19F40E94D61905C08A3F31F4B6
:103460000E94D619819580934B0208958B3F21F4D9
:103470000E94D619819504C08C3F29F40E94D61968
:1034800080934C020895843F21F48091480281602A
:1034900017C0853F21F480914802826011C0863FA9
:1034A00021F48091480284600BC0873F21F4809111
:1034B0004802886005C0883F31F4809148028061ED
:1034C0008093480208958D3F21F4809146028160E7
:1034D0000BC08E3F21F480914602826005C08F3F71
:1034E00029F4809146028460809346020895803FCB
:1034F00039F480914A0287FF6AC010924A0267C07D
:10350000813F29F480914A021816BCF360C0909163
:103510004902823F29F497FF5AC01092490257C0CE
:10352000833F19F41916CCF352C090914B02893F96
:1035300031F419160CF04BC010924B0248C08A3F70
:1035400019F497FF44C0F8CF8B3F39F480914C02B7
:1035500087FF3DC010924C023AC08C3F29F4809105
:103560004C021816BCF333C0843F21F4809148020A
:103570008E7F17C0853F21F4809148028D7F11C056
:10358000863F21F4809148028B7F0BC0873F21F456
:1035900080914802877F05C0883F31F480914802BE
:1035A0008F7E8093480213C08D3F21F480914602A4
:1035B0008E7F0BC08E3F21F4809146028D7F05C027
:1035C0008F3F29F4809146028B7F80934602809141
:1035D0004902811106C080914A02811102C01092F5
:1035E000450280914B02811106C080914C028111ED
:1035F00002C01092440208950E9498172091490237
:10360000211104C020914A02222321F09093430209
:103610008093420220914B02211104C020914C0260
:10362000222321F0909341028093400287E492E0AC
:103630000C94DE09EF92FF920F931F93CF93DF93C9
:1036400000D000D000D0CDB7DEB786E0E7E4F2E0EE
:10365000DE01119601900D928A95E1F7E090490202
:10366000F0904A0200914B0210914C0210924902D4
:1036700010924A0210924B0210924C02E11003C0C9
:10368000FF2009F45DC080914202909143020E94A4
:10369000A417AC0190914502992339F020910801BB
:1036A00030E02417350758F04BC0209109018AE01B
:1036B000289F900111242417350718F041C09F3F1F
:1036C00019F09F5F90934502EE2061F00E948D19E2
:1036D0001E1414F09FEF01C091E0989F902D1124CB
:1036E00090934902FF2061F00E948D191F1414F07D
:1036F0009FEF01C091E0989F902D112490934A0272
:10370000309149023323E1F020914A022223C1F093
:1037100045EB3403C0011124992319F09093490219
:1037200003C081E08093490235EB2303C0011124DB
:10373000992319F090934A0203C081E080934A02D2
:10374000011103C0112309F45DC0809140029091E2
:1037500041020E94A417AC0190914402992339F0D0
:103760002091040130E02417350758F04BC0209118
:1037700005018AE0289F900111242417350718F0CD
:1037800041C09F3F19F09F5F90934402002361F076
:103790000E94D619101614F09FEF01C091E0989F77
:1037A000902D112490934B02112361F00E94D619A1
:1037B000111614F09FEF01C091E0989F902D1124F5
:1037C00090934C0230914B023323E1F020914C0254
:1037D0002223C1F045EB3403C0011124992319F0D1
:1037E00090934B0203C081E080934B0235EB23039F
:1037F000C0011124992319F090934C0203C081E079
:1038000080934C028091490281110BC080914A0241
:10381000811107C080914B02811103C080914C023D
:1038200081110E94FC1AEB82FC820D831E8386E0CC
:10383000FE013196A7E4B2E001900D928A95E1F77E
:1038400026960FB6F894DEBF0FBECDBFDF91CF91A5
:103850001F910F91FF90EF900895E7E4F2E086E06A
:10386000DF011D928A95E9F71092450210924402F9
:1038700010924602089580916D020895CF93DF93D0
:1038800000D01F92CDB7DEB790918D02943019F51C
:1038900089837B836A8382E08093E9008FEF909134
:1038A000E800815095FD06C095ED9A95F1F700006E
:1038B0008111F5CF8091E80085FF0DC040E050E018
:1038C00063E070E0CE0101960E946B1E8091E800DB
:1038D0008E778093E8000F900F900F90DF91CF913B
:1038E0000895BC0184E00C943E1CBC0183E00C9460
:1038F0003E1C22E02093E9002FEF3091E800215098
:1039000035FD06C035ED3A95F1F700002111F5CFF0
:103910002091E80025FF0BC040E050E066E070E039
:103920000E946B1E8091E8008E778093E8000895D6
:10393000CF93DF9320911401222339F02091870245
:1039400027FF03C060E222E002C068E021E020938C
:10395000E9002FEF3091E800215035FD06C035ED2C
:103960003A95F1F700002111F5CF2091E80025FFED
:103970001DC0EC0180911401811105C040E050E0B0
:1039800068E070E003C070E040E050E0CE010E94CB
:103990006B1E8091E8008E778093E80080E2FE0144
:1039A000ADE4B2E001900D928A95E1F7DF91CF91FD
:1039B000089580918C02811109C00E94FC1F0E9411
:1039C00059208091E20084608093E2000895109273
:1039D0008C020895089508950C945E1742E061ECFE
:1039E00081E00E94751F42E261EC82E00C94751F39
:1039F00080918F02833009F460C030F4813071F01F
:103A0000823009F499C008958A3009F485C08B305A
:103A100009F46BC0893009F0A7C020C080918E02E4
:103A2000813A09F0A1C08091E800877F8093E80087
:103A30008091920290919302892B21F460E28DE4AF
:103A400092E003C060E080E090E070E00E94B61E6B
:103A50008091E8008B778093E800089580918E0232
:103A6000813209F081C08091920290919302029775
:103A700008F07AC08091E800877F8093E800809109
:103A8000E80082FD05C080918D028111F8CF6CC0E5
:103A90002091F3008091F20090E0922B029729F49C
:103AA0008091F1008B7F813021F48091F10080932F
:103AB0006D028091E8008B7753C080918E02813A2D
:103AC00009F052C08091920290919302892B09F0E3
:103AD0004BC08091E800877F8093E8008091E800E8
:103AE00080FFFCCF8091140136C080918E0281321C
:103AF000D9F58091920290919302892BA9F580913A
:103B0000E800877F8093E8000E94AA1F80919002BE
:103B1000809314010C94850C80918E02813221F5E2
:103B20008091E800877F8093E8000E94AA1F80911F
:103B3000910280936E02089580918E02813AA1F4E1
:103B40008091E800877F8093E8008091E80080FF03
:103B5000FCCF80916E028093F1008091E8008E7717
:103B60008093E8000C94AA1F089584B7877F84BFD0
:103B70000FB6F894A89580916000886180936000EA
:103B8000109260000FBE90E080E80FB6F89480932A
:103B90006100909361000FBE0E94280A0E94FC1FE2
:103BA0000E9459208091E20084608093E200789422
:103BB0000E94EE220E94320A8AE091E00E94B3093C
:103BC00080918D02853069F40E942C1780918B02C0
:103BD0008823B1F30E941317882391F30E94551E86
:103BE000EFCF0E943A0AECCF0C94F61D292F332711
:103BF00023303105C9F060F42130310581F02230E5
:103C0000310509F04AC08BE390E028EA34E049C06E
:103C10002132310511F12232310579F13EC082E1C4
:103C200090E023EE34E03DC099278130910561F0AA
:103C300040F08230910559F0039779F5E0E8F4E01F
:103C400008C0E4EAF4E005C0E2E9F4E002C0E6E816
:103C5000F4E0849190E09F0124C06115710541F06A
:103C600061307105D1F489E090E023ED34E019C0B2
:103C700089E090E02AEB34E014C06115710541F051
:103C80006130710551F48CEB90E025EF34E009C010
:103C900080E490E021EB35E004C080E090E020E09B
:103CA00030E0FA0131832083089580E189BD82E10B
:103CB00089BD09B400FEFDCF8091D8008F7D80932F
:103CC000D8008091E00082608093E0008091E00065
:103CD00081FDFCCF0895CF92DF92EF92FF920F9378
:103CE0001F93CF93DF93EC018B017A010E94C91FD0
:103CF000811133C0E114F10439F0F7018081918121
:103D0000081B190BC80FD91FC12CD12C0115110587
:103D100019F18091E80085FD16C08091E8008E774A
:103D20008093E800E114F10449F0F701808191816A
:103D3000C80ED91ED182C08285E00FC00E94C91F63
:103D4000882321F30AC089918093F1000150110961
:103D5000FFEFCF1ADF0ADACF80E0DF91CF911F911A
:103D60000F91FF90EF90DF90CF90089520919402F3
:103D7000309195022617370748F06115710539F41F
:103D80002091E8002E772093E80001C0B901FC01E2
:103D900020E06115710579F180918D028823F1F1A0
:103DA0008530F1F18091E80083FD3CC08091E8000E
:103DB00082FD2EC08091E80080FFEBCF2091F300C0
:103DC0008091F20090E0922B6115710551F08830DE
:103DD000910538F421912093F10061507109019609
:103DE000F3CF21E0089709F020E08091E8008E777A
:103DF0008093E800CECF2111CFCF0AC080918D02F1
:103E0000882361F0853061F08091E80083FD0AC06D
:103E10008091E80082FFF2CF80E0089582E008956B
:103E200083E0089581E008952091940230919502F5
:103E30002617370748F06115710539F42091E8001D
:103E40002E772093E80001C0B901FC0120E0611544
:103E5000710591F180918D02882309F440C085306D
:103E600009F43FC08091E80083FD3DC08091E800E7
:103E700082FD2FC08091E80080FFE9CF2091F30000
:103E80008091F20090E0922B6115710559F0883015
:103E9000910540F424912093F1003196615071090D
:103EA0000196F2CF21E0089709F020E08091E80028
:103EB0008E778093E800CBCF2111CCCF0AC08091C0
:103EC0008D02882361F0853061F08091E80083FDE8
:103ED0000AC08091E80082FFF2CF80E0089582E07E
:103EE000089583E0089581E00895982F973068F54C
:103EF0009093E900981739F07091EC002091ED0053
:103F00005091F00003C0242F762F50E021FD02C015
:103F10009F5FECCF3091EB003E7F3093EB00309110
:103F2000ED003D7F3093ED003091EB003160309338
:103F3000EB007093EC002093ED005093F000209183
:103F4000EE0027FDE5CF80E008958F708093E900B3
:103F500081E0089580918E0287FF11C08091E80072
:103F600082FD05C080918D028111F8CF11C0809132
:103F7000E8008B770BC080918D02882349F08091F7
:103F8000E80080FFF8CF8091E8008E778093E8000A
:103F900008952091E4003091E50095E64091EC0011
:103FA000842F817040FF23C08091E80080FD1DC0F8
:103FB00080918D02882399F0853099F08091EB00F3
:103FC00085FD11C04091E4005091E50024173507AC
:103FD00029F3915011F09A01E1CF84E0089582E035
:103FE000089583E0089581E0089580E00895409168
:103FF000E80042FFDDCF08950E946A200E947220EF
:10400000E0EEF0E0808181608083E8EDF0E0808187
:104010008F77808319BCA7EDB0E08C918E7F8C9355
:1040200080818F7E808310928C0208950F931F935E
:10403000CF93DF930E946A200E947220C8EDD0E0E7
:1040400088818F77888388818068888388818F7D45
:10405000888319BC10928D021092890210928B02F3
:1040600010928A0200EE10E0F80180818B7F80833D
:1040700088818160888342E060E080E00E94751F53
:10408000E1EEF0E080818E7F8083E2EEF0E08081DF
:1040900081608083808188608083F80180818E7F49
:1040A0008083888180618883DF91CF911F910F91F8
:1040B0000895E8EDF0E080818F7E8083E7EDF0E009
:1040C00080818160808384E082BF81E080938C0264
:1040D0000C941620E8EDF0E080818E7F80831092B2
:1040E000E20008951092DA001092E10008951F9204
:1040F0000F920FB60F9211242F933F934F935F931C
:104100006F937F938F939F93AF93BF93EF93FF939F
:104110008091E10082FF0BC08091E20082FF07C026
:104120008091E1008B7F8093E1000E94ED228091DD
:10413000DA0080FF1FC08091D80080FF1BC08091F3
:10414000DA008E7F8093DA008091D90080FF0DC065
:1041500080E189BD82E189BD09B400FEFDCF81E027
:1041600080938D020E94D91C05C019BC10928D024B
:104170000E94E71C8091E10080FF19C08091E2005D
:1041800080FF15C08091E2008E7F8093E2008091D5
:10419000E20080618093E2008091D8008062809389
:1041A000D80019BC85E080938D020E94EB1C8091A1
:1041B000E10084FF30C08091E20084FF2CC080E1E8
:1041C00089BD82E189BD09B400FEFDCF8091D80090
:1041D0008F7D8093D8008091E1008F7E8093E100F5
:1041E0008091E2008F7E8093E2008091E200816006
:1041F0008093E20080918902882311F084E007C057
:104200008091E30087FD02C081E001C083E08093DC
:104210008D020E94EC1C8091E10083FF29C08091F7
:10422000E20083FF25C08091E100877F8093E10059
:1042300082E080938D02109289028091E1008E7F4E
:104240008093E1008091E2008E7F8093E200809174
:10425000E20080618093E20042E060E080E00E9442
:10426000751F8091F00088608093F0000E94EA1C26
:10427000FF91EF91BF91AF919F918F917F916F913E
:104280005F914F913F912F910F900FBE0F901F9014
:1042900018951F920F920FB60F9211242F933F93F0
:1042A0004F935F936F937F938F939F93AF93BF933E
:1042B000CF93DF93EF93FF93C091E900CF7080918C
:1042C000EC00D82FD17080FDD0E81092E9008091E9
:1042D000F000877F8093F00078940E948D211092E7
:1042E000E9008091F00088608093F000CD2BCF70C2
:1042F000C093E900FF91EF91DF91CF91BF91AF9112
:104300009F918F917F916F915F914F913F912F91ED
:104310000F900FBE0F901F9018951F93CF93DF93B0
:10432000CDB7DEB7AA970FB6F894DEBF0FBECDBFEC
:10433000EEE8F2E08091F100819322E0E639F207A5
:10434000C9F70E94F81C8091E80083FF2EC180917C
:104350008E0290918F02492F50E04A30510508F0AB
:1043600024C1FA01EC58FF4F0C941D23803821F032
:10437000823809F01AC108C080918A0290918B029C
:10438000992389F082600FC0809192028F708730EC
:1043900008F00BC18093E9008091EB0085FB882732
:1043A00080F91092E9009091E800977F9093E800DF
:1043B0008093F1001092F100D1C0282F2D7F09F0D9
:1043C000F4C0882319F0823061F0EFC08091900230
:1043D000813009F0EAC0933009F080E080938B02CD
:1043E0002EC08091900281112AC0809192028F701C
:1043F0002FEF280F263008F0D8C08093E9002091D5
:10440000EB0020FF1CC0933021F48091EB00806210
:1044100014C09091EB0090619093EB0021E030E0AC
:10442000A90102C0440F551F8A95E2F74093EA00A4
:104430001092EA008091EB0088608093EB0010926C
:10444000E9008091E800877F8093E8000E94AA1F1E
:10445000ACC08111AAC0109190021F778091E30037
:104460008078812B8093E3008091E800877F8093A0
:10447000E8000E94AA1F8091E80080FFFCCF809195
:10448000E30080688093E300111102C082E001C064
:1044900083E080938D0289C08058823008F085C007
:1044A00080919002909191028C3D53E0950779F5AF
:1044B00083E08A838AE289834FB7F894DE011396FA
:1044C00020E03EE051E2E32FF0E050935700E4910A
:1044D00020FF03C0E295EF703F5FEF708E2F90E0FA
:1044E000EA3010F0C79601C0C0968D939D932F5F60
:1044F000243149F74FBF8091E800877F8093E8001F
:104500006AE270E0CE0101960E94B61E16C060916C
:10451000920270919302AE014F5F5F4F0E94F41DB3
:10452000BC01892B09F441C09091E800977F9093DA
:10453000E80089819A810E94141F8091E8008B779E
:104540008093E80032C0803881F58091E800877F51
:104550008093E800809189028093F1008091E800C7
:104560008E7772CF811121C080919002909191023B
:1045700099270297D4F48091E800877F8093E80020
:1045800080919002809389020E94AA1F80918902E3
:10459000811106C08091E30087FD02C081E001C067
:1045A00084E080938D020E94EE1C8091E80083FFDE
:1045B0000AC08091E800877F8093E8008091EB003B
:1045C00080628093EB00AA960FB6F894DEBF0FBE10
:1045D000CDBFDF91CF911F9108950895CF93809122
:1045E0008D028823A1F0C091E900CF709091EC007A
:1045F000892F817090FD80E8C82B1092E90080918E
:10460000E80083FD0E948D21CF70C093E900CF9117
:10461000089597FB072E16F4009407D077FD09D074
:104620000E94232307FC05D03EF4909581959F4F6F
:104630000895709561957F4F0895EE0FFF1F0590C7
:10464000F491E02D0994AA1BBB1B51E107C0AA1FDE
:10465000BB1FA617B70710F0A61BB70B881F991F23
:104660005A95A9F780959095BC01CD010895F999C7
:10467000FECF92BD81BDF89A992780B50895A8E133
:10468000B0E042E050E00C946B23262FF999FECF66
:1046900092BD81BDF89A019700B4021639F01FBA95
:1046A00020BD0FB6F894FA9AF99A0FBE08950396B2
:1046B000272F0E9446230E944523252F0E94462330
:1046C000242F0C9446230196272F0E9446230C94F6
:1046D0004523DC01CB01FC01F999FECF06C0F2BDF8
:1046E000E1BDF89A319600B40D9241505040B8F7B0
:0646F0000895F894FFCFCD
:1046F6001B022808641E140A321E3B1C981C791CD7
:10470600751C711C01E200E900EA00B500B600B7AD
:1047160000CD008301CC008A01920194012102237D
:104726000224022502260227022A02B300B4006FE1
:10473600007000818283F0F1C667663794313035A8
:1047460034979633F49091929395E200E900EA004B
:10475600B500B600B700CD008301CC008A019201F6
:1047660094012102230224022502260227022A029C
:0C477600B300B4006F007000818283006B
:00000001FF
