:100000000C94C0020C9407030C9407030C94070390
:100010000C9407030C9407030C9407030C94070338
:100020000C9407030C9407030C94C8220C949A2395
:100030000C94B7190C9407030C9407030C94070352
:100040000C9407030C9407030C9407030C94070308
:100050000C9407030C94041A0C9407030C940703E4
:100060000C9407030C9407030C9407030C940703E8
:100070000C9407030C9407030C9407030C940703D8
:100080000C9407030C9407030C9407030C940703C8
:100090000C9407030C9407030C9407030C940703B8
:1000A0000C9407030C9407030C94070324032D03FB
:1000B00033039903C203F4030F0442046704820468
:1000C000D904EE040305B1045A035905B6058005A9
:1000D000E80EE80EFA0EFA0EF10EFA0EFA0EFA0E0D
:1000E000E80EE80EF60EFA0EFA0EF60E3C0F3C0F76
:1000F000700F700FC00FDC0F06110611E70F821092
:1001000095109510F61006110611FF1007242E24E5
:1001100026252E2426257A249D242625F42403250D
:10012000375D1E002A5D2000210022002B5D2C5D22
:100130002D5D2E5D2F5D305D315D0000395D2B0042
:10014000000014001A000800150017001C00180019
:100150000C0012001300325D335D345DE0000000DE
:1001600004001600070009000A000B000D000E0035
:100170000F00355D365D28000000E10000001D0025
:100180001B000600190005001100100036003700A2
:1001900038000000E5000351E000E30000008B643C
:1001A0002C0000002C0000002C0000008A74E700E6
:1001B0000000F500E400165C1E001F002000210076
:1001C0002200230024002500260027002D002E00F9
:1001D00000002A002B00000014001A00080015007F
:1001E00017001C0018000C00120013002F00300034
:1001F0003100E000000004001600070009000A00BA
:100200000B000D000E000F0033003400280000002A
:10021000E10000001D001B00060019000500110090
:1002200010003600370038000000E5000251E00001
:10023000E3000000E2002C0000002C0000002C0075
:100240000000E600E7000000F500E40035003A0099
:100250003B003C003D003E003F00400041004200AA
:1002600043004400450000004C0001000000010074
:100270000100010001000100010001004600460CE0
:1002800000005200000001000451000001000100C4
:10029000010001000100010001004A004B00500074
:1002A0004F000100000001000000010001000100FA
:1002B00001000100010001004D004E00510000004E
:1002C0000100010001000100000001002C000000FD
:1002D0002C0000002C0000000100010000000100C3
:1002E00001002F023A003B003C003D003E003F0071
:1002F00040004100420043004400450000004C0023
:1003000001000000F400F000F500F9000100010018
:1003100001004600460C0000520000003500045168
:100320000000F200F100F300FA00010001000100FA
:100330004A004B0050004F0001000000E1000000A7
:1003400001000100010001000100010001004D0059
:100350004E005100000001000100010001000000FA
:1003600001002C0000002C0000002C000000010007
:100370000100000001000100005C295D285D3C00D7
:100380003D003E003F004000410042004300440069
:10039000450000004C0001000000010001000100C8
:1003A00001000100010001004600010000005200B0
:1003B0000000350001000000010001000100010003
:1003C0000100010001004A004B0050004F000100F5
:1003D0000000E10000000100010001000100010037
:1003E000010001004D004E0051000000010001001D
:1003F00001000100000001002C0000002C000000A2
:100400002C000000010001000000010001000403B5
:10041000300000000A0344005A003600300000009B
:1004200010034B0042004400460061006E00730060
:1004300000000403090409023B00020100A0FA09BC
:100440000400000103010100092111010001224003
:10045000000705810308000A0904010001030000E8
:100460000009211101000122BC00070582032000C0
:100470000A12011001000000085A44602201000124
:1004800002030105010902A10185020901A100057C
:1004900009190129051500250195057501810295A8
:1004A00001750381010501093009311581257F9509
:1004B000027508810609381581257F950175088127
:1004C00006050C0A38021581257F950175088106FD
:1004D000C0C005010980A101850319012AB70015D3
:1004E0000126B700950175108100C0050C0901A116
:1004F00001850419012AA002150126A002950175A3
:10050000108100C005010906A1018505050719E054
:1005100029E71500250195087501810205071900D5
:1005200029EF1500250195F07501810205081901D3
:100530002905950575019102950175039101C00585
:10054000010906A101050719E029E7150025019514
:1005500008750181029501750881010507190029B7
:10056000FF150026FF009506750881000508190192
:100570002905950575019102950175039101C0004A
:1005800011241FBECFEFDAE0DEBFCDBF04B603FEFD
:1005900027C08091980290919902A0919A02B091FF
:1005A0009B028730904BA740B04BD1F41092980239
:1005B0001092990210929A0210929B0214BE84B774
:1005C000877F84BF0FB6F894A895809160008861FA
:1005D00080936000109260000FBEE0E0F8E30995A0
:1005E00011E0A0E0B1E0E8E9FBE402C005900D9263
:1005F000AC38B107D9F722E0ACE8B1E001C01D92F8
:10060000A839B207E1F70E9406200C94CA250C9481
:100610000000229A2A9A08950E94A2080C940903C5
:1006200081FF02C02A9801C02A9A0C942606CF9313
:1006300088529D458231910508F098C2DB018A5AA3
:100640009F4FFC010C946E2512968C91882319F013
:1006500080E00E940806C0E08AC212968C9188232E
:10066000D1F381E0F6CF12968C91882309F446C02D
:100670000E943F178695817080938D010E943F17DD
:1006800091E0282F207285FF90E090938C0180915B
:100690008D01811103C0211104C02EC081EE0E9482
:1006A000330E80918C01882319F085EE0E94330E61
:1006B0008FE265C012968C91882309F4EBC10E94E9
:1006C0003F178695817080938D010E943F1791E0BE
:1006D000282F207285FF90E090938C01C0918D01AE
:1006E000C111CFC1222309F4D0C180918C0188238C
:1006F00019F085EE0E94890D8FE141C080918D0136
:10070000811104C0C0918C01CC2389F08FE20E943A
:10071000330E80918D01882319F081EE0E94890D9E
:1007200080918C01882309F496CF85EE28C08FE153
:100730001AC212968C91882309F43DC00E943F177B
:100740008695817080938D010E943F1791E0282F3C
:10075000207285FF90E090938C0180918D01811132
:1007600003C0211104C025C081EE0E94330E809188
:100770008C01882319F085EE0E94330E8EE20E94D0
:10078000890D69CF12968C918823F9F00E943F174A
:100790008695817080938D010E943F1791E0282FEC
:1007A000207285FF90E090938C01C0918D01CC2345
:1007B00091F083E2E4CF80918D01811104C080919A
:1007C0008C01882331F08EE2A2CF80918D018823A5
:1007D00029F083E2C1C02111ECCF5AC1C0918C0134
:1007E000C111F7CF84E2BFC11296CC91CC2381F125
:1007F0000E943F178695817080938D010E943F175C
:1008000091E0282F207285FF90E090938C018091D9
:100810008D01811102C02223C9F084E3B0CF12966A
:100820008C918823F9F00E943F1786958170809300
:100830008D010E943F1791E0282F207285FF90E0E4
:1008400090938C0180918D01882391F085E297CF60
:1008500080918D01811104C080918C01882331F039
:1008600084E381C180918D01882331F085E274C0D9
:100870002111ECCF86E283CF80918C018111F6CFDC
:1008800086E26AC012968C918823B9F00E943F17C5
:100890008695817080938D010E943F1791E0282FEB
:1008A000207285FF90E090938C01C0918D01C11161
:1008B000E1CF2111DFCF87E243C080918D0181110B
:1008C000DFCFC0918C01C111DBCF87E24CC1129602
:1008D0008C918823C1F10E943F1786958170809387
:1008E0008D010E943F1791E0282F207285FF90E034
:1008F00090938C01C0918D01C11102C02223F9F0A7
:1009000087E83DCF12968C91882309F446C00E9457
:100910003F178695817080938D010E943F1791E06B
:10092000282F207285FF90E090938C01C0918D015B
:10093000C11131C021112FC081EE0E94890D8DE2BD
:100940000E94890D14C180918D01811104C0C09154
:100950008C01CC2321F087E80E94330E7CCE8DE2FF
:1009600002C112968C91882309F480C00E943F171F
:100970008695817080938D010E943F1791E0282F0A
:10098000207285FF90E090938C0180918D01811100
:1009900061C0211162C083E3F2CE80918D0181118B
:1009A00004C0C0918C01CC2311F083E3D5CF8DE23C
:1009B0007CC01296CC91CC2379F00E943F1786958B
:1009C000817080938D010E943F1785FB882780F9F5
:1009D00080938C0180E3D3CE80E3C5C01296CC9186
:1009E000CC2379F00E943F178695817080938D010A
:1009F0000E943F1785FB882780F980938C0182E352
:100A0000BECE82E3B0C01296CC91CC23C1F00E943E
:100A10003F178695817080938D010E943F1791E06A
:100A2000282F207285FF90E090938C0180918D019A
:100A3000811103C0222309F463CF89E8A0CE8091FD
:100A40008D01811105C080918C01882309F483CF29
:100A500089E889C081EE0E94330E80918C01882341
:100A600009F4DBCE85EE0E94330ED7CE80918D0146
:100A7000811105C080918C01882309F496CF84E30D
:100A800046CE81EE0E94890D30CE81EE0E94890D06
:100A900084E256CF80918D01811104C0C0918C01F8
:100AA000CC2311F08FE133CE84E20E94330E81EE2D
:100AB0005AC01296CC91CC23B9F00E943F1786956C
:100AC000817080938D010E943F1791E0282F207242
:100AD00085FF90E090938C01C0918D01C1114ECEA5
:100AE00021114CCE89E22CCF80918D01811104C05F
:100AF00080918C01882311F08EE235C089E233C0E9
:100B000012968C91882321F10E943F17869581705F
:100B100080938D010E943F1791E0282F207285FF5E
:100B200090E090938C01C0918D01C11103C02111FF
:100B300004C00CC081EE0E94330E80918C0188238A
:100B400019F085EE0E94330E8CE419CE8AE2F8CEBD
:100B500080918D01811104C0C0918C01CC2311F0D2
:100B60008CE4D5CD8AE20E94330E01C0C1E08C2F07
:100B7000CF91089581E008950C94170308950C9483
:100B8000BE051F93CF93DF9300D000D01F92CDB747
:100B9000DEB749835A836B833091A60189819A819C
:100BA000311114C0662359F0222349F00E94BE1669
:100BB000182F682F89819A810E94671603C00E94AE
:100BC0009216182F69817A81812F04C00E94BE1667
:100BD00069817A810F900F900F900F900F90DF91A5
:100BE000CF911F910C948506FC01262F40815181E5
:100BF0006281738184810C94C105CF93DF93EC01F2
:100C000060E00E94F405BE01DF91CF910C94BF0516
:100C1000CF93DF9361E070E0EB0102C0CC0FDD1FEA
:100C20008A95E2F78C2F0E940818BE0180E090E0C0
:100C3000DF91CF910C9469150E94F017811102C0C9
:100C40000E949A180C940C030C94A008089581E05B
:100C500008950C942706CF93C82F0E9410038C2F61
:100C60000E942906CF91089508950E94D60E0E94F1
:100C700034062FEF84E39CE0215080409040E1F760
:100C800000C000000C942A1A0F931F93CF93DF9398
:100C9000EC0161E00E94F4058C01BE010E94BC05DC
:100CA000882349F1BE01C8010E94560A882319F120
:100CB000BE01C8010E94A80A8823E9F0BE01C8014C
:100CC0000E94D30B8823B9F08A81882369F001152B
:100CD0008CE5180731F00E3D1C4531F40E949A183E
:100CE0000AC00E94350607C0CE01DF91CF911F9147
:100CF0000F910C94BA0580E0DF91CF911F910F9175
:100D0000089580E090E0089508952BE4829FC0014B
:100D10001124FC012FE0729FE00DF11D1124E60F5C
:100D2000F11DEE0FFF1FE05EFE4F85919491089537
:100D3000880F991FFC01E25FFB4F85919491089504
:100D4000CF93DF930E9485060E94B807EC018115BE
:100D5000904508F041C0C11580E4D80708F0D1C023
:100D6000C83ED10510F5C03ED10508F0FDC0C83A17
:100D7000D10578F4C53AD10508F0A2C0C130D1053B
:100D800009F4F2C008F4EEC0C430D10508F0ECC09C
:100D9000E9C0CF3BD10508F49BC0C03CD10508F4A5
:100DA000E1C0CE01805C91099EC0C11590E2D907D7
:100DB00058F4C11521E0D20708F0D6C0C03FD105D4
:100DC00008F4D0C0D065D0C0C11580E3D80708F0C2
:100DD0008EC0CE019F7087C0C11595E5D90708F078
:100DE00043C0C11524E5D20708F0A2C0C11582E5B1
:100DF000D80708F5C11591E5D90708F085C0CE01DF
:100E000074E0969587957A95E1F783709C2F93709F
:100E100021E030E002C0220F331F9A95E2F73C68D0
:100E2000382BCF70C695C69580E2C89FE00111248B
:100E3000C22BD32B99C09E01237033278C2F86950C
:100E40008695C115D34508F064C0C1E0D0E002C06A
:100E5000CC0FDD1F2A95E2F720E2829FC00111240A
:100E6000C82BD92BDC6880C0C11529E5D207A0F4B6
:100E7000C11588E5D80708F060C0C11596E5D90707
:100E800008F070C08C2F0E944C088F71C82FD0E0E2
:100E9000DC2FCC27D06268C0C1152AE5D20708F440
:100EA00051C0CE0190568115904208F05BC08D2F45
:100EB0008F710E944C08DD27D0628F71D82B54C0EF
:100EC000C55AD0E0CD5BDE4FC881D0E0D0644CC0C5
:100ED000C85AD0E0CC0FDD1FCB5EDE4F0990D88121
:100EE000C02DD46441C00E949806EC013DC0CE01E3
:100EF0009927D3FF03C0EC01D86C36C0EC01D06C4D
:100F000033C0DF70D06A30C0DC2FCC27C16FD06A0D
:100F10002BC0C1E0D0E002C0CC0FDD1F2A95E2F764
:100F200020E2829FC0011124C82BD92BDA681CC093
:100F3000DC2FCC27C46FD06A17C0DC2FCC27C06F42
:100F4000D06A12C08C2F8F700E944C0894E0D69506
:100F5000C7959A95E1F7CF70D0E0DC2FCC27D06908
:100F6000C82B02C0C0E0D0E0CE01DF91CF91089540
:100F70008238910569F1B0F48133910509F46DC0AF
:100F800048F48932910509F463C08A32910509F465
:100F900069C008958533910509F455C089339105D9
:100FA000B9F00895833E910569F138F4803E9105CA
:100FB000B1F0823E910509F10895863E9105A9F1AF
:100FC000873E9105B9F1843E910509F064C023C0C4
:100FD0002091890220FD4FC021FD4DC008958091D0
:100FE000890280FD44C080918A0280FF44C08091C4
:100FF000890284FD42C083EE4DC08091890282FF48
:1010000038C0F5CF8091890282FD33C080918A0279
:1010100080FD31C0ECCF80918A0281FF32C0809187
:10102000890284FD2AC087EE35C08091890283FF42
:1010300026C0F5CF8091890283FD21C080918A026C
:1010400081FD1FC0ECCF8091890285FD1CC01DC0B1
:101050008091890285FD19C016C08091890286FDA4
:1010600016C017C08091890286FD13C010C089E3A5
:1010700011C082EE0FC080EE0DC080E00BC086EE86
:1010800009C084EE07C089E205C085E303C08AE297
:1010900001C081E390E008959091890292FF0DC014
:1010A000282F2871283019F4877F846006C0282FE4
:1010B0002471243011F48B7F886093FF0DC0282F9A
:1010C0002871283119F4877E846106C0282F247185
:1010D000243111F48B7E886120918A0220FF0DC09B
:1010E000382F3871383019F4877F816006C0382F67
:1010F0003171313011F48E7F886021FF0DC0282FAF
:101100002871283119F4877E816106C0282F21714A
:10111000213111F48E7E886194FD877E0895E82F39
:10112000F0E0EE0FFF1FE558FD4F8081918108959B
:10113000089580EA8A95F1F7089508950C949D0822
:101140000C949E080C949D08CF93DF93A5E5B1E025
:101150004AE551E061E070E08D91E82FE295EF7093
:10116000F0E021A18F70EB0102C0CC0FDD1F8A954A
:10117000E2F7CE019C2F9095922391A392A1892B07
:1011800082A34A175B0741F7A6E4B1E045E551E0C9
:1011900061E070E08D91E82FE295EF70F0E021A121
:1011A0008F70EB0102C0CC0FDD1F8A95E2F7CE01F4
:1011B0009C2F9095922391A392A1892B82A34A17E9
:1011C0005B0741F7E1E7F2E0ABE7B2E08BE792E0E3
:1011D000119211921D921D928E179F07C9F785E0FB
:1011E0000E948309DF91CF910C941C066F927F922D
:1011F0008F929F92AF92BF92CF92DF92EF92FF9227
:101200000F931F93CF93DF9385E5C82E81E0D82EEF
:1012100001E712E09BE7A92E92E0B92E712C8824F9
:101220008394912CF60181916F01C82FC295CF70E4
:10123000D0E099A18F70740101C0EE0C8A95EAF795
:10124000892F8E2989A38AA16E2C609486218AA376
:101250000E949908E6E4F1E040E050E020E030E050
:101260006191A62FA295AF70B0E090968C9190E01E
:101270006F7002C0959587956A95E2F780FD08C06A
:10128000C401042E02C0880F991F0A94E2F702C01D
:1012900080E090E0282B392B4F5F5F4F4F30510596
:1012A000F9F689A1682269A28AA1E82AEAA2F801CE
:1012B000808191812817390721F03183208381E0D3
:1012C00001C080E0782A0E5F1F4FA016B10609F01A
:1012D000A9CF272D45E06BE772E081E792E00E94FD
:1012E00084090E942406872DDF91CF911F910F91D1
:1012F000FF90EF90DF90CF90BF90AF909F908F9036
:101300007F906F9008950895FF920F931F93CF934E
:10131000DF93F82E092F162FD72FC42F222349F041
:1013200081E0809390010E94E91990938F0180934E
:101330008E01809190018823D9F080918E01909147
:101340008F010E94F519069798F0EF2DF02FA12F2D
:10135000BD2F80E090E04C2F50E08417950734F4C7
:10136000219131912D933D930196F7CF10929001E9
:10137000DF91CF911F910F91FF900895AF92BF928F
:10138000CF92DF92EF92FF920F931F93CF93DF9351
:101390007C015B01C42FD22FFC0182818823F9F0EC
:1013A000409393010E94E9199093920180939101D7
:1013B00080E28C0F883008F06EC0C77081E001C0F9
:1013C000880FCA95EAF7DF91CF911F910F91FF9097
:1013D000EF90DF90CF90BF90AF900C94AE0E8091C5
:1013E0009301481335C080919101909192010E9420
:1013F000F5196C01B701C5010E942914C816D90658
:1014000038F510E21D0FCD17B9F080E28C0F88304F
:1014100040F4C77081E001C0880FCA95EAF70E94C6
:10142000B50E183058F581E09D2F977001C0880FD8
:101430009A95EAF70E94AE0E802F0E949B0E1830FC
:1014400050F5D77081E001C0880FDA95EAF70AC03D
:1014500080E28C0F8830F8F4C77081E001C0880FFB
:10146000CA95EAF7DF91CF911F910F91FF90EF900E
:10147000DF90CF90BF90AF900C94B50E802FDF918E
:10148000CF911F910F91FF90EF90DF90CF90BF9081
:10149000AF900C949B0EDF91CF911F910F91FF9015
:1014A000EF90DF90CF90BF90AF9008950F939C0185
:1014B000CB01233F4CE5340731F188F4283DFCE5AE
:1014C0003F07D9F0293D4CE5340779F1273D3C45EC
:1014D000A9F506E221EE41EE67ED7CE52BC0253F44
:1014E000FCE53F07E1F0A8F0263F3C4539F507E26F
:1014F00025EE46EE66EF7CE51DC007E225EE45EEE3
:1015000068ED7CE517C006E221EE40EE63EF7CE576
:1015100011C007E225EE44EE64EF7CE50BC006E265
:1015200021EE42EE65EF7CE505C008E221E045EEE4
:1015300069ED7CE50E94BE0980E008C0FC01828163
:10154000882319F01092930101C081E00F91089552
:10155000CF93DF93EC01FB018281882309F41FC143
:10156000C230FCE5DF0708F41BC1C6319CE5D90792
:1015700038F09E012A5F3C452930310508F010C142
:101580000E940D1890938A0280938902C031ECE585
:10159000DE0709F4C3C008F041C0C8308CE5D807A5
:1015A00009F49AC0F0F4C430ECE5DE0709F487C012
:1015B00068F4C2308CE5D80709F477C0C330DC4545
:1015C00009F0E3C080918902826076C0C630ECE504
:1015D000DE0709F46EC008F07BC080918902886044
:1015E0006BC0CC308CE5D80709F485C068F4CA30EC
:1015F000ECE5DE0709F474C008F079C00E94D60E4D
:1016000080918902806858C0CE308CE5D80709F4F3
:1016100076C008F07FC0809189028BC0CB3FECE59B
:10162000DE0709F44FC018F5C3318CE5D80709F47B
:101630007DC078F4C131ECE5DE0709F473C0C23136
:10164000DC4509F0A2C00E94D60E809189028F77F6
:1016500033C0C5318CE5D80709F472C008F486C0E0
:10166000CA3FDC4509F091C080918A023EC0CF3F5D
:10167000FCE5DF0709F45FC058F4CD3F9CE5D907CE
:1016800009F444C008F43FC080918A0282602DC0F2
:10169000C130FDE5DF0709F475C008F45DC0C23054
:1016A000DD4509F072C080E06EC0809189028160E2
:1016B00003C08091890280618093890266C0809115
:1016C000890211C080918A02826080938A025DC083
:1016D000809189028062F0CF809189028064ECCF92
:1016E0008091890288608460E7CF8160EECF80912D
:1016F00089028E7FE1CF809189028D7FDDCF80913D
:101700008902877FD9CF80918A0218C080918A028E
:101710008D7FDBCF809189028F7ECECF8091890231
:101720008F7DCACF809189028F7BC6CF809189023D
:10173000877F8B7FC1CF80918A028D7F8E7FC5CFBF
:101740008091890282FB222720F991E0922790FB69
:1017500082F990FB83F9B0CF80918A02982F9095FF
:1017600091708E7F892B90FB81F9AFCF0E94D60EAE
:101770008091890287FB222720F991E0922790FB34
:1017800087F99ACF81E00E949C18809189029091FC
:101790008A020E941E180E94D60E80E001C081E0DD
:1017A000DF91CF910895CF93DF9386319C4541F52A
:1017B000EB010E943F17982F8A8120910001309100
:1017C0000101882379F09A7A81E009F480E080931E
:1017D0009401911102C069E201C065E3C9010E9450
:1017E00037190AC080919401811102C069E201C0D9
:1017F00065E3C9010E9442190E948D1780E001C073
:1018000081E0DF91CF91089590939A01809399019F
:101810000895E0919901F0919A01309721F001909B
:10182000F081E02D099480E00895E0919901F09114
:101830009A01309799F020911401222359F02091B8
:10184000890227FF07C0DC012C9111962C93119778
:1018500025E02C930280F381E02D09940895E09116
:101860009901F0919A01309739F022E0DC012C9334
:101870000480F581E02D099408952091970130911D
:1018800098012817390771F0909398018093970178
:10189000E0919901F0919A01309721F00680F7814B
:1018A000E02D099408952091950130919601281713
:1018B000390771F09093960180939501E091990119
:1018C000F0919A01309721F00084F185E02D099480
:1018D000089585B7806885BF85B7806885BF0895FE
:1018E00008950C94700C0C94710C0C94700C0C9466
:1018F000700C0E94690C0E94750C0C94730C81E0B2
:1019000008950C947F0C0E94E0190E94A4080E9484
:101910009A1A0C94770C7F928F929F92AF92BF92FB
:10192000CF92DF92EF92FF920F931F93CF93DF93AB
:10193000CDB7DEB72A970FB6F894DEBF0FBECDBF86
:101940000E94F6080E94810C811111C08FEF8983DB
:101950008A831B820E94E9198160782F9D838C8382
:1019600049815A816B818D810E943B0D4FC04CE9AA
:10197000A42E41E0B42E00E010E0702E802F0E94D3
:101980008F086C01F501819091905F01882699265E
:101990008114910431F40F5F1F4F0530110569F771
:1019A000D5CF8091400281FD0E94980880E0EE240E
:1019B000E394F12C94012E213F21232B09F18E83F6
:1019C0007F82CE20DF2081E0CD2809F480E0888767
:1019D0000E94E9198160782F9A8789874E815F81FB
:1019E00068858A850E943B0D000F111FF801E4569F
:1019F000FE4F80819181E826F926F182E08206C0BF
:101A00008F5FEE0CFF1C8F30A9F6C5CF0E946B1DB7
:101A10000E94090C90919B018917C9F00E94090C42
:101A200080939B012A960FB6F894DEBF0FBECDBF00
:101A3000DF91CF911F910F91FF90EF90DF90CF90AA
:101A4000BF90AF909F908F907F900C942B062A961A
:101A50000FB6F894DEBF0FBECDBFDF91CF911F91BF
:101A60000F91FF90EF90DF90CF90BF90AF909F903D
:101A70008F907F900895CF93DF93CDB7DEB72B97EC
:101A80000FB6F894DEBF0FBECDBF942F4F83252F26
:101A9000588769877A878B874A855B85452B31F024
:101AA0002F3F31F481E09F3F19F403C081E001C072
:101AB00080E080FD09C08091A7019091A801019666
:101AC0009093A8018093A701DE01119686E0FD01A5
:101AD00011928A95E9F785E0FE01379601900D9203
:101AE0008A95E1F749815A816B817C818D819E8144
:101AF0000E942C142B960FB6F894DEBF0FBECDBFFC
:101B0000DF91CF910895FC01808191810E9400179F
:101B10000895CF93882309F4A4C0C82F8238C1F454
:101B20000E94090C81FD9DC069E3809100019091A4
:101B300001010E9437190E948D172FEF81EE94E06A
:101B4000215080409040E1F700C0000069E319C0D7
:101B5000833801F50E94090C80FD83C063E5809104
:101B60000001909101010E9437190E948D172FEFFB
:101B700081EE94E0215080409040E1F700C00000E9
:101B800063E580910001909101010E944219CF917B
:101B90000C948D178438C1F40E94090C82FD61C039
:101BA00067E480910001909101010E9437190E9421
:101BB0008D172FEF81EE94E0215080409040E1F7A7
:101BC00000C0000067E4DDCF8CEF8C0F813AD0F4C9
:101BD0006C2F80910001909101010E94B718882319
:101BE00049F06C2F80910001909101010E944219EF
:101BF0000E948D176C2F80910001909101010E942D
:101C00003719C5CF80E28C0F883048F4C77081E067
:101C100001C0880FCA95EAF70E944217B8CFEBE5DA
:101C2000EC0FE33040F4F0E0E857FE4F808190E0A5
:101C3000CF910C943D0CE8E5EC0FE73150F4F0E067
:101C4000EE0FFF1FE65AFE4F80819181CF910C94D9
:101C5000530CC03F30F08C2F0E94601CCF910C942D
:101C60004D1DCF910895882309F464C0823879F41A
:101C70000E94090C81FF5EC069E380910001909190
:101C800001010E9437190E948D1769E310C0833843
:101C9000B1F40E94090C80FF4DC063E58091000102
:101CA000909101010E9437190E948D1763E5809180
:101CB0000001909101010E9442190C948D17843803
:101CC00079F40E94090C82FF35C067E4809100011D
:101CD000909101010E9437190E948D1767E4E7CFA8
:101CE0009CEF980F913A10F4682FE1CF90E2980F93
:101CF000983050F4877091E001C0990F8A95EAF707
:101D0000892F0E944817D9CF9BE5980F933020F474
:101D100080E090E00C943D0C98E5980F973120F40A
:101D200080E090E00C94530C803F20F00E94C81C8F
:101D30000C944D1D0895CF93C82F0E94890DC9336F
:101D400049F42FEF87EE93E0215080409040E1F777
:101D500000C000008C2FCF910C94330E882321F00B
:101D60000E9442170C948D170895882321F00E9439
:101D700048170C948D1708950E945F170E946F17E3
:101D80000E948D170E947E1E0E944D1D80E090E0F3
:101D90000E943D0C80E090E00C94530C8091000177
:101DA000909101010E944D190C94BC0E0E944F1796
:101DB0000C94CE0EE92FE295EF704E2F50E0FA0111
:101DC0003297EE30F105B0F4E859FF4F0C946E25D0
:101DD000803F91F018F4883E68F40EC0843F51F4BF
:101DE0000BC0883E48F0813F29F406C093FB88274A
:101DF00080F9089580E0089581E008950E94001719
:101E00000E94DA0E08958F929F92AF92BF92CF9266
:101E1000DF92EF92FF920F931F93CF93DF936C01AA
:101E2000EB01FC01058102950F70128111110E94D6
:101E30005F170E943817882399F0112389F08D2F9E
:101E4000807F803421F080E28C0F883048F082E07F
:101E50000E94D7170E94381791E0E82EE92601C0AA
:101E6000E12CBD2EB2942FE0B2228B2D90E0FC012C
:101E7000EA58FF4F0C946E259D2F9F708D2F807F09
:101E8000F92E19F0F29490EFF922112399F0FF2026
:101E900009F497C180E28C0F883010F0C11104C0A2
:101EA0008F2D0E94421703C08F2D0E9452170E944F
:101EB0008D1787C18C2F0E94330EFF2009F4A6C115
:101EC00080E28C0F883010F0C11104C08F2D0E9469
:101ED000481703C08F2D0E9458170E948D1796C176
:101EE0009D2F9F708D2F807FF92E803219F0F294F4
:101EF00080EFF822CC2319F0C130C9F022C01123A1
:101F000071F0002341F0013031F40E9472178F29E3
:101F10000E947A177BC10E9472178F291DC000236F
:101F200019F0013009F472C10E94831725C01123F2
:101F300021F0063008F06AC10EC0053008F066C115
:101F40001BC0112361F0002331F0F601858180FF71
:101F500038C18F7085838F2D0E94AE0E57C100232C
:101F600059F0C93309F03EC1FFEF27EE83E0F1508D
:101F700020408040E1F734C18F2D0E94B50E46C14C
:101F80008D2F86958695837019F0813059F03EC16A
:101F9000112319F0CE01937002C080E090E00E94FE
:101FA0003D0C3CC1112319F0CE01937002C080E0BA
:101FB00090E00E94530C32C18C2F112319F00E9423
:101FC000601C02C00E94C81C0E944D1D27C18D2F9D
:101FD000837009F048C011111DC12C2F2295269540
:101FE0002770220F220F6C2F6F70862F90E0A0E0D9
:101FF000B0E0022E04C0880F991FAA1FBB1F0A94CD
:10200000D2F7C4FF10C04FE050E060E070E004C0C1
:10201000440F551F661F771F2A95D2F7409550959C
:102020006095709503C040E050E0BA012D2F2695D1
:10203000269523704A015B01882A992AAA2ABB2A7D
:10204000C501B401223049F058F4213019F00E9442
:102050007D15E0C00E946B15DDC00E948F15DAC0AF
:102060000E946915D7C0112319F08D2F817001C00E
:102070008695882309F4CEC02C2F229526952770AB
:10208000220F220F6C2F6F70862F90E0A0E0B0E03F
:10209000022E04C0880F991FAA1FBB1F0A94D2F7F3
:1020A000C4FF10C04FE050E060E070E004C0440F97
:1020B000551F661F771F2A95D2F74095509560955A
:1020C000709503C040E050E0BA012D2F269526956B
:1020D00023704A015B01882A992AAA2ABB2AC501D2
:1020E000B401223049F058F4213019F00E94421610
:1020F00091C00E9430168EC00E9454168BC00E9460
:10210000A31588C02D2F2F70F22E112339F0822FA6
:102110000E94C9158C2F0E94AE0E7CC08C2F0E948D
:10212000B50E8F2D0E94EA1575C0C23F01F128F44B
:10213000C03F41F0C13FA1F040C0C33FF9F0C43FF0
:1021400039F13BC0112341F0053008F05FC08D2FFD
:102150008F710E940F165AC0063008F057C0F7CF93
:10216000112339F08D2F8F710E94C9154FC0112393
:10217000C9F38D2F8F710E94EA1548C0112329F0F1
:102180008D2F8F710E94B41541C00E94AF153EC0C3
:10219000112351F08D2F8F71F82E0E94C91563E025
:1021A0008F2D0E94C21732C081E00E94D7170230E3
:1021B00068F182E00E94D71729C0112331F0002373
:1021C00089F28C2F0E94890D21C0002391F2C9331E
:1021D00049F49FEFE7EEF3E09150E040F040E1F783
:1021E00000C000008C2F0E94330E10C04D2F4F7086
:1021F0006C2FC6010E9481060E94DA140FC04D2F79
:102200004F706C2FC6010E94840608C088EF8B0DAA
:10221000843020F40E94090C0E942B06CE010E94FB
:10222000DA0E811105C01092A8011092A70111C009
:10223000112319F00111F7CF0CC00111F4CF8091D7
:10224000A7019091A801029771F78C2F0E949B0E15
:10225000EACFEE20E9F00E94341780FD19C0F601A4
:1022600012820E942E170E94C915C6010E946D118C
:102270000E942E17DF91CF911F910F91FF90EF9049
:10228000DF90CF90BF90AF909F908F900C94EA1505
:10229000DF91CF911F910F91FF90EF90DF90CF9042
:1022A000BF90AF909F908F9008950F931F93CF93FF
:1022B000DF93EC01688179818A810E940B178C0180
:1022C0000E9466160E945715B801CE010E94030FA6
:1022D000DF91CF911F910F910895CF93DF93EC0180
:1022E000988189812B813C81232B31F08F3F31F400
:1022F00081E09F3F19F403C081E001C080E080FDD0
:1023000019C0CE010E94440681110CC00E943817EA
:10231000882381F08A81882369F082E0DF91CF9160
:102320000C94D717CE010E945511CE01DF91CF91A9
:102330000C94FD05DF91CF910895CF93DF9300D0EA
:1023400000D01F92CDB7DEB70F900F900F900F9077
:102350000F90DF91CF910895CF93DF9300D000D0FD
:1023600000D0CDB7DEB726960FB6F894DEBF0FBE0D
:10237000CDBFDF91CF9108951F93CF93DF93C0918D
:10238000A90116E08091AA01C81799F0D0E01C9F1E
:10239000F0011D9FF00D1124E555FE4F4081518144
:1023A00062817381848195810E94AC112196C770EE
:1023B000E9CFDF91CF911F9108954091DB015091BA
:1023C000DC016091DD017091DE018091DF0190916F
:1023D000E0010C94AC110F931F93CF93DF93809186
:1023E000E00182958F7009F05DC08091DD01882346
:1023F00009F458C08091A9011091AA016091DB01F4
:102400007091DC01C091DE01D091DF0191E06F3F5E
:1024100009F090E0292F06E0811709F443C02097C6
:1024200021F07F3F21F030E003C031E001C0322FC6
:1024300090E030FD34C0089FF001099FF00D112499
:10244000DF01A555BE4F11963C911197371327C058
:102450003C91361324C012963C91129731111FC043
:1024600013964D915C9114974C1B5D0B483C5105A4
:10247000B0F48091E0018F7080618093E001E055BD
:10248000FE4F80818F70806180838BED91E00E9490
:102490006D11DF91CF911F910F910C94BC1101969A
:1024A0008770BACFDF91CF911F910F9108959F92BE
:1024B000AF92BF92CF92DF92EF92FF920F931F9352
:1024C000CF93DF93CDB7DEB761970FB6F894DEBF39
:1024D0000FBECDBF8C0185E0F801DE011D96019095
:1024E0000D928A95E1F7F80140815181E280909147
:1024F000DB016091DC012091DE013091DF012115CB
:10250000310531F06F3F31F481E09F3F19F403C092
:1025100081E001C080E0F82FF1709F2E80FD46C160
:10252000F801A380B4808BEDC82E81E0D82EF09006
:10253000DD01F501E21BF30BFF2009F4DFC0809100
:10254000E001E83CF10508F09BC0282F207F09F04E
:1025500052C0561313C0491311C0FE2CE1100EC017
:102560008F7080618093E0010E94DD11C6010E949E
:102570006D118091E001F801858358C1AB2831F0DD
:102580005F3F31F481E04F3F19F403C081E001C0A7
:1025900080E080FD03C081E08E2502C080E090E0F5
:1025A000F82FF170FF2E80FF1CC08091A9012091AF
:1025B000AA0136E0821709F417C190E0389FF001B4
:1025C000399FF00D1124E555FE4F6181561306C069
:1025D0006081461303C06281E61203C001968770D2
:1025E000E9CFFE2CEE2009F421C18091E001816049
:1025F0008093E0015AC0561306C0491304C0E1108D
:1026000002C0F8019FC04D875E878D859E850E9420
:10261000FE0E882379F1EE2069F12091E001822FEE
:1026200082958F7090E0029774F08091DB01909119
:10263000DC0198878F831986BB86AA862C87CE01FA
:1026400007960E946D1186E0F801ABEDB1E00190B4
:102650000D928A95E1F70E94EB110E94DD110DC0E9
:10266000561729F14D875E878D859E850E94FE0E47
:1026700081112CC0C8010E946D11FF24F394D6C0B3
:10268000282F207F69F77A2DB98AA88A6E2D89892B
:102690000E949D118BED91E00E946D1186E0F60184
:1026A00011928A95E9F70E94DD11F12CBFC0491300
:1026B000D9CFE110D7CFF8018583C8010E946D11F1
:1026C00086E0F60111928A95E9F7B0C0EE2091F20A
:1026D0002091E001822F82958F7090E002970CF498
:1026E000B2CF8091DB019091DC019A8389831B82B8
:1026F000BD82AC822E83CE010196A3CFE83CF105CA
:1027000008F047C0FE2CEE2009F4B4CF561330C0B9
:1027100049132EC02091E00120FD21C0822F829517
:102720008F70482F50E041155105C9F0F8012583FD
:102730004F30510541F08F5F982F9295907F822FF7
:102740008F70892B8583C8010E946D1186E0F80186
:10275000ABEDB1E001900D928A95E1F742C086E0C1
:10276000F801ABEDB1E001900D928A95E1F75EC002
:102770004D875E878D859E850E94FE0E811163CFF9
:102780008091E00181608093E001C8010E946D1199
:102790004DC07A2DB98AA88A6E2D89890E949D1113
:1027A00086E0F60111928A95E9F71BC0EE2009F444
:1027B00061CF4D875E878D859E850E94FE0EF82E27
:1027C000882309F457CF86E0F801ABEDB1E0019022
:1027D0000D928A95E1F78BED91E00E94830D0E94A6
:1027E000EB110E94DD1122C04D875E878D859E858D
:1027F0000E940017292F22952F70223028F49F70F5
:1028000039F0811105C00BC0243028F49F7049F4C1
:10281000805E883020F0C8010E946D119F2CF92C39
:1028200005C0F8019581907F99F7F9CF8F2D6196BA
:102830000FB6F894DEBF0FBECDBFDF91CF911F91D1
:102840000F91FF90EF90DF90CF90BF90AF909F904F
:10285000089588EC90E008951F93CF93DF93CDB750
:10286000DEB72C970FB6F894DEBF0FBECDBF4F83F7
:10287000588769877A878B879C87CE0107960E9445
:1028800057128823D1F09F8188852A853B85232B89
:1028900031F08F3F31F481E09F3F19F403C081E0B4
:1028A00001C080E080FD47C04F81588569857A85E9
:1028B0008B859C850E94AC113EC086E0FE01379658
:1028C000DE01119601900D928A95E1F7FF81E8856E
:1028D0006A857B856115710531F0EF3F31F481E048
:1028E000FF3F19F403C081E001C080E080FD23C0F8
:1028F0002091AA0130E0C901019687709927409183
:10290000A90150E084179507F1F1F983EA837D83EB
:102910006C8396E0929FD001939FB00D1124A55532
:10292000BE4FFE01319601900D929A95E1F780938A
:10293000AA010E94BC1116E08091A9019091AA0100
:10294000891771F1189FC001112485559E4F0E946F
:102950005712882329F1E091A9011E9FF00111244B
:10296000E555FE4F4081518162817381848195815B
:102970000E94AC118091A90190E00196877099277F
:102980008093A901D9CF0E94D60E1092AA0110926D
:10299000A901EBEDF1E086E0DF011D928A95E9F7F0
:1029A0002C960FB6F894DEBF0FBECDBFDF91CF914E
:1029B0001F910895EF92FF920F931F93CF93DF9390
:1029C0008C01892B09F46CC0F12CEE24E394E8010E
:1029D0002196F8018491843740F4843008F051C086
:1029E000813081F0823019F15BC0853709F444C031
:1029F000A8F19CE7980F903708F052C08F770E949B
:102A0000330E41C00E5F1F4FFE01849190E2980F7C
:102A1000983050F48770FE2D01C0FF0F8A95EAF7B9
:102A20008F2F0E94621714C00E94890D2DC00E5F67
:102A30001F4FFE01849190E2980F983060F48770E8
:102A4000FE2D01C0FF0F8A95EAF78F2F0E946817AD
:102A50000E948D1719C00E94330E16C00E5F1F4FC3
:102A6000FE01C491CC2381F08FE99FE00197F1F73B
:102A700000C00000C150F6CF0E5F1F4FFE01F49062
:102A800003C00E94890D8E018F2D882309F49FCFEA
:102A9000EFE9FFE03197F1F700C000008150F5CF7A
:102AA000DF91CF911F910F91FF90EF9008950895BE
:102AB00008950C9458150C9459150E945B15609359
:102AC0001702709318028093190290931A020C94C3
:102AD000BC0E0C945D150F931F930091170210917B
:102AE00018022091190230911A02602B712B822B4F
:102AF000932B1F910F910C945D150F931F930091D1
:102B00001702109118022091190230911A026023C5
:102B10007123822393231F910F910C945D150F93C2
:102B20001F93009117021091180220911902309101
:102B30001A0260277127822793271F910F910C9407
:102B40005D150C9458150E94A115609313027093A3
:102B5000140280931502909316020C94BC0E60E050
:102B600070E0CB010C94A3150F931F9341E050E04C
:102B700060E070E08A019B0104C0000F111F221F5A
:102B8000331F8A95D2F7C901B8011F910F910C9498
:102B9000A3150F931F9341E050E060E070E004C084
:102BA000440F551F661F771F8A95D2F78091130235
:102BB00090911402A0911502B09116028A019B0116
:102BC000082B192B2A2B3B2BC901B8011F910F9100
:102BD0000C94A3150F931F9341E050E060E070E068
:102BE00004C0440F551F661F771F8A95D2F7409582
:102BF0005095609570958091130290911402A09168
:102C00001502B09116028A019B01082319232A2379
:102C10003B23C901B8011F910F910C94A3150F9389
:102C20001F9341E050E060E070E004C0440F551F86
:102C3000661F771F8A95D2F7809113029091140234
:102C4000A0911502B09116028A019B01082719274D
:102C50002A273B27C901B8011F910F910C94A31596
:102C60000F931F93009113021091140220911502EB
:102C700030911602602B712B822B932B1F910F9199
:102C80000C94A3150F931F9300911302109114023B
:102C90002091150230911602602371238223932321
:102CA0001F910F910C94A3150F931F930091130282
:102CB000109114022091150230911602602771279D
:102CC000822793271F910F910C94A31508952FE04D
:102CD000929F800D1124E82FE695E695E695877082
:102CE00051E001C0550F8A95EAF785E0E89FF001B1
:102CF0001124EF51FE4F20E030E070E04081CB0125
:102D0000022E02C0969587950A94E2F7817081950C
:102D100084278523842781932F5F3F4F25303105FA
:102D200069F708952FE0929F800D1124682F669512
:102D300066956695982F977085E0689FB00111247D
:102D400040E050E080E0FB01E40FF51FEF51FE4F43
:102D5000208130E0092E02C0369527950A94E2F7CB
:102D600021703327042E01C0220F0A94EAF7822B28
:102D70004F5F5F4F4530510531F70895BF92CF92B5
:102D8000DF92EF92FF920F931F93CF93DF938C010B
:102D9000C0901302D0901402E0901502F090160239
:102DA0008091170290911802A0911902B0911A0215
:102DB000C82AD92AEA2AFB2ACFE1D0E0D701C601E6
:102DC0000C2E04C0B695A795979587950A94D2F7CF
:102DD00080FD04C0219790F7B12C07C0BC2EB8012C
:102DE0008C2F0E94A0060197A9F38B2DDF91CF9124
:102DF0001F910F91FF90EF90DF90CF90BF900895BB
:102E0000CF93DF93EC010E94BE16BE010E94A00684
:102E1000DF91CF9108951F93CF93DF93EB019091B2
:102E2000A601992321F0CB010E94001713C088232B
:102E300049F0CB010E94BE16182F682FCE010E94C8
:102E4000671604C0CB010E949216182FBE01812F75
:102E50000E94A006DF91CF911F91089580911B02DF
:102E6000859585958595089580911B0287700895B5
:102E700090911B02977081E009F480E008958091A1
:102E80003F02089590913F02892B80933F0208955D
:102E9000809590913F02892380933F02089510927C
:102EA0003F02089590913E02892B80933E0208953F
:102EB000809590913E02892380933E02089510925E
:102EC0003E02089590913D02892B80933D02089522
:102ED000809590913D02892380933D020895109240
:102EE0003D02089580911C02089508950C94751771
:102EF0000C94761790911C02981721F080931C0275
:102F00000C947817089580911C02882329F0109260
:102F10001C0280E00C9478170895E0910001F09174
:102F2000010180913F028083E0910001F091010155
:102F3000908180913E02892B8083E0910001F09185
:102F40000101908180913D02892B808380911C0238
:102F5000882381F0E0910001F09101019081892B9B
:102F6000808380910001909101010E94A11881113C
:102F70000E94831780910001909101010C94150C1F
:102F80000C94751798E0899F90011124262B2093AB
:102F90001B020E94C91580911B0285958595859518
:102FA0000C94C01710921B0280E00C94C017209163
:102FB0001B028095822380931B02982F977079F4CF
:102FC00030E0482F082E000C550B2417350739F038
:102FD0008595859585950E94EA150C94D2170895DC
:102FE00080E090E00E94902521E08C3E9E4F09F009
:102FF00020E0822F089582E090E00C948825682FCD
:1030000082E090E00C94962583E090E00C94882573
:10301000682F83E090E00C949625CF9384E090E0B5
:103020000E948825C82F81E290E00E9488252C2FDD
:1030300030E0A901582BCA01CF910895CF93C92F31
:10304000682F84E090E00E9496256C2F81E290E04A
:10305000CF910C949625AB01BC018FE090E00C94CD
:10306000A825AB01BC0183E190E00C94A82560E0A9
:1030700070E0CB010C94311860E070E0CB010E944D
:103080002B180C9437186CEE7EEF80E090E00E94D5
:10309000B42560E082E090E00E94962560E083E045
:1030A00090E00E949625109217021092180210923A
:1030B000190210921A0260E084E090E00E949625C6
:1030C00060E081E290E00E94962560E085E090E07B
:1030D0000E94962560E086E090E00E9496256FEFC2
:1030E00087E090E00E94962540E050E0BA0188E039
:1030F00090E00E94A82560E08DE090E00E94962577
:1031000040E050E0BA0188E190E00E94A82560E02C
:1031100087E190E00E94962540E050E0BA018CE102
:1031200090E00E94A82560E080E290E00E94962551
:103130000C943C180C944318682F8EE090E00C948B
:103140009625FC01329680911401882331F08091FC
:10315000890287FF02C09EE101C096E080E09150A5
:1031600028F021912223D9F38F5FF9CF08956623A8
:1031700051F1209114012223E9F02091890227FFC7
:1031800019C0462F4695469546954E31E0F4677036
:1031900021E030E002C0220F331F6A95E2F7FC0104
:1031A000E40FF11D828190E02823392381E0232B55
:1031B00069F409C0FC01329608962191621729F042
:1031C000E817F907D1F780E0089581E008959C01A0
:1031D000FC0132969FEF80E04191461789F09F3FB6
:1031E00019F4411101C0982F8F5F8630A9F79F3FD6
:1031F00039F0F901E90FF11D97FDFA956283089501
:1032000008959C012A5F3F4FFC014281461301C093
:103210001282019682179307B9F70895262F2695F3
:10322000269526952E3168F4FC01E20FF11D67709A
:1032300021E030E001C0220F6A95EAF78281282B55
:1032400022830895262F2695269526952E3170F4F3
:10325000FC01E20FF11D677021E030E001C0220F98
:103260006A95EAF720958281282322830895209188
:103270001401222329F02091890227FD0C940E19B4
:103280000C94E71820911401222329F0209189023F
:1032900027FD0C9422190C94011920911401FC01B2
:1032A0003296222331F08091890287FF02C08EE19D
:1032B00001C086E0DF011D928A95E9F7089508951F
:1032C0000C945F190C945F19CF930E9462190E94AD
:1032D000F6080E946019C0E08C2F0E948F08892B8D
:1032E00029F4CF5FC530C1F780E001C081E0CF9104
:1032F00008950C945F190C9479190E947B198091A0
:103300008F02843049F11092410220E488E190E07C
:103310000FB6F894A895809360000FBE20936000CC
:1033200080E00E942B060E947B1983B7817F846016
:1033300083BF83B7816083BF7894889583B78E7F7E
:1033400083BF0FB6F894A895809160008861809340
:103350006000109260000FBE08950C945F190E94E7
:10336000D60E0E94090C0E942B060C94AD191F92D8
:103370000F920FB60F9211248F939F93AF93BF9329
:1033800080914102811113C0809185029091860243
:10339000A0918702B09188024196A11DB11D809332
:1033A000850290938602A0938702B0938802BF9112
:1033B000AF919F918F910F900FBE0F901F90189516
:1033C00082E084BD93E095BD9AEF97BD80936E0037
:1033D00008952FB7F8948091850290918602A0916C
:1033E0008702B09188022FBF08959C014FB7F894CF
:1033F0008091850290918602A0918702B091880207
:103400004FBF821B930B089578941F920F920FB6B3
:103410000F9211248F939F93AF93BF938091850256
:1034200090918602A0918702B09188020196A11D19
:10343000B11D8093850290938602A0938702B0937A
:103440008802BF91AF919F918F910F900FBE0F9007
:103450001F90189581E08093E00080E28093D8006F
:103460001092C9008FE19EE40197F1F700C00000BF
:1034700087E090EBDC018093980290939902A093EF
:103480009A02B0939B029CE088E10FB6F894A8954D
:10349000809360000FBE90936000FFCFAF92BF9209
:1034A000CF92DF92EF92FF920F931F93CF93C0E0E2
:1034B000CC24C394D12CE82EF12C8C2F0E948F08A1
:1034C0005C0100E010E0C601002E02C0880F991FC9
:1034D0000A94E2F78A219B21892B31F40F5F1F4F59
:1034E0000F30110581F70AC0602F7C2F80E00E9409
:1034F0008506E816F90691F781E004C0CF5FC53074
:10350000E1F680E0CF911F910F91FF90EF90DF9057
:10351000CF90BF90AF900895CF93C82F8CE20E94B8
:103520004E1A882321F08C2FCF910C944E1A80E0F4
:10353000CF910895CF930E94F017811102C00E948D
:103540009A18C5E6C15049F00E94F6088FE39CE93D
:103550000197F1F700C00000F5CF89E20E948C1AB4
:1035600081112AC18AE20E948C1A81110E949A1844
:1035700085E00E948C1A81110E942A1A0E94FB1772
:103580008093400287E00E948C1A8823A9F18BE186
:103590000E948C1A882351F08091400281FB2227DF
:1035A00020F991E0922790FB81F90EC08EE00E94F5
:1035B0008C1A882361F08091400282FB222720F937
:1035C00091E0922790FB82F98093400215C080E140
:1035D0000E948C1A90914002882341F093FB22278D
:1035E00020F981E0822780FB93F904C0892F809520
:1035F00080FB90F990934002809140020E94FF1757
:103600000E940D1890938A028093890280EE0E9496
:103610008C1A882341F080918902982F909590FB15
:1036200080F98093890289E30E948C1A882359F0DB
:103630008091890281FB222720F991E0922790FB5B
:1036400081F98093890282EE0E948C1A882359F0B6
:103650008091890282FB222720F991E0922790FB3A
:1036600082F98093890286EE0E948C1A882359F091
:103670008091890283FB222720F991E0922790FB19
:1036800083F98093890283EE0E948C1A882359F073
:103690008091890284FB222720F991E0922790FBF8
:1036A00084F98093890285E30E948C1A882359F05B
:1036B0008091890285FB222720F991E0922790FBD7
:1036C00085F98093890281E30E948C1A882359F03E
:1036D0008091890286FB222720F991E0922790FBB6
:1036E00086F98093890281E10E948C1A882359F01F
:1036F0008091890287FB222720F991E0922790FB95
:1037000087F9809389028091890290918A020E94B0
:103710001E1887E20E948C1AC82F8EE10E948C1A14
:103720008111C2608FE10E948C1A8111C46080E215
:103730000E948C1A8111C86081E20E948C1A81114A
:10374000C06182E20E948C1A8111C06283E20E94F1
:103750008C1A8111C06484E20E948C1A882311F0B3
:10376000C06802C0CC2329F08C2F0E9408186C2F4F
:1037700003C00E940418682F70E080E090E00E946F
:103780006915609113027091140280911502909155
:1037900016020E94A1158FE00E948C1A882319F04E
:1037A00081E00E949C1885E10E948C1A882321F0F8
:1037B00080E0CF910C949C18CF910895809148029D
:1037C00080FF0BC06091070185E0689FB001112464
:1037D00075956795759567952BC081FF09C06091B8
:1037E000070185E0689FB00111247595679520C099
:1037F00082FF07C06091070185E0689FB001112436
:1038000017C0909147029923D1F060910601961755
:1038100088F72091070185E0289F90011124929F4D
:10382000A001939F500D112470E0CA010E945A25F7
:103830006038710540F46115710519F406C065E042
:1038400070E0862F08958FE7089581E008958091B4
:10385000480280FF08C06091030170E0759567958C
:103860007595679521C081FF06C06091030170E0E6
:103870007595679519C082FF04C06091030170E0DF
:1038800010C090914602992399F060910201961719
:10389000A0F780910301899FC001112470E00E946C
:1038A0005A256038710540F46115710519F406C098
:1038B00061E070E0862F08958FE7089581E0089514
:1038C000803F21F40E94DE1B819504C0813F29F4D2
:1038D0000E94DE1B80934C020895823F21F40E94D7
:1038E000DE1B819504C0833F29F40E94DE1B809378
:1038F0004B020895893F19F40E94271C05C08A3F96
:1039000031F40E94271C819580934D0208958B3FCE
:1039100021F40E94271C819504C08C3F29F40E9449
:10392000271C80934E020895843F21F480914A021F
:10393000816017C0853F21F480914A02826011C0E6
:10394000863F21F480914A0284600BC0873F21F4B6
:1039500080914A02886005C0883F31F480914A0214
:10396000806180934A0208958D3F21F4809148023E
:1039700081600BC08E3F21F480914802826005C0B7
:103980008F3F29F480914802846080934802089513
:10399000803F39F480914C0287FF6AC010924C023C
:1039A00067C0813F29F480914C021816BCF360C0B7
:1039B00090914B02823F29F497FF5AC010924B021C
:1039C00057C0833F19F41916CCF352C090914D02A1
:1039D000893F31F419160CF04BC010924D0248C0CB
:1039E0008A3F19F497FF44C0F8CF8B3F39F4809198
:1039F0004E0287FF3DC010924E023AC08C3F29F420
:103A000080914E021816BCF333C0843F21F480919C
:103A10004A028E7F17C0853F21F480914A028D7F34
:103A200011C0863F21F480914A028B7F0BC0873FF3
:103A300021F480914A02877F05C0883F31F480914C
:103A40004A028F7E80934A0213C08D3F21F48091F9
:103A500048028E7F0BC08E3F21F4809148028D7FFB
:103A600005C08F3F29F4809148028B7F80934802E4
:103A700080914B02811106C080914C02811102C0DD
:103A80001092470280914D02811106C080914E0232
:103A9000811102C01092460208950E94E9192091F6
:103AA0004B02211104C020914C02222321F090935B
:103AB00045028093440220914D02211104C02091BF
:103AC0004E02222321F0909343028093420289E424
:103AD00092E00C942F0CEF92FF920F931F93CF93D1
:103AE000DF9300D000D000D0CDB7DEB786E0E9E4A8
:103AF000F2E0DE01119601900D928A95E1F7E090D7
:103B00004B02F0904C0200914D0210914E02109227
:103B10004B0210924C0210924D0210924E02E11094
:103B200003C0FF2009F45DC08091440290914502DA
:103B30000E94F519AC0190914702992339F0209128
:103B4000080130E02417350758F04BC020910901D7
:103B50008AE0289F900111242417350718F041C0EE
:103B60009F3F19F09F5F90934702EE2061F00E9403
:103B7000DE1B1E1414F09FEF01C091E0989F902D62
:103B8000112490934B02FF2061F00E94DE1B1F1452
:103B900014F09FEF01C091E0989F902D1124909315
:103BA0004C0230914B023323E1F020914C0222234E
:103BB000C1F045EB3403C0011124992319F090930F
:103BC0004B0203C081E080934B0235EB2303C0011D
:103BD0001124992319F090934C0203C081E0809343
:103BE0004C02011103C0112309F45DC0809142020F
:103BF000909143020E94F519AC01909146029923DD
:103C000039F02091040130E02417350758F04BC0FB
:103C1000209105018AE0289F90011124241735077F
:103C200018F041C09F3F19F09F5F90934602002318
:103C300061F00E94271C101614F09FEF01C091E064
:103C4000989F902D112490934D02112361F00E94B2
:103C5000271C111614F09FEF01C091E0989F902D42
:103C6000112490934E0230914D023323E1F02091C4
:103C70004E022223C1F045EB3403C00111249923E5
:103C800019F090934D0203C081E080934D0235EB13
:103C90002303C0011124992319F090934E0203C00D
:103CA00081E080934E0280914B0281110BC0809184
:103CB0004C02811107C080914D02811103C0809197
:103CC0004E0281110E944D1DEB82FC820D831E83EA
:103CD00086E0FE013196A9E4B2E001900D928A954A
:103CE000E1F726960FB6F894DEBF0FBECDBFDF9189
:103CF000CF911F910F91FF90EF900895E9E4F2E0CA
:103D000086E0DF011D928A95E9F710924702109232
:103D1000460210924802089580916F020895CF9351
:103D2000DF9300D01F92CDB7DEB790918F02943011
:103D300019F589837B836A8382E08093E9008FEFA2
:103D40009091E800815095FD06C095ED9A95F1F7A8
:103D500000008111F5CF8091E80085FF0DC040E0A3
:103D600050E063E070E0CE0101960E94BC2080919B
:103D7000E8008E778093E8000F900F900F90DF910E
:103D8000CF910895BC0184E00C948F1EBC0183E0A8
:103D90000C948F1E22E02093E9002FEF3091E80071
:103DA000215035FD06C035ED3A95F1F7000021119F
:103DB000F5CF2091E80025FF0BC040E050E066E021
:103DC00070E00E94BC208091E8008E778093E8002C
:103DD0000895CF93DF9320911401222339F020918D
:103DE000890227FF03C060E222E002C068E021E010
:103DF0002093E9002FEF3091E800215035FD06C0F7
:103E000035ED3A95F1F700002111F5CF2091E8004A
:103E100025FF1DC0EC0180911401811105C040E017
:103E200050E068E070E003C070E040E050E0CE0198
:103E30000E94BC208091E8008E778093E80080E2A9
:103E4000FE01AFE4B2E001900D928A95E1F7DF91B7
:103E5000CF91089580918E02811109C00E944D2258
:103E60000E94AA228091E20084608093E20008957B
:103E700010928E020895089508950C94AF1942E0AF
:103E800061EC81E00E94C62142E261EC82E00C9488
:103E9000C62180919102833009F460C030F48130F2
:103EA00071F0823009F499C008958A3009F485C010
:103EB0008B3009F46BC0893009F0A7C020C0809115
:103EC0009002813A09F0A1C08091E800877F809339
:103ED000E8008091940290919502892B21F460E290
:103EE0008FE492E003C060E080E090E070E00E9428
:103EF00007218091E8008B778093E80008958091F6
:103F00009002813209F081C08091940290919502D3
:103F1000029708F07AC08091E800877F8093E800DC
:103F20008091E80082FD05C080918F028111F8CF59
:103F30006CC02091F3008091F20090E0922B0297E8
:103F400029F48091F1008B7F813021F48091F10080
:103F500080936F028091E8008B7753C0809190022C
:103F6000813A09F052C08091940290919502892B78
:103F700009F04BC08091E800877F8093E800809132
:103F8000E80080FFFCCF8091140136C08091900240
:103F90008132D9F58091940290919502892BA9F5EF
:103FA0008091E800877F8093E8000E94FB21809148
:103FB0009202809314010C94D60E8091900281326B
:103FC00021F58091E800877F8093E8000E94FB2123
:103FD0008091930280937002089580919002813ABB
:103FE000A1F48091E800877F8093E8008091E80049
:103FF00080FFFCCF809170028093F1008091E800F7
:104000008E778093E8000C94FB21089584B7877F16
:1040100084BF0FB6F894A895809160008861809362
:104020006000109260000FBE90E080E80FB6F89438
:1040300080936100909361000FBE0E94790C0E94F2
:104040004D220E94AA228091E20084608093E200C7
:1040500078940E943F250E94830C8AE091E00E94A0
:10406000040C80918F02853069F40E947D19809143
:104070008D028823B1F30E946419882391F30E9472
:10408000A620EFCF0E948B0CECCF0C944720292F59
:10409000332723303105C9F060F42130310581F038
:1040A0002230310509F04AC08BE390E026E334E08A
:1040B00049C02132310511F12232310579F13EC07A
:1040C00082E190E021E734E03DC0992781309105FD
:1040D00061F040F08230910559F0039779F5EEE0F8
:1040E000F4E008C0E2E3F4E005C0E0E2F4E002C07E
:1040F000E4E1F4E0849190E09F0124C06115710532
:1041000041F061307105D1F489E090E021E634E0BE
:1041100019C089E090E028E434E014C0611571050D
:1041200041F06130710551F48CEB90E023E834E00C
:1041300009C080E490E02FE335E004C080E090E027
:1041400020E030E0FA0131832083089580E189BDC9
:1041500082E189BD09B400FEFDCF8091D8008F7D3A
:104160008093D8008091E00082608093E00080918D
:10417000E00081FDFCCF0895CF92DF92EF92FF9295
:104180000F931F93CF93DF93EC018B017A010E9471
:104190001A22811133C0E114F10439F0F701808152
:1041A0009181081B190BC80FD91FC12CD12C0115E7
:1041B000110519F18091E80085FD16C08091E80095
:1041C0008E778093E800E114F10449F0F7018081D3
:1041D0009181C80ED91ED182C08285E00FC00E9495
:1041E0001A22882321F30AC089918093F10001509B
:1041F0001109FFEFCF1ADF0ADACF80E0DF91CF910C
:104200001F910F91FF90EF90DF90CF900895209134
:104210009602309197022617370748F0611571050D
:1042200039F42091E8002E772093E80001C0B9010D
:10423000FC0120E06115710579F180918F028823DE
:10424000F1F18530F1F18091E80083FD3CC080916F
:10425000E80082FD2EC08091E80080FFEBCF209126
:10426000F3008091F20090E0922B6115710551F0FE
:104270008830910538F421912093F1006150710943
:104280000196F3CF21E0089709F020E08091E80043
:104290008E778093E800CECF2111CFCF0AC08091D6
:1042A0008F02882361F0853061F08091E80083FD02
:1042B0000AC08091E80082FFF2CF80E0089582E09A
:1042C000089583E0089581E0089520919602309149
:1042D00097022617370748F06115710539F42091C8
:1042E000E8002E772093E80001C0B901FC0120E02E
:1042F0006115710591F180918F02882309F440C006
:10430000853009F43FC08091E80083FD3DC0809175
:10431000E80082FD2FC08091E80080FFE9CF209166
:10432000F3008091F20090E0922B6115710559F035
:104330008830910540F424912093F100319661502A
:1043400071090196F2CF21E0089709F020E08091F1
:10435000E8008E778093E800CBCF2111CCCF0AC044
:1043600080918F02882361F0853061F08091E800B0
:1043700083FD0AC08091E80082FFF2CF80E00895BB
:1043800082E0089583E0089581E00895982F9730A2
:1043900068F59093E900981739F07091EC0020913E
:1043A000ED005091F00003C0242F762F50E021FD46
:1043B00002C09F5FECCF3091EB003E7F3093EB006B
:1043C0003091ED003D7F3093ED003091EB00316096
:1043D0003093EB007093EC002093ED005093F000CD
:1043E0002091EE0027FDE5CF80E008958F70809347
:1043F000E90081E008958091900287FF11C08091CB
:10440000E80082FD05C080918F028111F8CF11C0B4
:104410008091E8008B770BC080918F02882349F050
:104420008091E80080FFF8CF8091E8008E7780933C
:10443000E80008952091E4003091E50095E6409170
:10444000EC00842F817040FF23C08091E80080FD44
:104450001DC080918F02882399F0853099F080915A
:10446000EB0085FD11C04091E4005091E500241758
:10447000350729F3915011F09A01E1CF84E00895B6
:1044800082E0089583E0089581E0089580E0089532
:104490004091E80042FFDDCF08950E94BB220E94B8
:1044A000C322E0EEF0E0808181608083E8EDF0E0FF
:1044B00080818F77808319BCA7EDB0E08C918E7FCF
:1044C0008C9380818F7E808310928E0208950F934B
:1044D0001F93CF93DF930E94BB220E94C322C8ED9B
:1044E000D0E088818F7788838881806888838881FD
:1044F0008F7D888319BC10928F0210928B021092CC
:104500008D0210928C0200EE10E0F80180818B7F0A
:10451000808388818160888342E060E080E00E943F
:10452000C621E1EEF0E080818E7F8083E2EEF0E054
:10453000808181608083808188608083F8018081B0
:104540008E7F8083888180618883DF91CF911F91E6
:104550000F910895E8EDF0E080818F7E8083E7ED94
:10456000F0E080818160808384E082BF81E080937D
:104570008E020C946722E8EDF0E080818E7F8083CC
:104580001092E20008951092DA001092E10008956E
:104590001F920F920FB60F9211242F933F934F93B8
:1045A0005F936F937F938F939F93AF93BF93EF939B
:1045B000FF938091E10082FF0BC08091E20082FFB7
:1045C00007C08091E1008B7F8093E1000E943E252F
:1045D0008091DA0080FF1FC08091D80080FF1BC04F
:1045E0008091DA008E7F8093DA008091D90080FF7D
:1045F0000DC080E189BD82E189BD09B400FEFDCF17
:1046000081E080938F020E942A1F05C019BC10927E
:104610008F020E94381F8091E10080FF19C08091B5
:10462000E20080FF15C08091E2008E7F8093E2005F
:104630008091E20080618093E2008091D8008062E6
:104640008093D80019BC85E080938F020E943C1FA4
:104650008091E10084FF30C08091E20084FF2CC093
:1046600080E189BD82E189BD09B400FEFDCF809162
:10467000D8008F7D8093D8008091E1008F7E809359
:10468000E1008091E2008F7E8093E2008091E20061
:1046900081608093E20080918B02882311F084E096
:1046A00007C08091E30087FD02C081E001C083E084
:1046B00080938F020E943D1F8091E10083FF29C0FB
:1046C0008091E20083FF25C08091E100877F809385
:1046D000E10082E080938F0210928B028091E100D2
:1046E0008E7F8093E1008091E2008E7F8093E200D4
:1046F0008091E20080618093E20042E060E080E02F
:104700000E94C6218091F00088608093F0000E9492
:104710003B1FFF91EF91BF91AF919F918F917F913F
:104720006F915F914F913F912F910F900FBE0F901E
:104730001F9018951F920F920FB60F9211242F936E
:104740003F934F935F936F937F938F939F93AF9319
:10475000BF93CF93DF93EF93FF93C091E900CF70A6
:104760008091EC00D82FD17080FDD0E81092E90044
:104770008091F000877F8093F00078940E94DE2380
:104780001092E9008091F00088608093F000CD2BBA
:10479000CF70C093E900FF91EF91DF91CF91BF916E
:1047A000AF919F918F917F916F915F914F913F91C9
:1047B0002F910F900FBE0F901F9018951F93CF93BE
:1047C000DF93CDB7DEB7AA970FB6F894DEBF0FBE62
:1047D000CDBFE0E9F2E08091F100819322E0E83979
:1047E000F207C9F70E94491F8091E80083FF2EC19C
:1047F0008091900290919102492F50E04A305105EA
:1048000008F024C1FA01EA57FF4F0C946E25803856
:1048100021F0823809F01AC108C080918C02909171
:104820008D02992389F082600FC0809194028F706D
:10483000873008F00BC18093E9008091EB0085FB85
:10484000882780F91092E9009091E800977F909373
:10485000E8008093F1001092F100D1C0282F2D7F45
:1048600009F0F4C0882319F0823061F0EFC0809124
:104870009202813009F0EAC0933009F080E0809321
:104880008D022EC08091920281112AC080919402E3
:104890008F702FEF280F263008F0D8C08093E900E2
:1048A0002091EB0020FF1CC0933021F48091EB009D
:1048B000806214C09091EB0090619093EB0021E036
:1048C00030E0A90102C0440F551F8A95E2F74093DA
:1048D000EA001092EA008091EB0088608093EB0080
:1048E0001092E9008091E800877F8093E8000E94A1
:1048F000FB21ACC08111AAC0109192021F77809158
:10490000E3008078812B8093E3008091E800877F2B
:104910008093E8000E94FB218091E80080FFFCCF9B
:104920008091E30080688093E300111102C082E06F
:1049300001C083E080938F0289C08058823008F0E4
:1049400085C080919202909193028C3D53E095072F
:1049500079F583E08A838AE289834FB7F894DE0190
:10496000139620E03EE051E2E32FF0E05093570031
:10497000E49120FF03C0E295EF703F5FEF708E2F50
:1049800090E0EA3010F0C79601C0C0968D939D93D9
:104990002F5F243149F74FBF8091E800877F8093D4
:1049A000E8006AE270E0CE0101960E94072116C07D
:1049B0006091940270919502AE014F5F5F4F0E942B
:1049C0004520BC01892B09F441C09091E800977FF4
:1049D0009093E80089819A810E9465218091E80086
:1049E0008B778093E80032C0803881F58091E800B1
:1049F000877F8093E80080918B028093F100809103
:104A0000E8008E7772CF811121C08091920290913F
:104A1000930299270297D4F48091E800877F8093CE
:104A2000E8008091920280938B020E94FB2180918A
:104A30008B02811106C08091E30087FD02C081E0F6
:104A400001C084E080938F020E943F1F8091E800A4
:104A500083FF0AC08091E800877F8093E8008091FF
:104A6000EB0080628093EB00AA960FB6F894DEBF4D
:104A70000FBECDBFDF91CF911F9108950895CF93C1
:104A800080918F028823A1F0C091E900CF709091AE
:104A9000EC00892F817090FD80E8C82B1092E9000E
:104AA0008091E80083FD0E94DE23CF70C093E9006F
:104AB000CF91089597FB072E16F4009407D077FD49
:104AC00009D00E94742507FC05D03EF4909581958D
:104AD0009F4F0895709561957F4F0895EE0FFF1FCA
:104AE0000590F491E02D0994AA1BBB1B51E107C06E
:104AF000AA1FBB1FA617B70710F0A61BB70B881F6E
:104B0000991F5A95A9F780959095BC01CD010895FC
:104B1000F999FECF92BD81BDF89A992780B5089585
:104B2000A8E1B0E042E050E00C94BC25262FF999B2
:104B3000FECF92BD81BDF89A019700B4021639F0FC
:104B40001FBA20BD0FB6F894FA9AF99A0FBE0895CD
:104B50000396272F0E9497250E949625252F0E94B5
:104B60009725242F0C9497250196272F0E9497258F
:104B70000C949625DC01CB01FC01F999FECF06C00F
:104B8000F2BDE1BDF89A319600B40D92415050400B
:084B9000B8F70895F894FFCF77
:104B98001D022808641E140A321E8C1EE91ECA1E35
:104BA800C61EC21E01E200E900EA00B500B600B761
:104BB80000CD008301CC008A0192019401210223D7
:104BC8000224022502260227022A02B300B4006F3B
:104BD800007000818283F0F1C66766379431303502
:104BE80034979633F49091929395E200E900EA00A5
:104BF800B500B600B700CD008301CC008A01920150
:104C080094012102230224022502260227022A02F5
:0C4C1800B300B4006F00700081828300C4
:00000001FF
